{
	"src/auction.sol": {
		"Auction": {
			"abi": [
				{
					"inputs": [
						{
							"internalType": "address",
							"name": "eoa",
							"type": "address"
						}
					],
					"stateMutability": "nonpayable",
					"type": "constructor"
				},
				{
					"inputs": [],
					"name": "auctionState",
					"outputs": [
						{
							"internalType": "enum Auction.State",
							"name": "",
							"type": "uint8"
						}
					],
					"stateMutability": "view",
					"type": "function"
				},
				{
					"inputs": [
						{
							"internalType": "address",
							"name": "",
							"type": "address"
						}
					],
					"name": "bids",
					"outputs": [
						{
							"internalType": "uint256",
							"name": "",
							"type": "uint256"
						}
					],
					"stateMutability": "view",
					"type": "function"
				},
				{
					"inputs": [],
					"name": "cancelAuction",
					"outputs": [],
					"stateMutability": "nonpayable",
					"type": "function"
				},
				{
					"inputs": [],
					"name": "endBlock",
					"outputs": [
						{
							"internalType": "uint256",
							"name": "",
							"type": "uint256"
						}
					],
					"stateMutability": "view",
					"type": "function"
				},
				{
					"inputs": [],
					"name": "finalizeAuction",
					"outputs": [],
					"stateMutability": "nonpayable",
					"type": "function"
				},
				{
					"inputs": [],
					"name": "highestBidder",
					"outputs": [
						{
							"internalType": "address payable",
							"name": "",
							"type": "address"
						}
					],
					"stateMutability": "view",
					"type": "function"
				},
				{
					"inputs": [],
					"name": "highestBindingBid",
					"outputs": [
						{
							"internalType": "uint256",
							"name": "",
							"type": "uint256"
						}
					],
					"stateMutability": "view",
					"type": "function"
				},
				{
					"inputs": [],
					"name": "ipfsHash",
					"outputs": [
						{
							"internalType": "string",
							"name": "",
							"type": "string"
						}
					],
					"stateMutability": "view",
					"type": "function"
				},
				{
					"inputs": [],
					"name": "owner",
					"outputs": [
						{
							"internalType": "address payable",
							"name": "",
							"type": "address"
						}
					],
					"stateMutability": "view",
					"type": "function"
				},
				{
					"inputs": [],
					"name": "placeBid",
					"outputs": [],
					"stateMutability": "payable",
					"type": "function"
				},
				{
					"inputs": [],
					"name": "startBlock",
					"outputs": [
						{
							"internalType": "uint256",
							"name": "",
							"type": "uint256"
						}
					],
					"stateMutability": "view",
					"type": "function"
				}
			],
			"devdoc": {
				"kind": "dev",
				"methods": {},
				"version": 1
			},
			"evm": {
				"assembly": "    /* \"src/auction.sol\":249:3621  contract Auction{... */\n  mstore(0x40, 0x80)\n    /* \"src/auction.sol\":755:1199  constructor(address eoa){... */\n  callvalue\n  dup1\n  iszero\n  tag_1\n  jumpi\n  revert(0x00, 0x00)\ntag_1:\n  pop\n  mload(0x40)\n  sub(codesize, bytecodeSize)\n  dup1\n  bytecodeSize\n  dup4\n  codecopy\n  dup2\n  dup2\n  add\n  0x40\n  mstore\n  dup2\n  add\n  swap1\n  tag_2\n  swap2\n  swap1\n  tag_3\n  jump\t// in\ntag_2:\n    /* \"src/auction.sol\":805:808  eoa */\n  dup1\n    /* \"src/auction.sol\":789:794  owner */\n  0x00\n  0x00\n    /* \"src/auction.sol\":789:809  owner = payable(eoa) */\n  0x0100\n  exp\n  dup2\n  sload\n  dup2\n  0xffffffffffffffffffffffffffffffffffffffff\n  mul\n  not\n  and\n  swap1\n  dup4\n  0xffffffffffffffffffffffffffffffffffffffff\n  and\n  mul\n  or\n  swap1\n  sstore\n  pop\n    /* \"src/auction.sol\":834:847  State.Running */\n  0x01\n    /* \"src/auction.sol\":819:831  auctionState */\n  0x04\n  0x00\n    /* \"src/auction.sol\":819:847  auctionState = State.Running */\n  0x0100\n  exp\n  dup2\n  sload\n  dup2\n  0xff\n  mul\n  not\n  and\n  swap1\n  dup4\n  0x03\n  dup2\n  gt\n  iszero\n  tag_6\n  jumpi\n  tag_7\n  tag_8\n  jump\t// in\ntag_7:\ntag_6:\n  mul\n  or\n  swap1\n  sstore\n  pop\n    /* \"src/auction.sol\":1089:1101  block.number */\n  number\n    /* \"src/auction.sol\":1076:1086  startBlock */\n  0x01\n    /* \"src/auction.sol\":1076:1101  startBlock = block.number */\n  dup2\n  swap1\n  sstore\n  pop\n    /* \"src/auction.sol\":1135:1140  40320 */\n  0x9d80\n    /* \"src/auction.sol\":1122:1132  startBlock */\n  sload(0x01)\n    /* \"src/auction.sol\":1122:1140  startBlock + 40320 */\n  tag_9\n  swap2\n  swap1\n  tag_10\n  jump\t// in\ntag_9:\n    /* \"src/auction.sol\":1111:1119  endBlock */\n  0x02\n    /* \"src/auction.sol\":1111:1140  endBlock = startBlock + 40320 */\n  dup2\n  swap1\n  sstore\n  pop\n    /* \"src/auction.sol\":1151:1164  ipfsHash = \"\" */\n  mload(0x40)\n  dup1\n  0x20\n  add\n  0x40\n  mstore\n  dup1\n  0x00\n  dup2\n  mstore\n  pop\n    /* \"src/auction.sol\":1151:1159  ipfsHash */\n  0x03\n    /* \"src/auction.sol\":1151:1164  ipfsHash = \"\" */\n  swap1\n  dup2\n  tag_11\n  swap2\n  swap1\n  tag_12\n  jump\t// in\ntag_11:\n  pop\n    /* \"src/auction.sol\":1189:1192  100 */\n  0x64\n    /* \"src/auction.sol\":1174:1186  bidIncrement */\n  0x08\n    /* \"src/auction.sol\":1174:1192  bidIncrement = 100 */\n  dup2\n  swap1\n  sstore\n  pop\n    /* \"src/auction.sol\":755:1199  constructor(address eoa){... */\n  pop\n    /* \"src/auction.sol\":249:3621  contract Auction{... */\n  jump(tag_13)\n    /* \"#utility.yul\":88:205   */\ntag_15:\n    /* \"#utility.yul\":197:198   */\n  0x00\n    /* \"#utility.yul\":194:195   */\n  0x00\n    /* \"#utility.yul\":187:199   */\n  revert\n    /* \"#utility.yul\":334:460   */\ntag_17:\n    /* \"#utility.yul\":371:378   */\n  0x00\n    /* \"#utility.yul\":411:453   */\n  0xffffffffffffffffffffffffffffffffffffffff\n    /* \"#utility.yul\":404:409   */\n  dup3\n    /* \"#utility.yul\":400:454   */\n  and\n    /* \"#utility.yul\":389:454   */\n  swap1\n  pop\n    /* \"#utility.yul\":334:460   */\n  swap2\n  swap1\n  pop\n  jump\t// out\n    /* \"#utility.yul\":466:562   */\ntag_18:\n    /* \"#utility.yul\":503:510   */\n  0x00\n    /* \"#utility.yul\":532:556   */\n  tag_48\n    /* \"#utility.yul\":550:555   */\n  dup3\n    /* \"#utility.yul\":532:556   */\n  tag_17\n  jump\t// in\ntag_48:\n    /* \"#utility.yul\":521:556   */\n  swap1\n  pop\n    /* \"#utility.yul\":466:562   */\n  swap2\n  swap1\n  pop\n  jump\t// out\n    /* \"#utility.yul\":568:690   */\ntag_19:\n    /* \"#utility.yul\":641:665   */\n  tag_50\n    /* \"#utility.yul\":659:664   */\n  dup2\n    /* \"#utility.yul\":641:665   */\n  tag_18\n  jump\t// in\ntag_50:\n    /* \"#utility.yul\":634:639   */\n  dup2\n    /* \"#utility.yul\":631:666   */\n  eq\n    /* \"#utility.yul\":621:684   */\n  tag_51\n  jumpi\n    /* \"#utility.yul\":680:681   */\n  0x00\n    /* \"#utility.yul\":677:678   */\n  0x00\n    /* \"#utility.yul\":670:682   */\n  revert\n    /* \"#utility.yul\":621:684   */\ntag_51:\n    /* \"#utility.yul\":568:690   */\n  pop\n  jump\t// out\n    /* \"#utility.yul\":696:839   */\ntag_20:\n    /* \"#utility.yul\":753:758   */\n  0x00\n    /* \"#utility.yul\":784:790   */\n  dup2\n    /* \"#utility.yul\":778:791   */\n  mload\n    /* \"#utility.yul\":769:791   */\n  swap1\n  pop\n    /* \"#utility.yul\":800:833   */\n  tag_53\n    /* \"#utility.yul\":827:832   */\n  dup2\n    /* \"#utility.yul\":800:833   */\n  tag_19\n  jump\t// in\ntag_53:\n    /* \"#utility.yul\":696:839   */\n  swap3\n  swap2\n  pop\n  pop\n  jump\t// out\n    /* \"#utility.yul\":845:1196   */\ntag_3:\n    /* \"#utility.yul\":915:921   */\n  0x00\n    /* \"#utility.yul\":964:966   */\n  0x20\n    /* \"#utility.yul\":952:961   */\n  dup3\n    /* \"#utility.yul\":943:950   */\n  dup5\n    /* \"#utility.yul\":939:962   */\n  sub\n    /* \"#utility.yul\":935:967   */\n  slt\n    /* \"#utility.yul\":932:1051   */\n  iszero\n  tag_55\n  jumpi\n    /* \"#utility.yul\":970:1049   */\n  tag_56\n  tag_15\n  jump\t// in\ntag_56:\n    /* \"#utility.yul\":932:1051   */\ntag_55:\n    /* \"#utility.yul\":1090:1091   */\n  0x00\n    /* \"#utility.yul\":1115:1179   */\n  tag_57\n    /* \"#utility.yul\":1171:1178   */\n  dup5\n    /* \"#utility.yul\":1162:1168   */\n  dup3\n    /* \"#utility.yul\":1151:1160   */\n  dup6\n    /* \"#utility.yul\":1147:1169   */\n  add\n    /* \"#utility.yul\":1115:1179   */\n  tag_20\n  jump\t// in\ntag_57:\n    /* \"#utility.yul\":1105:1179   */\n  swap2\n  pop\n    /* \"#utility.yul\":1061:1189   */\n  pop\n    /* \"#utility.yul\":845:1196   */\n  swap3\n  swap2\n  pop\n  pop\n  jump\t// out\n    /* \"#utility.yul\":1202:1382   */\ntag_8:\n    /* \"#utility.yul\":1250:1327   */\n  0x4e487b7100000000000000000000000000000000000000000000000000000000\n    /* \"#utility.yul\":1247:1248   */\n  0x00\n    /* \"#utility.yul\":1240:1328   */\n  mstore\n    /* \"#utility.yul\":1347:1351   */\n  0x21\n    /* \"#utility.yul\":1344:1345   */\n  0x04\n    /* \"#utility.yul\":1337:1352   */\n  mstore\n    /* \"#utility.yul\":1371:1375   */\n  0x24\n    /* \"#utility.yul\":1368:1369   */\n  0x00\n    /* \"#utility.yul\":1361:1376   */\n  revert\n    /* \"#utility.yul\":1388:1465   */\ntag_21:\n    /* \"#utility.yul\":1425:1432   */\n  0x00\n    /* \"#utility.yul\":1454:1459   */\n  dup2\n    /* \"#utility.yul\":1443:1459   */\n  swap1\n  pop\n    /* \"#utility.yul\":1388:1465   */\n  swap2\n  swap1\n  pop\n  jump\t// out\n    /* \"#utility.yul\":1471:1651   */\ntag_22:\n    /* \"#utility.yul\":1519:1596   */\n  0x4e487b7100000000000000000000000000000000000000000000000000000000\n    /* \"#utility.yul\":1516:1517   */\n  0x00\n    /* \"#utility.yul\":1509:1597   */\n  mstore\n    /* \"#utility.yul\":1616:1620   */\n  0x11\n    /* \"#utility.yul\":1613:1614   */\n  0x04\n    /* \"#utility.yul\":1606:1621   */\n  mstore\n    /* \"#utility.yul\":1640:1644   */\n  0x24\n    /* \"#utility.yul\":1637:1638   */\n  0x00\n    /* \"#utility.yul\":1630:1645   */\n  revert\n    /* \"#utility.yul\":1657:1848   */\ntag_10:\n    /* \"#utility.yul\":1697:1700   */\n  0x00\n    /* \"#utility.yul\":1716:1736   */\n  tag_62\n    /* \"#utility.yul\":1734:1735   */\n  dup3\n    /* \"#utility.yul\":1716:1736   */\n  tag_21\n  jump\t// in\ntag_62:\n    /* \"#utility.yul\":1711:1736   */\n  swap2\n  pop\n    /* \"#utility.yul\":1750:1770   */\n  tag_63\n    /* \"#utility.yul\":1768:1769   */\n  dup4\n    /* \"#utility.yul\":1750:1770   */\n  tag_21\n  jump\t// in\ntag_63:\n    /* \"#utility.yul\":1745:1770   */\n  swap3\n  pop\n    /* \"#utility.yul\":1793:1794   */\n  dup3\n    /* \"#utility.yul\":1790:1791   */\n  dup3\n    /* \"#utility.yul\":1786:1795   */\n  add\n    /* \"#utility.yul\":1779:1795   */\n  swap1\n  pop\n    /* \"#utility.yul\":1814:1817   */\n  dup1\n    /* \"#utility.yul\":1811:1812   */\n  dup3\n    /* \"#utility.yul\":1808:1818   */\n  gt\n    /* \"#utility.yul\":1805:1841   */\n  iszero\n  tag_64\n  jumpi\n    /* \"#utility.yul\":1821:1839   */\n  tag_65\n  tag_22\n  jump\t// in\ntag_65:\n    /* \"#utility.yul\":1805:1841   */\ntag_64:\n    /* \"#utility.yul\":1657:1848   */\n  swap3\n  swap2\n  pop\n  pop\n  jump\t// out\n    /* \"#utility.yul\":1854:1953   */\ntag_23:\n    /* \"#utility.yul\":1906:1912   */\n  0x00\n    /* \"#utility.yul\":1940:1945   */\n  dup2\n    /* \"#utility.yul\":1934:1946   */\n  mload\n    /* \"#utility.yul\":1924:1946   */\n  swap1\n  pop\n    /* \"#utility.yul\":1854:1953   */\n  swap2\n  swap1\n  pop\n  jump\t// out\n    /* \"#utility.yul\":1959:2139   */\ntag_24:\n    /* \"#utility.yul\":2007:2084   */\n  0x4e487b7100000000000000000000000000000000000000000000000000000000\n    /* \"#utility.yul\":2004:2005   */\n  0x00\n    /* \"#utility.yul\":1997:2085   */\n  mstore\n    /* \"#utility.yul\":2104:2108   */\n  0x41\n    /* \"#utility.yul\":2101:2102   */\n  0x04\n    /* \"#utility.yul\":2094:2109   */\n  mstore\n    /* \"#utility.yul\":2128:2132   */\n  0x24\n    /* \"#utility.yul\":2125:2126   */\n  0x00\n    /* \"#utility.yul\":2118:2133   */\n  revert\n    /* \"#utility.yul\":2145:2325   */\ntag_25:\n    /* \"#utility.yul\":2193:2270   */\n  0x4e487b7100000000000000000000000000000000000000000000000000000000\n    /* \"#utility.yul\":2190:2191   */\n  0x00\n    /* \"#utility.yul\":2183:2271   */\n  mstore\n    /* \"#utility.yul\":2290:2294   */\n  0x22\n    /* \"#utility.yul\":2287:2288   */\n  0x04\n    /* \"#utility.yul\":2280:2295   */\n  mstore\n    /* \"#utility.yul\":2314:2318   */\n  0x24\n    /* \"#utility.yul\":2311:2312   */\n  0x00\n    /* \"#utility.yul\":2304:2319   */\n  revert\n    /* \"#utility.yul\":2331:2651   */\ntag_26:\n    /* \"#utility.yul\":2375:2381   */\n  0x00\n    /* \"#utility.yul\":2412:2413   */\n  0x02\n    /* \"#utility.yul\":2406:2410   */\n  dup3\n    /* \"#utility.yul\":2402:2414   */\n  div\n    /* \"#utility.yul\":2392:2414   */\n  swap1\n  pop\n    /* \"#utility.yul\":2459:2460   */\n  0x01\n    /* \"#utility.yul\":2453:2457   */\n  dup3\n    /* \"#utility.yul\":2449:2461   */\n  and\n    /* \"#utility.yul\":2480:2498   */\n  dup1\n    /* \"#utility.yul\":2470:2551   */\n  tag_70\n  jumpi\n    /* \"#utility.yul\":2536:2540   */\n  0x7f\n    /* \"#utility.yul\":2528:2534   */\n  dup3\n    /* \"#utility.yul\":2524:2541   */\n  and\n    /* \"#utility.yul\":2514:2541   */\n  swap2\n  pop\n    /* \"#utility.yul\":2470:2551   */\ntag_70:\n    /* \"#utility.yul\":2598:2600   */\n  0x20\n    /* \"#utility.yul\":2590:2596   */\n  dup3\n    /* \"#utility.yul\":2587:2601   */\n  lt\n    /* \"#utility.yul\":2567:2585   */\n  dup2\n    /* \"#utility.yul\":2564:2602   */\n  sub\n    /* \"#utility.yul\":2561:2645   */\n  tag_71\n  jumpi\n    /* \"#utility.yul\":2617:2635   */\n  tag_72\n  tag_25\n  jump\t// in\ntag_72:\n    /* \"#utility.yul\":2561:2645   */\ntag_71:\n    /* \"#utility.yul\":2382:2651   */\n  pop\n    /* \"#utility.yul\":2331:2651   */\n  swap2\n  swap1\n  pop\n  jump\t// out\n    /* \"#utility.yul\":2657:2798   */\ntag_27:\n    /* \"#utility.yul\":2706:2710   */\n  0x00\n    /* \"#utility.yul\":2729:2732   */\n  dup2\n    /* \"#utility.yul\":2721:2732   */\n  swap1\n  pop\n    /* \"#utility.yul\":2752:2755   */\n  dup2\n    /* \"#utility.yul\":2749:2750   */\n  0x00\n    /* \"#utility.yul\":2742:2756   */\n  mstore\n    /* \"#utility.yul\":2786:2790   */\n  0x20\n    /* \"#utility.yul\":2783:2784   */\n  0x00\n    /* \"#utility.yul\":2773:2791   */\n  keccak256\n    /* \"#utility.yul\":2765:2791   */\n  swap1\n  pop\n    /* \"#utility.yul\":2657:2798   */\n  swap2\n  swap1\n  pop\n  jump\t// out\n    /* \"#utility.yul\":2804:2897   */\ntag_28:\n    /* \"#utility.yul\":2841:2847   */\n  0x00\n    /* \"#utility.yul\":2888:2890   */\n  0x20\n    /* \"#utility.yul\":2883:2885   */\n  0x1f\n    /* \"#utility.yul\":2876:2881   */\n  dup4\n    /* \"#utility.yul\":2872:2886   */\n  add\n    /* \"#utility.yul\":2868:2891   */\n  div\n    /* \"#utility.yul\":2858:2891   */\n  swap1\n  pop\n    /* \"#utility.yul\":2804:2897   */\n  swap2\n  swap1\n  pop\n  jump\t// out\n    /* \"#utility.yul\":2903:3010   */\ntag_29:\n    /* \"#utility.yul\":2947:2955   */\n  0x00\n    /* \"#utility.yul\":2997:3002   */\n  dup3\n    /* \"#utility.yul\":2991:2995   */\n  dup3\n    /* \"#utility.yul\":2987:3003   */\n  shl\n    /* \"#utility.yul\":2966:3003   */\n  swap1\n  pop\n    /* \"#utility.yul\":2903:3010   */\n  swap3\n  swap2\n  pop\n  pop\n  jump\t// out\n    /* \"#utility.yul\":3016:3409   */\ntag_30:\n    /* \"#utility.yul\":3085:3091   */\n  0x00\n    /* \"#utility.yul\":3135:3136   */\n  0x08\n    /* \"#utility.yul\":3123:3133   */\n  dup4\n    /* \"#utility.yul\":3119:3137   */\n  mul\n    /* \"#utility.yul\":3158:3255   */\n  tag_77\n    /* \"#utility.yul\":3188:3254   */\n  0xffffffffffffffffffffffffffffffffffffffffffffffffffffffffffffffff\n    /* \"#utility.yul\":3177:3186   */\n  dup3\n    /* \"#utility.yul\":3158:3255   */\n  tag_29\n  jump\t// in\ntag_77:\n    /* \"#utility.yul\":3276:3315   */\n  tag_78\n    /* \"#utility.yul\":3306:3314   */\n  dup7\n    /* \"#utility.yul\":3295:3304   */\n  dup4\n    /* \"#utility.yul\":3276:3315   */\n  tag_29\n  jump\t// in\ntag_78:\n    /* \"#utility.yul\":3264:3315   */\n  swap6\n  pop\n    /* \"#utility.yul\":3348:3352   */\n  dup1\n    /* \"#utility.yul\":3344:3353   */\n  not\n    /* \"#utility.yul\":3337:3342   */\n  dup5\n    /* \"#utility.yul\":3333:3354   */\n  and\n    /* \"#utility.yul\":3324:3354   */\n  swap4\n  pop\n    /* \"#utility.yul\":3397:3401   */\n  dup1\n    /* \"#utility.yul\":3387:3395   */\n  dup7\n    /* \"#utility.yul\":3383:3402   */\n  and\n    /* \"#utility.yul\":3376:3381   */\n  dup5\n    /* \"#utility.yul\":3373:3403   */\n  or\n    /* \"#utility.yul\":3363:3403   */\n  swap3\n  pop\n    /* \"#utility.yul\":3092:3409   */\n  pop\n  pop\n    /* \"#utility.yul\":3016:3409   */\n  swap4\n  swap3\n  pop\n  pop\n  pop\n  jump\t// out\n    /* \"#utility.yul\":3415:3475   */\ntag_31:\n    /* \"#utility.yul\":3443:3446   */\n  0x00\n    /* \"#utility.yul\":3464:3469   */\n  dup2\n    /* \"#utility.yul\":3457:3469   */\n  swap1\n  pop\n    /* \"#utility.yul\":3415:3475   */\n  swap2\n  swap1\n  pop\n  jump\t// out\n    /* \"#utility.yul\":3481:3623   */\ntag_32:\n    /* \"#utility.yul\":3531:3540   */\n  0x00\n    /* \"#utility.yul\":3564:3617   */\n  tag_81\n    /* \"#utility.yul\":3582:3616   */\n  tag_82\n    /* \"#utility.yul\":3591:3615   */\n  tag_83\n    /* \"#utility.yul\":3609:3614   */\n  dup5\n    /* \"#utility.yul\":3591:3615   */\n  tag_21\n  jump\t// in\ntag_83:\n    /* \"#utility.yul\":3582:3616   */\n  tag_31\n  jump\t// in\ntag_82:\n    /* \"#utility.yul\":3564:3617   */\n  tag_21\n  jump\t// in\ntag_81:\n    /* \"#utility.yul\":3551:3617   */\n  swap1\n  pop\n    /* \"#utility.yul\":3481:3623   */\n  swap2\n  swap1\n  pop\n  jump\t// out\n    /* \"#utility.yul\":3629:3704   */\ntag_33:\n    /* \"#utility.yul\":3672:3675   */\n  0x00\n    /* \"#utility.yul\":3693:3698   */\n  dup2\n    /* \"#utility.yul\":3686:3698   */\n  swap1\n  pop\n    /* \"#utility.yul\":3629:3704   */\n  swap2\n  swap1\n  pop\n  jump\t// out\n    /* \"#utility.yul\":3710:3979   */\ntag_34:\n    /* \"#utility.yul\":3820:3859   */\n  tag_86\n    /* \"#utility.yul\":3851:3858   */\n  dup4\n    /* \"#utility.yul\":3820:3859   */\n  tag_32\n  jump\t// in\ntag_86:\n    /* \"#utility.yul\":3881:3972   */\n  tag_87\n    /* \"#utility.yul\":3930:3971   */\n  tag_88\n    /* \"#utility.yul\":3954:3970   */\n  dup3\n    /* \"#utility.yul\":3930:3971   */\n  tag_33\n  jump\t// in\ntag_88:\n    /* \"#utility.yul\":3922:3928   */\n  dup5\n    /* \"#utility.yul\":3915:3919   */\n  dup5\n    /* \"#utility.yul\":3909:3920   */\n  sload\n    /* \"#utility.yul\":3881:3972   */\n  tag_30\n  jump\t// in\ntag_87:\n    /* \"#utility.yul\":3875:3879   */\n  dup3\n    /* \"#utility.yul\":3868:3973   */\n  sstore\n    /* \"#utility.yul\":3786:3979   */\n  pop\n    /* \"#utility.yul\":3710:3979   */\n  pop\n  pop\n  pop\n  jump\t// out\n    /* \"#utility.yul\":3985:4058   */\ntag_35:\n    /* \"#utility.yul\":4030:4033   */\n  0x00\n    /* \"#utility.yul\":4051:4052   */\n  0x00\n    /* \"#utility.yul\":4044:4052   */\n  swap1\n  pop\n    /* \"#utility.yul\":3985:4058   */\n  swap1\n  jump\t// out\n    /* \"#utility.yul\":4064:4253   */\ntag_36:\n    /* \"#utility.yul\":4141:4173   */\n  tag_91\n  tag_35\n  jump\t// in\ntag_91:\n    /* \"#utility.yul\":4182:4247   */\n  tag_92\n    /* \"#utility.yul\":4240:4246   */\n  dup2\n    /* \"#utility.yul\":4232:4238   */\n  dup5\n    /* \"#utility.yul\":4226:4230   */\n  dup5\n    /* \"#utility.yul\":4182:4247   */\n  tag_34\n  jump\t// in\ntag_92:\n    /* \"#utility.yul\":4117:4253   */\n  pop\n    /* \"#utility.yul\":4064:4253   */\n  pop\n  pop\n  jump\t// out\n    /* \"#utility.yul\":4259:4445   */\ntag_37:\n    /* \"#utility.yul\":4319:4439   */\ntag_94:\n    /* \"#utility.yul\":4336:4339   */\n  dup2\n    /* \"#utility.yul\":4329:4334   */\n  dup2\n    /* \"#utility.yul\":4326:4340   */\n  lt\n    /* \"#utility.yul\":4319:4439   */\n  iszero\n  tag_96\n  jumpi\n    /* \"#utility.yul\":4390:4429   */\n  tag_97\n    /* \"#utility.yul\":4427:4428   */\n  0x00\n    /* \"#utility.yul\":4420:4425   */\n  dup3\n    /* \"#utility.yul\":4390:4429   */\n  tag_36\n  jump\t// in\ntag_97:\n    /* \"#utility.yul\":4363:4364   */\n  0x01\n    /* \"#utility.yul\":4356:4361   */\n  dup2\n    /* \"#utility.yul\":4352:4365   */\n  add\n    /* \"#utility.yul\":4343:4365   */\n  swap1\n  pop\n    /* \"#utility.yul\":4319:4439   */\n  jump(tag_94)\ntag_96:\n    /* \"#utility.yul\":4259:4445   */\n  pop\n  pop\n  jump\t// out\n    /* \"#utility.yul\":4451:4994   */\ntag_38:\n    /* \"#utility.yul\":4552:4554   */\n  0x1f\n    /* \"#utility.yul\":4547:4550   */\n  dup3\n    /* \"#utility.yul\":4544:4555   */\n  gt\n    /* \"#utility.yul\":4541:4987   */\n  iszero\n  tag_99\n  jumpi\n    /* \"#utility.yul\":4586:4624   */\n  tag_100\n    /* \"#utility.yul\":4618:4623   */\n  dup2\n    /* \"#utility.yul\":4586:4624   */\n  tag_27\n  jump\t// in\ntag_100:\n    /* \"#utility.yul\":4670:4699   */\n  tag_101\n    /* \"#utility.yul\":4688:4698   */\n  dup5\n    /* \"#utility.yul\":4670:4699   */\n  tag_28\n  jump\t// in\ntag_101:\n    /* \"#utility.yul\":4660:4668   */\n  dup2\n    /* \"#utility.yul\":4656:4700   */\n  add\n    /* \"#utility.yul\":4853:4855   */\n  0x20\n    /* \"#utility.yul\":4841:4851   */\n  dup6\n    /* \"#utility.yul\":4838:4856   */\n  lt\n    /* \"#utility.yul\":4835:4884   */\n  iszero\n  tag_102\n  jumpi\n    /* \"#utility.yul\":4874:4882   */\n  dup2\n    /* \"#utility.yul\":4859:4882   */\n  swap1\n  pop\n    /* \"#utility.yul\":4835:4884   */\ntag_102:\n    /* \"#utility.yul\":4897:4977   */\n  tag_103\n    /* \"#utility.yul\":4953:4975   */\n  tag_104\n    /* \"#utility.yul\":4971:4974   */\n  dup6\n    /* \"#utility.yul\":4953:4975   */\n  tag_28\n  jump\t// in\ntag_104:\n    /* \"#utility.yul\":4943:4951   */\n  dup4\n    /* \"#utility.yul\":4939:4976   */\n  add\n    /* \"#utility.yul\":4926:4937   */\n  dup3\n    /* \"#utility.yul\":4897:4977   */\n  tag_37\n  jump\t// in\ntag_103:\n    /* \"#utility.yul\":4556:4987   */\n  pop\n  pop\n    /* \"#utility.yul\":4541:4987   */\ntag_99:\n    /* \"#utility.yul\":4451:4994   */\n  pop\n  pop\n  pop\n  jump\t// out\n    /* \"#utility.yul\":5000:5117   */\ntag_39:\n    /* \"#utility.yul\":5054:5062   */\n  0x00\n    /* \"#utility.yul\":5104:5109   */\n  dup3\n    /* \"#utility.yul\":5098:5102   */\n  dup3\n    /* \"#utility.yul\":5094:5110   */\n  shr\n    /* \"#utility.yul\":5073:5110   */\n  swap1\n  pop\n    /* \"#utility.yul\":5000:5117   */\n  swap3\n  swap2\n  pop\n  pop\n  jump\t// out\n    /* \"#utility.yul\":5123:5292   */\ntag_40:\n    /* \"#utility.yul\":5167:5173   */\n  0x00\n    /* \"#utility.yul\":5200:5251   */\n  tag_107\n    /* \"#utility.yul\":5248:5249   */\n  0x00\n    /* \"#utility.yul\":5244:5250   */\n  not\n    /* \"#utility.yul\":5236:5241   */\n  dup5\n    /* \"#utility.yul\":5233:5234   */\n  0x08\n    /* \"#utility.yul\":5229:5242   */\n  mul\n    /* \"#utility.yul\":5200:5251   */\n  tag_39\n  jump\t// in\ntag_107:\n    /* \"#utility.yul\":5196:5252   */\n  not\n    /* \"#utility.yul\":5281:5285   */\n  dup1\n    /* \"#utility.yul\":5275:5279   */\n  dup4\n    /* \"#utility.yul\":5271:5286   */\n  and\n    /* \"#utility.yul\":5261:5286   */\n  swap2\n  pop\n    /* \"#utility.yul\":5174:5292   */\n  pop\n    /* \"#utility.yul\":5123:5292   */\n  swap3\n  swap2\n  pop\n  pop\n  jump\t// out\n    /* \"#utility.yul\":5297:5592   */\ntag_41:\n    /* \"#utility.yul\":5373:5377   */\n  0x00\n    /* \"#utility.yul\":5519:5548   */\n  tag_109\n    /* \"#utility.yul\":5544:5547   */\n  dup4\n    /* \"#utility.yul\":5538:5542   */\n  dup4\n    /* \"#utility.yul\":5519:5548   */\n  tag_40\n  jump\t// in\ntag_109:\n    /* \"#utility.yul\":5511:5548   */\n  swap2\n  pop\n    /* \"#utility.yul\":5581:5584   */\n  dup3\n    /* \"#utility.yul\":5578:5579   */\n  0x02\n    /* \"#utility.yul\":5574:5585   */\n  mul\n    /* \"#utility.yul\":5568:5572   */\n  dup3\n    /* \"#utility.yul\":5565:5586   */\n  or\n    /* \"#utility.yul\":5557:5586   */\n  swap1\n  pop\n    /* \"#utility.yul\":5297:5592   */\n  swap3\n  swap2\n  pop\n  pop\n  jump\t// out\n    /* \"#utility.yul\":5597:6992   */\ntag_12:\n    /* \"#utility.yul\":5714:5751   */\n  tag_111\n    /* \"#utility.yul\":5747:5750   */\n  dup3\n    /* \"#utility.yul\":5714:5751   */\n  tag_23\n  jump\t// in\ntag_111:\n    /* \"#utility.yul\":5816:5834   */\n  0xffffffffffffffff\n    /* \"#utility.yul\":5808:5814   */\n  dup2\n    /* \"#utility.yul\":5805:5835   */\n  gt\n    /* \"#utility.yul\":5802:5858   */\n  iszero\n  tag_112\n  jumpi\n    /* \"#utility.yul\":5838:5856   */\n  tag_113\n  tag_24\n  jump\t// in\ntag_113:\n    /* \"#utility.yul\":5802:5858   */\ntag_112:\n    /* \"#utility.yul\":5882:5920   */\n  tag_114\n    /* \"#utility.yul\":5914:5918   */\n  dup3\n    /* \"#utility.yul\":5908:5919   */\n  sload\n    /* \"#utility.yul\":5882:5920   */\n  tag_26\n  jump\t// in\ntag_114:\n    /* \"#utility.yul\":5967:6034   */\n  tag_115\n    /* \"#utility.yul\":6027:6033   */\n  dup3\n    /* \"#utility.yul\":6019:6025   */\n  dup3\n    /* \"#utility.yul\":6013:6017   */\n  dup6\n    /* \"#utility.yul\":5967:6034   */\n  tag_38\n  jump\t// in\ntag_115:\n    /* \"#utility.yul\":6061:6062   */\n  0x00\n    /* \"#utility.yul\":6085:6089   */\n  0x20\n    /* \"#utility.yul\":6072:6089   */\n  swap1\n  pop\n    /* \"#utility.yul\":6117:6119   */\n  0x1f\n    /* \"#utility.yul\":6109:6115   */\n  dup4\n    /* \"#utility.yul\":6106:6120   */\n  gt\n    /* \"#utility.yul\":6134:6135   */\n  0x01\n    /* \"#utility.yul\":6129:6747   */\n  dup2\n  eq\n  tag_117\n  jumpi\n    /* \"#utility.yul\":6791:6792   */\n  0x00\n    /* \"#utility.yul\":6808:6814   */\n  dup5\n    /* \"#utility.yul\":6805:6882   */\n  iszero\n  tag_118\n  jumpi\n    /* \"#utility.yul\":6857:6866   */\n  dup3\n    /* \"#utility.yul\":6852:6855   */\n  dup8\n    /* \"#utility.yul\":6848:6867   */\n  add\n    /* \"#utility.yul\":6842:6868   */\n  mload\n    /* \"#utility.yul\":6833:6868   */\n  swap1\n  pop\n    /* \"#utility.yul\":6805:6882   */\ntag_118:\n    /* \"#utility.yul\":6908:6975   */\n  tag_119\n    /* \"#utility.yul\":6968:6974   */\n  dup6\n    /* \"#utility.yul\":6961:6966   */\n  dup3\n    /* \"#utility.yul\":6908:6975   */\n  tag_41\n  jump\t// in\ntag_119:\n    /* \"#utility.yul\":6902:6906   */\n  dup7\n    /* \"#utility.yul\":6895:6976   */\n  sstore\n    /* \"#utility.yul\":6764:6986   */\n  pop\n    /* \"#utility.yul\":6099:6986   */\n  jump(tag_116)\n    /* \"#utility.yul\":6129:6747   */\ntag_117:\n    /* \"#utility.yul\":6181:6185   */\n  0x1f\n    /* \"#utility.yul\":6177:6186   */\n  not\n    /* \"#utility.yul\":6169:6175   */\n  dup5\n    /* \"#utility.yul\":6165:6187   */\n  and\n    /* \"#utility.yul\":6215:6252   */\n  tag_120\n    /* \"#utility.yul\":6247:6251   */\n  dup7\n    /* \"#utility.yul\":6215:6252   */\n  tag_27\n  jump\t// in\ntag_120:\n    /* \"#utility.yul\":6274:6275   */\n  0x00\n    /* \"#utility.yul\":6288:6496   */\ntag_121:\n    /* \"#utility.yul\":6302:6309   */\n  dup3\n    /* \"#utility.yul\":6299:6300   */\n  dup2\n    /* \"#utility.yul\":6296:6310   */\n  lt\n    /* \"#utility.yul\":6288:6496   */\n  iszero\n  tag_123\n  jumpi\n    /* \"#utility.yul\":6381:6390   */\n  dup5\n    /* \"#utility.yul\":6376:6379   */\n  dup10\n    /* \"#utility.yul\":6372:6391   */\n  add\n    /* \"#utility.yul\":6366:6392   */\n  mload\n    /* \"#utility.yul\":6358:6364   */\n  dup3\n    /* \"#utility.yul\":6351:6393   */\n  sstore\n    /* \"#utility.yul\":6432:6433   */\n  0x01\n    /* \"#utility.yul\":6424:6430   */\n  dup3\n    /* \"#utility.yul\":6420:6434   */\n  add\n    /* \"#utility.yul\":6410:6434   */\n  swap2\n  pop\n    /* \"#utility.yul\":6479:6481   */\n  0x20\n    /* \"#utility.yul\":6468:6477   */\n  dup6\n    /* \"#utility.yul\":6464:6482   */\n  add\n    /* \"#utility.yul\":6451:6482   */\n  swap5\n  pop\n    /* \"#utility.yul\":6325:6329   */\n  0x20\n    /* \"#utility.yul\":6322:6323   */\n  dup2\n    /* \"#utility.yul\":6318:6330   */\n  add\n    /* \"#utility.yul\":6313:6330   */\n  swap1\n  pop\n    /* \"#utility.yul\":6288:6496   */\n  jump(tag_121)\ntag_123:\n    /* \"#utility.yul\":6524:6530   */\n  dup7\n    /* \"#utility.yul\":6515:6522   */\n  dup4\n    /* \"#utility.yul\":6512:6531   */\n  lt\n    /* \"#utility.yul\":6509:6688   */\n  iszero\n  tag_124\n  jumpi\n    /* \"#utility.yul\":6582:6591   */\n  dup5\n    /* \"#utility.yul\":6577:6580   */\n  dup10\n    /* \"#utility.yul\":6573:6592   */\n  add\n    /* \"#utility.yul\":6567:6593   */\n  mload\n    /* \"#utility.yul\":6625:6673   */\n  tag_125\n    /* \"#utility.yul\":6667:6671   */\n  0x1f\n    /* \"#utility.yul\":6659:6665   */\n  dup10\n    /* \"#utility.yul\":6655:6672   */\n  and\n    /* \"#utility.yul\":6644:6653   */\n  dup3\n    /* \"#utility.yul\":6625:6673   */\n  tag_40\n  jump\t// in\ntag_125:\n    /* \"#utility.yul\":6617:6623   */\n  dup4\n    /* \"#utility.yul\":6610:6674   */\n  sstore\n    /* \"#utility.yul\":6532:6688   */\n  pop\n    /* \"#utility.yul\":6509:6688   */\ntag_124:\n    /* \"#utility.yul\":6734:6735   */\n  0x01\n    /* \"#utility.yul\":6730:6731   */\n  0x02\n    /* \"#utility.yul\":6722:6728   */\n  dup9\n    /* \"#utility.yul\":6718:6732   */\n  mul\n    /* \"#utility.yul\":6714:6736   */\n  add\n    /* \"#utility.yul\":6708:6712   */\n  dup9\n    /* \"#utility.yul\":6701:6737   */\n  sstore\n    /* \"#utility.yul\":6136:6747   */\n  pop\n  pop\n  pop\n    /* \"#utility.yul\":6099:6986   */\ntag_116:\n  pop\n    /* \"#utility.yul\":5689:6992   */\n  pop\n  pop\n  pop\n    /* \"#utility.yul\":5597:6992   */\n  pop\n  pop\n  jump\t// out\n    /* \"src/auction.sol\":249:3621  contract Auction{... */\ntag_13:\n  dataSize(sub_0)\n  dup1\n  dataOffset(sub_0)\n  0x00\n  codecopy\n  0x00\n  return\nstop\n\nsub_0: assembly {\n        /* \"src/auction.sol\":249:3621  contract Auction{... */\n      mstore(0x40, 0x80)\n      jumpi(tag_1, lt(calldatasize, 0x04))\n      shr(0xe0, calldataload(0x00))\n      dup1\n      0x8fa8b790\n      gt\n      tag_13\n      jumpi\n      dup1\n      0x8fa8b790\n      eq\n      tag_7\n      jumpi\n      dup1\n      0x91f90157\n      eq\n      tag_8\n      jumpi\n      dup1\n      0xc623674f\n      eq\n      tag_9\n      jumpi\n      dup1\n      0xecfc7ecc\n      eq\n      tag_10\n      jumpi\n      dup1\n      0xf5b56c56\n      eq\n      tag_11\n      jumpi\n      dup1\n      0xf77282ab\n      eq\n      tag_12\n      jumpi\n      jump(tag_1)\n    tag_13:\n      dup1\n      0x083c6323\n      eq\n      tag_2\n      jumpi\n      dup1\n      0x48cd4cb1\n      eq\n      tag_3\n      jumpi\n      dup1\n      0x62ea82db\n      eq\n      tag_4\n      jumpi\n      dup1\n      0x7fb45099\n      eq\n      tag_5\n      jumpi\n      dup1\n      0x8da5cb5b\n      eq\n      tag_6\n      jumpi\n    tag_1:\n      revert(0x00, 0x00)\n        /* \"src/auction.sol\":407:427  uint public endBlock */\n    tag_2:\n      callvalue\n      dup1\n      iszero\n      tag_14\n      jumpi\n      revert(0x00, 0x00)\n    tag_14:\n      pop\n      tag_15\n      tag_16\n      jump\t// in\n    tag_15:\n      mload(0x40)\n      tag_17\n      swap2\n      swap1\n      tag_18\n      jump\t// in\n    tag_17:\n      mload(0x40)\n      dup1\n      swap2\n      sub\n      swap1\n      return\n        /* \"src/auction.sol\":379:401  uint public startBlock */\n    tag_3:\n      callvalue\n      dup1\n      iszero\n      tag_19\n      jumpi\n      revert(0x00, 0x00)\n    tag_19:\n      pop\n      tag_20\n      tag_21\n      jump\t// in\n    tag_20:\n      mload(0x40)\n      tag_22\n      swap2\n      swap1\n      tag_18\n      jump\t// in\n    tag_22:\n      mload(0x40)\n      dup1\n      swap2\n      sub\n      swap1\n      return\n        /* \"src/auction.sol\":689:725  mapping(address => uint) public bids */\n    tag_4:\n      callvalue\n      dup1\n      iszero\n      tag_23\n      jumpi\n      revert(0x00, 0x00)\n    tag_23:\n      pop\n      tag_24\n      0x04\n      dup1\n      calldatasize\n      sub\n      dup2\n      add\n      swap1\n      tag_25\n      swap2\n      swap1\n      tag_26\n      jump\t// in\n    tag_25:\n      tag_27\n      jump\t// in\n    tag_24:\n      mload(0x40)\n      tag_28\n      swap2\n      swap1\n      tag_18\n      jump\t// in\n    tag_28:\n      mload(0x40)\n      dup1\n      swap2\n      sub\n      swap1\n      return\n        /* \"src/auction.sol\":579:604  State public auctionState */\n    tag_5:\n      callvalue\n      dup1\n      iszero\n      tag_29\n      jumpi\n      revert(0x00, 0x00)\n    tag_29:\n      pop\n      tag_30\n      tag_31\n      jump\t// in\n    tag_30:\n      mload(0x40)\n      tag_32\n      swap2\n      swap1\n      tag_33\n      jump\t// in\n    tag_32:\n      mload(0x40)\n      dup1\n      swap2\n      sub\n      swap1\n      return\n        /* \"src/auction.sol\":272:300  address payable public owner */\n    tag_6:\n      callvalue\n      dup1\n      iszero\n      tag_34\n      jumpi\n      revert(0x00, 0x00)\n    tag_34:\n      pop\n      tag_35\n      tag_36\n      jump\t// in\n    tag_35:\n      mload(0x40)\n      tag_37\n      swap2\n      swap1\n      tag_38\n      jump\t// in\n    tag_37:\n      mload(0x40)\n      dup1\n      swap2\n      sub\n      swap1\n      return\n        /* \"src/auction.sol\":1699:1786  function cancelAuction() public onlyOwner{... */\n    tag_7:\n      callvalue\n      dup1\n      iszero\n      tag_39\n      jumpi\n      revert(0x00, 0x00)\n    tag_39:\n      pop\n      tag_40\n      tag_41\n      jump\t// in\n    tag_40:\n      stop\n        /* \"src/auction.sol\":646:682  address payable public highestBidder */\n    tag_8:\n      callvalue\n      dup1\n      iszero\n      tag_42\n      jumpi\n      revert(0x00, 0x00)\n    tag_42:\n      pop\n      tag_43\n      tag_44\n      jump\t// in\n    tag_43:\n      mload(0x40)\n      tag_45\n      swap2\n      swap1\n      tag_38\n      jump\t// in\n    tag_45:\n      mload(0x40)\n      dup1\n      swap2\n      sub\n      swap1\n      return\n        /* \"src/auction.sol\":433:455  string public ipfsHash */\n    tag_9:\n      callvalue\n      dup1\n      iszero\n      tag_46\n      jumpi\n      revert(0x00, 0x00)\n    tag_46:\n      pop\n      tag_47\n      tag_48\n      jump\t// in\n    tag_47:\n      mload(0x40)\n      tag_49\n      swap2\n      swap1\n      tag_50\n      jump\t// in\n    tag_49:\n      mload(0x40)\n      dup1\n      swap2\n      sub\n      swap1\n      return\n        /* \"src/auction.sol\":1792:2570  function placeBid() public payable notOwner afterStart beforeEnd{... */\n    tag_10:\n      tag_51\n      tag_52\n      jump\t// in\n    tag_51:\n      stop\n        /* \"src/auction.sol\":611:640  uint public highestBindingBid */\n    tag_11:\n      callvalue\n      dup1\n      iszero\n      tag_53\n      jumpi\n      revert(0x00, 0x00)\n    tag_53:\n      pop\n      tag_54\n      tag_55\n      jump\t// in\n    tag_54:\n      mload(0x40)\n      tag_56\n      swap2\n      swap1\n      tag_18\n      jump\t// in\n    tag_56:\n      mload(0x40)\n      dup1\n      swap2\n      sub\n      swap1\n      return\n        /* \"src/auction.sol\":2576:3619  function finalizeAuction() public{... */\n    tag_12:\n      callvalue\n      dup1\n      iszero\n      tag_57\n      jumpi\n      revert(0x00, 0x00)\n    tag_57:\n      pop\n      tag_58\n      tag_59\n      jump\t// in\n    tag_58:\n      stop\n        /* \"src/auction.sol\":407:427  uint public endBlock */\n    tag_16:\n      sload(0x02)\n      dup2\n      jump\t// out\n        /* \"src/auction.sol\":379:401  uint public startBlock */\n    tag_21:\n      sload(0x01)\n      dup2\n      jump\t// out\n        /* \"src/auction.sol\":689:725  mapping(address => uint) public bids */\n    tag_27:\n      mstore(0x20, 0x07)\n      dup1\n      0x00\n      mstore\n      keccak256(0x00, 0x40)\n      0x00\n      swap2\n      pop\n      swap1\n      pop\n      sload\n      dup2\n      jump\t// out\n        /* \"src/auction.sol\":579:604  State public auctionState */\n    tag_31:\n      0x04\n      0x00\n      swap1\n      sload\n      swap1\n      0x0100\n      exp\n      swap1\n      div\n      0xff\n      and\n      dup2\n      jump\t// out\n        /* \"src/auction.sol\":272:300  address payable public owner */\n    tag_36:\n      0x00\n      0x00\n      swap1\n      sload\n      swap1\n      0x0100\n      exp\n      swap1\n      div\n      0xffffffffffffffffffffffffffffffffffffffff\n      and\n      dup2\n      jump\t// out\n        /* \"src/auction.sol\":1699:1786  function cancelAuction() public onlyOwner{... */\n    tag_41:\n        /* \"src/auction.sol\":1510:1515  owner */\n      0x00\n      0x00\n      swap1\n      sload\n      swap1\n      0x0100\n      exp\n      swap1\n      div\n      0xffffffffffffffffffffffffffffffffffffffff\n      and\n        /* \"src/auction.sol\":1496:1515  msg.sender == owner */\n      0xffffffffffffffffffffffffffffffffffffffff\n      and\n        /* \"src/auction.sol\":1496:1506  msg.sender */\n      caller\n        /* \"src/auction.sol\":1496:1515  msg.sender == owner */\n      0xffffffffffffffffffffffffffffffffffffffff\n      and\n      eq\n        /* \"src/auction.sol\":1488:1516  require(msg.sender == owner) */\n      tag_61\n      jumpi\n      revert(0x00, 0x00)\n    tag_61:\n        /* \"src/auction.sol\":1765:1779  State.Canceled */\n      0x03\n        /* \"src/auction.sol\":1750:1762  auctionState */\n      0x04\n      0x00\n        /* \"src/auction.sol\":1750:1779  auctionState = State.Canceled */\n      0x0100\n      exp\n      dup2\n      sload\n      dup2\n      0xff\n      mul\n      not\n      and\n      swap1\n      dup4\n      0x03\n      dup2\n      gt\n      iszero\n      tag_63\n      jumpi\n      tag_64\n      tag_65\n      jump\t// in\n    tag_64:\n    tag_63:\n      mul\n      or\n      swap1\n      sstore\n      pop\n        /* \"src/auction.sol\":1699:1786  function cancelAuction() public onlyOwner{... */\n      jump\t// out\n        /* \"src/auction.sol\":646:682  address payable public highestBidder */\n    tag_44:\n      0x06\n      0x00\n      swap1\n      sload\n      swap1\n      0x0100\n      exp\n      swap1\n      div\n      0xffffffffffffffffffffffffffffffffffffffff\n      and\n      dup2\n      jump\t// out\n        /* \"src/auction.sol\":433:455  string public ipfsHash */\n    tag_48:\n      0x03\n      dup1\n      sload\n      tag_66\n      swap1\n      tag_67\n      jump\t// in\n    tag_66:\n      dup1\n      0x1f\n      add\n      0x20\n      dup1\n      swap2\n      div\n      mul\n      0x20\n      add\n      mload(0x40)\n      swap1\n      dup2\n      add\n      0x40\n      mstore\n      dup1\n      swap3\n      swap2\n      swap1\n      dup2\n      dup2\n      mstore\n      0x20\n      add\n      dup3\n      dup1\n      sload\n      tag_68\n      swap1\n      tag_67\n      jump\t// in\n    tag_68:\n      dup1\n      iszero\n      tag_69\n      jumpi\n      dup1\n      0x1f\n      lt\n      tag_70\n      jumpi\n      0x0100\n      dup1\n      dup4\n      sload\n      div\n      mul\n      dup4\n      mstore\n      swap2\n      0x20\n      add\n      swap2\n      jump(tag_69)\n    tag_70:\n      dup3\n      add\n      swap2\n      swap1\n      0x00\n      mstore\n      keccak256(0x00, 0x20)\n      swap1\n    tag_71:\n      dup2\n      sload\n      dup2\n      mstore\n      swap1\n      0x01\n      add\n      swap1\n      0x20\n      add\n      dup1\n      dup4\n      gt\n      tag_71\n      jumpi\n      dup3\n      swap1\n      sub\n      0x1f\n      and\n      dup3\n      add\n      swap2\n    tag_69:\n      pop\n      pop\n      pop\n      pop\n      pop\n      dup2\n      jump\t// out\n        /* \"src/auction.sol\":1792:2570  function placeBid() public payable notOwner afterStart beforeEnd{... */\n    tag_52:\n        /* \"src/auction.sol\":1254:1259  owner */\n      0x00\n      0x00\n      swap1\n      sload\n      swap1\n      0x0100\n      exp\n      swap1\n      div\n      0xffffffffffffffffffffffffffffffffffffffff\n      and\n        /* \"src/auction.sol\":1240:1259  msg.sender != owner */\n      0xffffffffffffffffffffffffffffffffffffffff\n      and\n        /* \"src/auction.sol\":1240:1250  msg.sender */\n      caller\n        /* \"src/auction.sol\":1240:1259  msg.sender != owner */\n      0xffffffffffffffffffffffffffffffffffffffff\n      and\n      sub\n        /* \"src/auction.sol\":1232:1260  require(msg.sender != owner) */\n      tag_73\n      jumpi\n      revert(0x00, 0x00)\n    tag_73:\n        /* \"src/auction.sol\":1340:1350  startBlock */\n      sload(0x01)\n        /* \"src/auction.sol\":1324:1336  block.number */\n      number\n        /* \"src/auction.sol\":1324:1350  block.number >= startBlock */\n      lt\n      iszero\n        /* \"src/auction.sol\":1316:1351  require(block.number >= startBlock) */\n      tag_75\n      jumpi\n      revert(0x00, 0x00)\n    tag_75:\n        /* \"src/auction.sol\":1427:1435  endBlock */\n      sload(0x02)\n        /* \"src/auction.sol\":1411:1423  block.number */\n      number\n        /* \"src/auction.sol\":1411:1435  block.number <= endBlock */\n      gt\n      iszero\n        /* \"src/auction.sol\":1403:1436  require(block.number <= endBlock) */\n      tag_77\n      jumpi\n      revert(0x00, 0x00)\n    tag_77:\n        /* \"src/auction.sol\":1944:1957  State.Running */\n      0x01\n        /* \"src/auction.sol\":1928:1957  auctionState == State.Running */\n      0x03\n      dup2\n      gt\n      iszero\n      tag_79\n      jumpi\n      tag_80\n      tag_65\n      jump\t// in\n    tag_80:\n    tag_79:\n        /* \"src/auction.sol\":1928:1940  auctionState */\n      0x04\n      0x00\n      swap1\n      sload\n      swap1\n      0x0100\n      exp\n      swap1\n      div\n      0xff\n      and\n        /* \"src/auction.sol\":1928:1957  auctionState == State.Running */\n      0x03\n      dup2\n      gt\n      iszero\n      tag_81\n      jumpi\n      tag_82\n      tag_65\n      jump\t// in\n    tag_82:\n    tag_81:\n      eq\n        /* \"src/auction.sol\":1920:1958  require(auctionState == State.Running) */\n      tag_83\n      jumpi\n      revert(0x00, 0x00)\n    tag_83:\n        /* \"src/auction.sol\":2033:2036  100 */\n      0x64\n        /* \"src/auction.sol\":2020:2029  msg.value */\n      callvalue\n        /* \"src/auction.sol\":2020:2036  msg.value >= 100 */\n      lt\n      iszero\n        /* \"src/auction.sol\":2012:2037  require(msg.value >= 100) */\n      tag_84\n      jumpi\n      revert(0x00, 0x00)\n    tag_84:\n        /* \"src/auction.sol\":2136:2151  uint currentBid */\n      0x00\n        /* \"src/auction.sol\":2173:2182  msg.value */\n      callvalue\n        /* \"src/auction.sol\":2154:2158  bids */\n      0x07\n        /* \"src/auction.sol\":2154:2170  bids[msg.sender] */\n      0x00\n        /* \"src/auction.sol\":2159:2169  msg.sender */\n      caller\n        /* \"src/auction.sol\":2154:2170  bids[msg.sender] */\n      0xffffffffffffffffffffffffffffffffffffffff\n      and\n      0xffffffffffffffffffffffffffffffffffffffff\n      and\n      dup2\n      mstore\n      0x20\n      add\n      swap1\n      dup2\n      mstore\n      0x20\n      add\n      0x00\n      keccak256\n      sload\n        /* \"src/auction.sol\":2154:2182  bids[msg.sender] + msg.value */\n      tag_85\n      swap2\n      swap1\n      tag_86\n      jump\t// in\n    tag_85:\n        /* \"src/auction.sol\":2136:2182  uint currentBid = bids[msg.sender] + msg.value */\n      swap1\n      pop\n        /* \"src/auction.sol\":2213:2230  highestBindingBid */\n      sload(0x05)\n        /* \"src/auction.sol\":2200:2210  currentBid */\n      dup2\n        /* \"src/auction.sol\":2200:2230  currentBid > highestBindingBid */\n      gt\n        /* \"src/auction.sol\":2192:2231  require(currentBid > highestBindingBid) */\n      tag_87\n      jumpi\n      revert(0x00, 0x00)\n    tag_87:\n        /* \"src/auction.sol\":2261:2271  currentBid */\n      dup1\n        /* \"src/auction.sol\":2242:2246  bids */\n      0x07\n        /* \"src/auction.sol\":2242:2258  bids[msg.sender] */\n      0x00\n        /* \"src/auction.sol\":2247:2257  msg.sender */\n      caller\n        /* \"src/auction.sol\":2242:2258  bids[msg.sender] */\n      0xffffffffffffffffffffffffffffffffffffffff\n      and\n      0xffffffffffffffffffffffffffffffffffffffff\n      and\n      dup2\n      mstore\n      0x20\n      add\n      swap1\n      dup2\n      mstore\n      0x20\n      add\n      0x00\n      keccak256\n        /* \"src/auction.sol\":2242:2271  bids[msg.sender] = currentBid */\n      dup2\n      swap1\n      sstore\n      pop\n        /* \"src/auction.sol\":2299:2303  bids */\n      0x07\n        /* \"src/auction.sol\":2299:2318  bids[highestBidder] */\n      0x00\n        /* \"src/auction.sol\":2304:2317  highestBidder */\n      0x06\n      0x00\n      swap1\n      sload\n      swap1\n      0x0100\n      exp\n      swap1\n      div\n      0xffffffffffffffffffffffffffffffffffffffff\n      and\n        /* \"src/auction.sol\":2299:2318  bids[highestBidder] */\n      0xffffffffffffffffffffffffffffffffffffffff\n      and\n      0xffffffffffffffffffffffffffffffffffffffff\n      and\n      dup2\n      mstore\n      0x20\n      add\n      swap1\n      dup2\n      mstore\n      0x20\n      add\n      0x00\n      keccak256\n      sload\n        /* \"src/auction.sol\":2285:2295  currentBid */\n      dup2\n        /* \"src/auction.sol\":2285:2318  currentBid <= bids[highestBidder] */\n      gt\n        /* \"src/auction.sol\":2282:2564  if(currentBid <= bids[highestBidder]){... */\n      tag_88\n      jumpi\n        /* \"src/auction.sol\":2353:2404  min(currentBid + bidIncrement, bids[highestBidder]) */\n      tag_89\n        /* \"src/auction.sol\":2370:2382  bidIncrement */\n      sload(0x08)\n        /* \"src/auction.sol\":2357:2367  currentBid */\n      dup3\n        /* \"src/auction.sol\":2357:2382  currentBid + bidIncrement */\n      tag_90\n      swap2\n      swap1\n      tag_86\n      jump\t// in\n    tag_90:\n        /* \"src/auction.sol\":2384:2388  bids */\n      0x07\n        /* \"src/auction.sol\":2384:2403  bids[highestBidder] */\n      0x00\n        /* \"src/auction.sol\":2389:2402  highestBidder */\n      0x06\n      0x00\n      swap1\n      sload\n      swap1\n      0x0100\n      exp\n      swap1\n      div\n      0xffffffffffffffffffffffffffffffffffffffff\n      and\n        /* \"src/auction.sol\":2384:2403  bids[highestBidder] */\n      0xffffffffffffffffffffffffffffffffffffffff\n      and\n      0xffffffffffffffffffffffffffffffffffffffff\n      and\n      dup2\n      mstore\n      0x20\n      add\n      swap1\n      dup2\n      mstore\n      0x20\n      add\n      0x00\n      keccak256\n      sload\n        /* \"src/auction.sol\":2353:2356  min */\n      tag_91\n        /* \"src/auction.sol\":2353:2404  min(currentBid + bidIncrement, bids[highestBidder]) */\n      jump\t// in\n    tag_89:\n        /* \"src/auction.sol\":2333:2350  highestBindingBid */\n      0x05\n        /* \"src/auction.sol\":2333:2404  highestBindingBid = min(currentBid + bidIncrement, bids[highestBidder]) */\n      dup2\n      swap1\n      sstore\n      pop\n        /* \"src/auction.sol\":2282:2564  if(currentBid <= bids[highestBidder]){... */\n      jump(tag_92)\n    tag_88:\n        /* \"src/auction.sol\":2453:2504  min(currentBid, bids[highestBidder] + bidIncrement) */\n      tag_93\n        /* \"src/auction.sol\":2457:2467  currentBid */\n      dup2\n        /* \"src/auction.sol\":2491:2503  bidIncrement */\n      sload(0x08)\n        /* \"src/auction.sol\":2469:2473  bids */\n      0x07\n        /* \"src/auction.sol\":2469:2488  bids[highestBidder] */\n      0x00\n        /* \"src/auction.sol\":2474:2487  highestBidder */\n      0x06\n      0x00\n      swap1\n      sload\n      swap1\n      0x0100\n      exp\n      swap1\n      div\n      0xffffffffffffffffffffffffffffffffffffffff\n      and\n        /* \"src/auction.sol\":2469:2488  bids[highestBidder] */\n      0xffffffffffffffffffffffffffffffffffffffff\n      and\n      0xffffffffffffffffffffffffffffffffffffffff\n      and\n      dup2\n      mstore\n      0x20\n      add\n      swap1\n      dup2\n      mstore\n      0x20\n      add\n      0x00\n      keccak256\n      sload\n        /* \"src/auction.sol\":2469:2503  bids[highestBidder] + bidIncrement */\n      tag_94\n      swap2\n      swap1\n      tag_86\n      jump\t// in\n    tag_94:\n        /* \"src/auction.sol\":2453:2456  min */\n      tag_91\n        /* \"src/auction.sol\":2453:2504  min(currentBid, bids[highestBidder] + bidIncrement) */\n      jump\t// in\n    tag_93:\n        /* \"src/auction.sol\":2433:2450  highestBindingBid */\n      0x05\n        /* \"src/auction.sol\":2433:2504  highestBindingBid = min(currentBid, bids[highestBidder] + bidIncrement) */\n      dup2\n      swap1\n      sstore\n      pop\n        /* \"src/auction.sol\":2542:2552  msg.sender */\n      caller\n        /* \"src/auction.sol\":2518:2531  highestBidder */\n      0x06\n      0x00\n        /* \"src/auction.sol\":2518:2553  highestBidder = payable(msg.sender) */\n      0x0100\n      exp\n      dup2\n      sload\n      dup2\n      0xffffffffffffffffffffffffffffffffffffffff\n      mul\n      not\n      and\n      swap1\n      dup4\n      0xffffffffffffffffffffffffffffffffffffffff\n      and\n      mul\n      or\n      swap1\n      sstore\n      pop\n        /* \"src/auction.sol\":2282:2564  if(currentBid <= bids[highestBidder]){... */\n    tag_92:\n        /* \"src/auction.sol\":1856:2570  {... */\n      pop\n        /* \"src/auction.sol\":1792:2570  function placeBid() public payable notOwner afterStart beforeEnd{... */\n      jump\t// out\n        /* \"src/auction.sol\":611:640  uint public highestBindingBid */\n    tag_55:\n      sload(0x05)\n      dup2\n      jump\t// out\n        /* \"src/auction.sol\":2576:3619  function finalizeAuction() public{... */\n    tag_59:\n        /* \"src/auction.sol\":2643:2657  State.Canceled */\n      0x03\n        /* \"src/auction.sol\":2627:2657  auctionState == State.Canceled */\n      dup1\n      dup2\n      gt\n      iszero\n      tag_96\n      jumpi\n      tag_97\n      tag_65\n      jump\t// in\n    tag_97:\n    tag_96:\n        /* \"src/auction.sol\":2627:2639  auctionState */\n      0x04\n      0x00\n      swap1\n      sload\n      swap1\n      0x0100\n      exp\n      swap1\n      div\n      0xff\n      and\n        /* \"src/auction.sol\":2627:2657  auctionState == State.Canceled */\n      0x03\n      dup2\n      gt\n      iszero\n      tag_98\n      jumpi\n      tag_99\n      tag_65\n      jump\t// in\n    tag_99:\n    tag_98:\n      eq\n        /* \"src/auction.sol\":2627:2684  auctionState == State.Canceled || block.number > endBlock */\n      dup1\n      tag_100\n      jumpi\n      pop\n        /* \"src/auction.sol\":2676:2684  endBlock */\n      sload(0x02)\n        /* \"src/auction.sol\":2661:2673  block.number */\n      number\n        /* \"src/auction.sol\":2661:2684  block.number > endBlock */\n      gt\n        /* \"src/auction.sol\":2627:2684  auctionState == State.Canceled || block.number > endBlock */\n    tag_100:\n        /* \"src/auction.sol\":2619:2685  require(auctionState == State.Canceled || block.number > endBlock) */\n      tag_101\n      jumpi\n      revert(0x00, 0x00)\n    tag_101:\n        /* \"src/auction.sol\":2717:2722  owner */\n      0x00\n      0x00\n      swap1\n      sload\n      swap1\n      0x0100\n      exp\n      swap1\n      div\n      0xffffffffffffffffffffffffffffffffffffffff\n      and\n        /* \"src/auction.sol\":2703:2722  msg.sender == owner */\n      0xffffffffffffffffffffffffffffffffffffffff\n      and\n        /* \"src/auction.sol\":2703:2713  msg.sender */\n      caller\n        /* \"src/auction.sol\":2703:2722  msg.sender == owner */\n      0xffffffffffffffffffffffffffffffffffffffff\n      and\n      eq\n        /* \"src/auction.sol\":2703:2746  msg.sender == owner || bids[msg.sender] > 0 */\n      dup1\n      tag_102\n      jumpi\n      pop\n        /* \"src/auction.sol\":2745:2746  0 */\n      0x00\n        /* \"src/auction.sol\":2726:2730  bids */\n      0x07\n        /* \"src/auction.sol\":2726:2742  bids[msg.sender] */\n      0x00\n        /* \"src/auction.sol\":2731:2741  msg.sender */\n      caller\n        /* \"src/auction.sol\":2726:2742  bids[msg.sender] */\n      0xffffffffffffffffffffffffffffffffffffffff\n      and\n      0xffffffffffffffffffffffffffffffffffffffff\n      and\n      dup2\n      mstore\n      0x20\n      add\n      swap1\n      dup2\n      mstore\n      0x20\n      add\n      0x00\n      keccak256\n      sload\n        /* \"src/auction.sol\":2726:2746  bids[msg.sender] > 0 */\n      gt\n        /* \"src/auction.sol\":2703:2746  msg.sender == owner || bids[msg.sender] > 0 */\n    tag_102:\n        /* \"src/auction.sol\":2695:2747  require(msg.sender == owner || bids[msg.sender] > 0) */\n      tag_103\n      jumpi\n      revert(0x00, 0x00)\n    tag_103:\n        /* \"src/auction.sol\":2758:2783  address payable recipient */\n      0x00\n        /* \"src/auction.sol\":2793:2803  uint value */\n      0x00\n        /* \"src/auction.sol\":2833:2847  State.Canceled */\n      0x03\n        /* \"src/auction.sol\":2817:2847  auctionState == State.Canceled */\n      dup1\n      dup2\n      gt\n      iszero\n      tag_104\n      jumpi\n      tag_105\n      tag_65\n      jump\t// in\n    tag_105:\n    tag_104:\n        /* \"src/auction.sol\":2817:2829  auctionState */\n      0x04\n      0x00\n      swap1\n      sload\n      swap1\n      0x0100\n      exp\n      swap1\n      div\n      0xff\n      and\n        /* \"src/auction.sol\":2817:2847  auctionState == State.Canceled */\n      0x03\n      dup2\n      gt\n      iszero\n      tag_106\n      jumpi\n      tag_107\n      tag_65\n      jump\t// in\n    tag_107:\n    tag_106:\n      sub\n        /* \"src/auction.sol\":2814:3469  if(auctionState == State.Canceled){ // auction cancelada... */\n      tag_108\n      jumpi\n        /* \"src/auction.sol\":2903:2913  msg.sender */\n      caller\n        /* \"src/auction.sol\":2883:2914  recipient = payable(msg.sender) */\n      swap2\n      pop\n        /* \"src/auction.sol\":2936:2940  bids */\n      0x07\n        /* \"src/auction.sol\":2936:2952  bids[msg.sender] */\n      0x00\n        /* \"src/auction.sol\":2941:2951  msg.sender */\n      caller\n        /* \"src/auction.sol\":2936:2952  bids[msg.sender] */\n      0xffffffffffffffffffffffffffffffffffffffff\n      and\n      0xffffffffffffffffffffffffffffffffffffffff\n      and\n      dup2\n      mstore\n      0x20\n      add\n      swap1\n      dup2\n      mstore\n      0x20\n      add\n      0x00\n      keccak256\n      sload\n        /* \"src/auction.sol\":2928:2952  value = bids[msg.sender] */\n      swap1\n      pop\n        /* \"src/auction.sol\":2814:3469  if(auctionState == State.Canceled){ // auction cancelada... */\n      jump(tag_109)\n    tag_108:\n        /* \"src/auction.sol\":3036:3041  owner */\n      0x00\n      0x00\n      swap1\n      sload\n      swap1\n      0x0100\n      exp\n      swap1\n      div\n      0xffffffffffffffffffffffffffffffffffffffff\n      and\n        /* \"src/auction.sol\":3022:3041  msg.sender == owner */\n      0xffffffffffffffffffffffffffffffffffffffff\n      and\n        /* \"src/auction.sol\":3022:3032  msg.sender */\n      caller\n        /* \"src/auction.sol\":3022:3041  msg.sender == owner */\n      0xffffffffffffffffffffffffffffffffffffffff\n      and\n      sub\n        /* \"src/auction.sol\":3019:3459  if(msg.sender == owner){... */\n      tag_110\n      jumpi\n        /* \"src/auction.sol\":3072:3077  owner */\n      0x00\n      0x00\n      swap1\n      sload\n      swap1\n      0x0100\n      exp\n      swap1\n      div\n      0xffffffffffffffffffffffffffffffffffffffff\n      and\n        /* \"src/auction.sol\":3060:3077  recipient = owner */\n      swap2\n      pop\n        /* \"src/auction.sol\":3103:3120  highestBindingBid */\n      sload(0x05)\n        /* \"src/auction.sol\":3095:3120  value = highestBindingBid */\n      swap1\n      pop\n        /* \"src/auction.sol\":3019:3459  if(msg.sender == owner){... */\n      jump(tag_111)\n    tag_110:\n        /* \"src/auction.sol\":3174:3187  highestBidder */\n      0x06\n      0x00\n      swap1\n      sload\n      swap1\n      0x0100\n      exp\n      swap1\n      div\n      0xffffffffffffffffffffffffffffffffffffffff\n      and\n        /* \"src/auction.sol\":3160:3187  msg.sender == highestBidder */\n      0xffffffffffffffffffffffffffffffffffffffff\n      and\n        /* \"src/auction.sol\":3160:3170  msg.sender */\n      caller\n        /* \"src/auction.sol\":3160:3187  msg.sender == highestBidder */\n      0xffffffffffffffffffffffffffffffffffffffff\n      and\n      sub\n        /* \"src/auction.sol\":3157:3445  if(msg.sender == highestBidder){... */\n      tag_112\n      jumpi\n        /* \"src/auction.sol\":3222:3235  highestBidder */\n      0x06\n      0x00\n      swap1\n      sload\n      swap1\n      0x0100\n      exp\n      swap1\n      div\n      0xffffffffffffffffffffffffffffffffffffffff\n      and\n        /* \"src/auction.sol\":3210:3235  recipient = highestBidder */\n      swap2\n      pop\n        /* \"src/auction.sol\":3287:3304  highestBindingBid */\n      sload(0x05)\n        /* \"src/auction.sol\":3265:3269  bids */\n      0x07\n        /* \"src/auction.sol\":3265:3284  bids[highestBidder] */\n      0x00\n        /* \"src/auction.sol\":3270:3283  highestBidder */\n      0x06\n      0x00\n      swap1\n      sload\n      swap1\n      0x0100\n      exp\n      swap1\n      div\n      0xffffffffffffffffffffffffffffffffffffffff\n      and\n        /* \"src/auction.sol\":3265:3284  bids[highestBidder] */\n      0xffffffffffffffffffffffffffffffffffffffff\n      and\n      0xffffffffffffffffffffffffffffffffffffffff\n      and\n      dup2\n      mstore\n      0x20\n      add\n      swap1\n      dup2\n      mstore\n      0x20\n      add\n      0x00\n      keccak256\n      sload\n        /* \"src/auction.sol\":3265:3304  bids[highestBidder] - highestBindingBid */\n      tag_113\n      swap2\n      swap1\n      tag_114\n      jump\t// in\n    tag_113:\n        /* \"src/auction.sol\":3257:3304  value = bids[highestBidder] - highestBindingBid */\n      swap1\n      pop\n        /* \"src/auction.sol\":3157:3445  if(msg.sender == highestBidder){... */\n      jump(tag_115)\n    tag_112:\n        /* \"src/auction.sol\":3369:3379  msg.sender */\n      caller\n        /* \"src/auction.sol\":3349:3380  recipient = payable(msg.sender) */\n      swap2\n      pop\n        /* \"src/auction.sol\":3410:3414  bids */\n      0x07\n        /* \"src/auction.sol\":3410:3426  bids[msg.sender] */\n      0x00\n        /* \"src/auction.sol\":3415:3425  msg.sender */\n      caller\n        /* \"src/auction.sol\":3410:3426  bids[msg.sender] */\n      0xffffffffffffffffffffffffffffffffffffffff\n      and\n      0xffffffffffffffffffffffffffffffffffffffff\n      and\n      dup2\n      mstore\n      0x20\n      add\n      swap1\n      dup2\n      mstore\n      0x20\n      add\n      0x00\n      keccak256\n      sload\n        /* \"src/auction.sol\":3402:3426  value = bids[msg.sender] */\n      swap1\n      pop\n        /* \"src/auction.sol\":3157:3445  if(msg.sender == highestBidder){... */\n    tag_115:\n        /* \"src/auction.sol\":3019:3459  if(msg.sender == owner){... */\n    tag_111:\n        /* \"src/auction.sol\":2814:3469  if(auctionState == State.Canceled){ // auction cancelada... */\n    tag_109:\n        /* \"src/auction.sol\":3535:3536  0 */\n      0x00\n        /* \"src/auction.sol\":3517:3521  bids */\n      0x07\n        /* \"src/auction.sol\":3517:3532  bids[recipient] */\n      0x00\n        /* \"src/auction.sol\":3522:3531  recipient */\n      dup5\n        /* \"src/auction.sol\":3517:3532  bids[recipient] */\n      0xffffffffffffffffffffffffffffffffffffffff\n      and\n      0xffffffffffffffffffffffffffffffffffffffff\n      and\n      dup2\n      mstore\n      0x20\n      add\n      swap1\n      dup2\n      mstore\n      0x20\n      add\n      0x00\n      keccak256\n        /* \"src/auction.sol\":3517:3536  bids[recipient] = 0 */\n      dup2\n      swap1\n      sstore\n      pop\n        /* \"src/auction.sol\":3587:3596  recipient */\n      dup2\n        /* \"src/auction.sol\":3587:3605  recipient.transfer */\n      0xffffffffffffffffffffffffffffffffffffffff\n      and\n        /* \"src/auction.sol\":3587:3612  recipient.transfer(value) */\n      0x08fc\n        /* \"src/auction.sol\":3606:3611  value */\n      dup3\n        /* \"src/auction.sol\":3587:3612  recipient.transfer(value) */\n      swap1\n      dup2\n      iszero\n      mul\n      swap1\n      mload(0x40)\n      0x00\n      mload(0x40)\n      dup1\n      dup4\n      sub\n      dup2\n      dup6\n      dup9\n      dup9\n      call\n      swap4\n      pop\n      pop\n      pop\n      pop\n      iszero\n      dup1\n      iszero\n      tag_117\n      jumpi\n      returndatacopy(0x00, 0x00, returndatasize)\n      revert(0x00, returndatasize)\n    tag_117:\n      pop\n        /* \"src/auction.sol\":2609:3619  {... */\n      pop\n      pop\n        /* \"src/auction.sol\":2576:3619  function finalizeAuction() public{... */\n      jump\t// out\n        /* \"src/auction.sol\":1540:1693  function min(uint a, uint b) pure internal returns(uint){... */\n    tag_91:\n        /* \"src/auction.sol\":1591:1595  uint */\n      0x00\n        /* \"src/auction.sol\":1614:1615  b */\n      dup2\n        /* \"src/auction.sol\":1609:1610  a */\n      dup4\n        /* \"src/auction.sol\":1609:1615  a <= b */\n      gt\n        /* \"src/auction.sol\":1606:1687  if(a <= b) {... */\n      tag_119\n      jumpi\n        /* \"src/auction.sol\":1638:1639  b */\n      dup2\n        /* \"src/auction.sol\":1631:1639  return b */\n      swap1\n      pop\n      jump(tag_118)\n        /* \"src/auction.sol\":1606:1687  if(a <= b) {... */\n    tag_119:\n        /* \"src/auction.sol\":1675:1676  a */\n      dup3\n        /* \"src/auction.sol\":1668:1676  return a */\n      swap1\n      pop\n        /* \"src/auction.sol\":1540:1693  function min(uint a, uint b) pure internal returns(uint){... */\n    tag_118:\n      swap3\n      swap2\n      pop\n      pop\n      jump\t// out\n        /* \"#utility.yul\":7:84   */\n    tag_121:\n        /* \"#utility.yul\":44:51   */\n      0x00\n        /* \"#utility.yul\":73:78   */\n      dup2\n        /* \"#utility.yul\":62:78   */\n      swap1\n      pop\n        /* \"#utility.yul\":7:84   */\n      swap2\n      swap1\n      pop\n      jump\t// out\n        /* \"#utility.yul\":90:208   */\n    tag_122:\n        /* \"#utility.yul\":177:201   */\n      tag_146\n        /* \"#utility.yul\":195:200   */\n      dup2\n        /* \"#utility.yul\":177:201   */\n      tag_121\n      jump\t// in\n    tag_146:\n        /* \"#utility.yul\":172:175   */\n      dup3\n        /* \"#utility.yul\":165:202   */\n      mstore\n        /* \"#utility.yul\":90:208   */\n      pop\n      pop\n      jump\t// out\n        /* \"#utility.yul\":214:436   */\n    tag_18:\n        /* \"#utility.yul\":307:311   */\n      0x00\n        /* \"#utility.yul\":345:347   */\n      0x20\n        /* \"#utility.yul\":334:343   */\n      dup3\n        /* \"#utility.yul\":330:348   */\n      add\n        /* \"#utility.yul\":322:348   */\n      swap1\n      pop\n        /* \"#utility.yul\":358:429   */\n      tag_148\n        /* \"#utility.yul\":426:427   */\n      0x00\n        /* \"#utility.yul\":415:424   */\n      dup4\n        /* \"#utility.yul\":411:428   */\n      add\n        /* \"#utility.yul\":402:408   */\n      dup5\n        /* \"#utility.yul\":358:429   */\n      tag_122\n      jump\t// in\n    tag_148:\n        /* \"#utility.yul\":214:436   */\n      swap3\n      swap2\n      pop\n      pop\n      jump\t// out\n        /* \"#utility.yul\":523:640   */\n    tag_124:\n        /* \"#utility.yul\":632:633   */\n      0x00\n        /* \"#utility.yul\":629:630   */\n      0x00\n        /* \"#utility.yul\":622:634   */\n      revert\n        /* \"#utility.yul\":769:895   */\n    tag_126:\n        /* \"#utility.yul\":806:813   */\n      0x00\n        /* \"#utility.yul\":846:888   */\n      0xffffffffffffffffffffffffffffffffffffffff\n        /* \"#utility.yul\":839:844   */\n      dup3\n        /* \"#utility.yul\":835:889   */\n      and\n        /* \"#utility.yul\":824:889   */\n      swap1\n      pop\n        /* \"#utility.yul\":769:895   */\n      swap2\n      swap1\n      pop\n      jump\t// out\n        /* \"#utility.yul\":901:997   */\n    tag_127:\n        /* \"#utility.yul\":938:945   */\n      0x00\n        /* \"#utility.yul\":967:991   */\n      tag_154\n        /* \"#utility.yul\":985:990   */\n      dup3\n        /* \"#utility.yul\":967:991   */\n      tag_126\n      jump\t// in\n    tag_154:\n        /* \"#utility.yul\":956:991   */\n      swap1\n      pop\n        /* \"#utility.yul\":901:997   */\n      swap2\n      swap1\n      pop\n      jump\t// out\n        /* \"#utility.yul\":1003:1125   */\n    tag_128:\n        /* \"#utility.yul\":1076:1100   */\n      tag_156\n        /* \"#utility.yul\":1094:1099   */\n      dup2\n        /* \"#utility.yul\":1076:1100   */\n      tag_127\n      jump\t// in\n    tag_156:\n        /* \"#utility.yul\":1069:1074   */\n      dup2\n        /* \"#utility.yul\":1066:1101   */\n      eq\n        /* \"#utility.yul\":1056:1119   */\n      tag_157\n      jumpi\n        /* \"#utility.yul\":1115:1116   */\n      0x00\n        /* \"#utility.yul\":1112:1113   */\n      0x00\n        /* \"#utility.yul\":1105:1117   */\n      revert\n        /* \"#utility.yul\":1056:1119   */\n    tag_157:\n        /* \"#utility.yul\":1003:1125   */\n      pop\n      jump\t// out\n        /* \"#utility.yul\":1131:1270   */\n    tag_129:\n        /* \"#utility.yul\":1177:1182   */\n      0x00\n        /* \"#utility.yul\":1215:1221   */\n      dup2\n        /* \"#utility.yul\":1202:1222   */\n      calldataload\n        /* \"#utility.yul\":1193:1222   */\n      swap1\n      pop\n        /* \"#utility.yul\":1231:1264   */\n      tag_159\n        /* \"#utility.yul\":1258:1263   */\n      dup2\n        /* \"#utility.yul\":1231:1264   */\n      tag_128\n      jump\t// in\n    tag_159:\n        /* \"#utility.yul\":1131:1270   */\n      swap3\n      swap2\n      pop\n      pop\n      jump\t// out\n        /* \"#utility.yul\":1276:1605   */\n    tag_26:\n        /* \"#utility.yul\":1335:1341   */\n      0x00\n        /* \"#utility.yul\":1384:1386   */\n      0x20\n        /* \"#utility.yul\":1372:1381   */\n      dup3\n        /* \"#utility.yul\":1363:1370   */\n      dup5\n        /* \"#utility.yul\":1359:1382   */\n      sub\n        /* \"#utility.yul\":1355:1387   */\n      slt\n        /* \"#utility.yul\":1352:1471   */\n      iszero\n      tag_161\n      jumpi\n        /* \"#utility.yul\":1390:1469   */\n      tag_162\n      tag_124\n      jump\t// in\n    tag_162:\n        /* \"#utility.yul\":1352:1471   */\n    tag_161:\n        /* \"#utility.yul\":1510:1511   */\n      0x00\n        /* \"#utility.yul\":1535:1588   */\n      tag_163\n        /* \"#utility.yul\":1580:1587   */\n      dup5\n        /* \"#utility.yul\":1571:1577   */\n      dup3\n        /* \"#utility.yul\":1560:1569   */\n      dup6\n        /* \"#utility.yul\":1556:1578   */\n      add\n        /* \"#utility.yul\":1535:1588   */\n      tag_129\n      jump\t// in\n    tag_163:\n        /* \"#utility.yul\":1525:1588   */\n      swap2\n      pop\n        /* \"#utility.yul\":1481:1598   */\n      pop\n        /* \"#utility.yul\":1276:1605   */\n      swap3\n      swap2\n      pop\n      pop\n      jump\t// out\n        /* \"#utility.yul\":1611:1791   */\n    tag_65:\n        /* \"#utility.yul\":1659:1736   */\n      0x4e487b7100000000000000000000000000000000000000000000000000000000\n        /* \"#utility.yul\":1656:1657   */\n      0x00\n        /* \"#utility.yul\":1649:1737   */\n      mstore\n        /* \"#utility.yul\":1756:1760   */\n      0x21\n        /* \"#utility.yul\":1753:1754   */\n      0x04\n        /* \"#utility.yul\":1746:1761   */\n      mstore\n        /* \"#utility.yul\":1780:1784   */\n      0x24\n        /* \"#utility.yul\":1777:1778   */\n      0x00\n        /* \"#utility.yul\":1770:1785   */\n      revert\n        /* \"#utility.yul\":1797:1910   */\n    tag_130:\n        /* \"#utility.yul\":1878:1879   */\n      0x04\n        /* \"#utility.yul\":1871:1876   */\n      dup2\n        /* \"#utility.yul\":1868:1880   */\n      lt\n        /* \"#utility.yul\":1858:1904   */\n      tag_166\n      jumpi\n        /* \"#utility.yul\":1884:1902   */\n      tag_167\n      tag_65\n      jump\t// in\n    tag_167:\n        /* \"#utility.yul\":1858:1904   */\n    tag_166:\n        /* \"#utility.yul\":1797:1910   */\n      pop\n      jump\t// out\n        /* \"#utility.yul\":1916:2043   */\n    tag_131:\n        /* \"#utility.yul\":1961:1968   */\n      0x00\n        /* \"#utility.yul\":1990:1995   */\n      dup2\n        /* \"#utility.yul\":1979:1995   */\n      swap1\n      pop\n        /* \"#utility.yul\":1996:2037   */\n      tag_169\n        /* \"#utility.yul\":2031:2036   */\n      dup3\n        /* \"#utility.yul\":1996:2037   */\n      tag_130\n      jump\t// in\n    tag_169:\n        /* \"#utility.yul\":1916:2043   */\n      swap2\n      swap1\n      pop\n      jump\t// out\n        /* \"#utility.yul\":2049:2176   */\n    tag_132:\n        /* \"#utility.yul\":2105:2114   */\n      0x00\n        /* \"#utility.yul\":2138:2170   */\n      tag_171\n        /* \"#utility.yul\":2164:2169   */\n      dup3\n        /* \"#utility.yul\":2138:2170   */\n      tag_131\n      jump\t// in\n    tag_171:\n        /* \"#utility.yul\":2125:2170   */\n      swap1\n      pop\n        /* \"#utility.yul\":2049:2176   */\n      swap2\n      swap1\n      pop\n      jump\t// out\n        /* \"#utility.yul\":2182:2325   */\n    tag_133:\n        /* \"#utility.yul\":2275:2318   */\n      tag_173\n        /* \"#utility.yul\":2312:2317   */\n      dup2\n        /* \"#utility.yul\":2275:2318   */\n      tag_132\n      jump\t// in\n    tag_173:\n        /* \"#utility.yul\":2270:2273   */\n      dup3\n        /* \"#utility.yul\":2263:2319   */\n      mstore\n        /* \"#utility.yul\":2182:2325   */\n      pop\n      pop\n      jump\t// out\n        /* \"#utility.yul\":2331:2565   */\n    tag_33:\n        /* \"#utility.yul\":2430:2434   */\n      0x00\n        /* \"#utility.yul\":2468:2470   */\n      0x20\n        /* \"#utility.yul\":2457:2466   */\n      dup3\n        /* \"#utility.yul\":2453:2471   */\n      add\n        /* \"#utility.yul\":2445:2471   */\n      swap1\n      pop\n        /* \"#utility.yul\":2481:2558   */\n      tag_175\n        /* \"#utility.yul\":2555:2556   */\n      0x00\n        /* \"#utility.yul\":2544:2553   */\n      dup4\n        /* \"#utility.yul\":2540:2557   */\n      add\n        /* \"#utility.yul\":2531:2537   */\n      dup5\n        /* \"#utility.yul\":2481:2558   */\n      tag_133\n      jump\t// in\n    tag_175:\n        /* \"#utility.yul\":2331:2565   */\n      swap3\n      swap2\n      pop\n      pop\n      jump\t// out\n        /* \"#utility.yul\":2571:2675   */\n    tag_134:\n        /* \"#utility.yul\":2616:2623   */\n      0x00\n        /* \"#utility.yul\":2645:2669   */\n      tag_177\n        /* \"#utility.yul\":2663:2668   */\n      dup3\n        /* \"#utility.yul\":2645:2669   */\n      tag_126\n      jump\t// in\n    tag_177:\n        /* \"#utility.yul\":2634:2669   */\n      swap1\n      pop\n        /* \"#utility.yul\":2571:2675   */\n      swap2\n      swap1\n      pop\n      jump\t// out\n        /* \"#utility.yul\":2681:2823   */\n    tag_135:\n        /* \"#utility.yul\":2784:2816   */\n      tag_179\n        /* \"#utility.yul\":2810:2815   */\n      dup2\n        /* \"#utility.yul\":2784:2816   */\n      tag_134\n      jump\t// in\n    tag_179:\n        /* \"#utility.yul\":2779:2782   */\n      dup3\n        /* \"#utility.yul\":2772:2817   */\n      mstore\n        /* \"#utility.yul\":2681:2823   */\n      pop\n      pop\n      jump\t// out\n        /* \"#utility.yul\":2829:3083   */\n    tag_38:\n        /* \"#utility.yul\":2938:2942   */\n      0x00\n        /* \"#utility.yul\":2976:2978   */\n      0x20\n        /* \"#utility.yul\":2965:2974   */\n      dup3\n        /* \"#utility.yul\":2961:2979   */\n      add\n        /* \"#utility.yul\":2953:2979   */\n      swap1\n      pop\n        /* \"#utility.yul\":2989:3076   */\n      tag_181\n        /* \"#utility.yul\":3073:3074   */\n      0x00\n        /* \"#utility.yul\":3062:3071   */\n      dup4\n        /* \"#utility.yul\":3058:3075   */\n      add\n        /* \"#utility.yul\":3049:3055   */\n      dup5\n        /* \"#utility.yul\":2989:3076   */\n      tag_135\n      jump\t// in\n    tag_181:\n        /* \"#utility.yul\":2829:3083   */\n      swap3\n      swap2\n      pop\n      pop\n      jump\t// out\n        /* \"#utility.yul\":3089:3188   */\n    tag_136:\n        /* \"#utility.yul\":3141:3147   */\n      0x00\n        /* \"#utility.yul\":3175:3180   */\n      dup2\n        /* \"#utility.yul\":3169:3181   */\n      mload\n        /* \"#utility.yul\":3159:3181   */\n      swap1\n      pop\n        /* \"#utility.yul\":3089:3188   */\n      swap2\n      swap1\n      pop\n      jump\t// out\n        /* \"#utility.yul\":3194:3363   */\n    tag_137:\n        /* \"#utility.yul\":3278:3289   */\n      0x00\n        /* \"#utility.yul\":3312:3318   */\n      dup3\n        /* \"#utility.yul\":3307:3310   */\n      dup3\n        /* \"#utility.yul\":3300:3319   */\n      mstore\n        /* \"#utility.yul\":3352:3356   */\n      0x20\n        /* \"#utility.yul\":3347:3350   */\n      dup3\n        /* \"#utility.yul\":3343:3357   */\n      add\n        /* \"#utility.yul\":3328:3357   */\n      swap1\n      pop\n        /* \"#utility.yul\":3194:3363   */\n      swap3\n      swap2\n      pop\n      pop\n      jump\t// out\n        /* \"#utility.yul\":3369:3508   */\n    tag_138:\n        /* \"#utility.yul\":3458:3464   */\n      dup3\n        /* \"#utility.yul\":3453:3456   */\n      dup2\n        /* \"#utility.yul\":3448:3451   */\n      dup4\n        /* \"#utility.yul\":3442:3465   */\n      mcopy\n        /* \"#utility.yul\":3499:3500   */\n      0x00\n        /* \"#utility.yul\":3490:3496   */\n      dup4\n        /* \"#utility.yul\":3485:3488   */\n      dup4\n        /* \"#utility.yul\":3481:3497   */\n      add\n        /* \"#utility.yul\":3474:3501   */\n      mstore\n        /* \"#utility.yul\":3369:3508   */\n      pop\n      pop\n      pop\n      jump\t// out\n        /* \"#utility.yul\":3514:3616   */\n    tag_139:\n        /* \"#utility.yul\":3555:3561   */\n      0x00\n        /* \"#utility.yul\":3606:3608   */\n      0x1f\n        /* \"#utility.yul\":3602:3609   */\n      not\n        /* \"#utility.yul\":3597:3599   */\n      0x1f\n        /* \"#utility.yul\":3590:3595   */\n      dup4\n        /* \"#utility.yul\":3586:3600   */\n      add\n        /* \"#utility.yul\":3582:3610   */\n      and\n        /* \"#utility.yul\":3572:3610   */\n      swap1\n      pop\n        /* \"#utility.yul\":3514:3616   */\n      swap2\n      swap1\n      pop\n      jump\t// out\n        /* \"#utility.yul\":3622:3999   */\n    tag_140:\n        /* \"#utility.yul\":3710:3713   */\n      0x00\n        /* \"#utility.yul\":3738:3777   */\n      tag_187\n        /* \"#utility.yul\":3771:3776   */\n      dup3\n        /* \"#utility.yul\":3738:3777   */\n      tag_136\n      jump\t// in\n    tag_187:\n        /* \"#utility.yul\":3793:3864   */\n      tag_188\n        /* \"#utility.yul\":3857:3863   */\n      dup2\n        /* \"#utility.yul\":3852:3855   */\n      dup6\n        /* \"#utility.yul\":3793:3864   */\n      tag_137\n      jump\t// in\n    tag_188:\n        /* \"#utility.yul\":3786:3864   */\n      swap4\n      pop\n        /* \"#utility.yul\":3873:3938   */\n      tag_189\n        /* \"#utility.yul\":3931:3937   */\n      dup2\n        /* \"#utility.yul\":3926:3929   */\n      dup6\n        /* \"#utility.yul\":3919:3923   */\n      0x20\n        /* \"#utility.yul\":3912:3917   */\n      dup7\n        /* \"#utility.yul\":3908:3924   */\n      add\n        /* \"#utility.yul\":3873:3938   */\n      tag_138\n      jump\t// in\n    tag_189:\n        /* \"#utility.yul\":3963:3992   */\n      tag_190\n        /* \"#utility.yul\":3985:3991   */\n      dup2\n        /* \"#utility.yul\":3963:3992   */\n      tag_139\n      jump\t// in\n    tag_190:\n        /* \"#utility.yul\":3958:3961   */\n      dup5\n        /* \"#utility.yul\":3954:3993   */\n      add\n        /* \"#utility.yul\":3947:3993   */\n      swap2\n      pop\n        /* \"#utility.yul\":3714:3999   */\n      pop\n        /* \"#utility.yul\":3622:3999   */\n      swap3\n      swap2\n      pop\n      pop\n      jump\t// out\n        /* \"#utility.yul\":4005:4318   */\n    tag_50:\n        /* \"#utility.yul\":4118:4122   */\n      0x00\n        /* \"#utility.yul\":4156:4158   */\n      0x20\n        /* \"#utility.yul\":4145:4154   */\n      dup3\n        /* \"#utility.yul\":4141:4159   */\n      add\n        /* \"#utility.yul\":4133:4159   */\n      swap1\n      pop\n        /* \"#utility.yul\":4205:4214   */\n      dup2\n        /* \"#utility.yul\":4199:4203   */\n      dup2\n        /* \"#utility.yul\":4195:4215   */\n      sub\n        /* \"#utility.yul\":4191:4192   */\n      0x00\n        /* \"#utility.yul\":4180:4189   */\n      dup4\n        /* \"#utility.yul\":4176:4193   */\n      add\n        /* \"#utility.yul\":4169:4216   */\n      mstore\n        /* \"#utility.yul\":4233:4311   */\n      tag_192\n        /* \"#utility.yul\":4306:4310   */\n      dup2\n        /* \"#utility.yul\":4297:4303   */\n      dup5\n        /* \"#utility.yul\":4233:4311   */\n      tag_140\n      jump\t// in\n    tag_192:\n        /* \"#utility.yul\":4225:4311   */\n      swap1\n      pop\n        /* \"#utility.yul\":4005:4318   */\n      swap3\n      swap2\n      pop\n      pop\n      jump\t// out\n        /* \"#utility.yul\":4324:4504   */\n    tag_141:\n        /* \"#utility.yul\":4372:4449   */\n      0x4e487b7100000000000000000000000000000000000000000000000000000000\n        /* \"#utility.yul\":4369:4370   */\n      0x00\n        /* \"#utility.yul\":4362:4450   */\n      mstore\n        /* \"#utility.yul\":4469:4473   */\n      0x22\n        /* \"#utility.yul\":4466:4467   */\n      0x04\n        /* \"#utility.yul\":4459:4474   */\n      mstore\n        /* \"#utility.yul\":4493:4497   */\n      0x24\n        /* \"#utility.yul\":4490:4491   */\n      0x00\n        /* \"#utility.yul\":4483:4498   */\n      revert\n        /* \"#utility.yul\":4510:4830   */\n    tag_67:\n        /* \"#utility.yul\":4554:4560   */\n      0x00\n        /* \"#utility.yul\":4591:4592   */\n      0x02\n        /* \"#utility.yul\":4585:4589   */\n      dup3\n        /* \"#utility.yul\":4581:4593   */\n      div\n        /* \"#utility.yul\":4571:4593   */\n      swap1\n      pop\n        /* \"#utility.yul\":4638:4639   */\n      0x01\n        /* \"#utility.yul\":4632:4636   */\n      dup3\n        /* \"#utility.yul\":4628:4640   */\n      and\n        /* \"#utility.yul\":4659:4677   */\n      dup1\n        /* \"#utility.yul\":4649:4730   */\n      tag_195\n      jumpi\n        /* \"#utility.yul\":4715:4719   */\n      0x7f\n        /* \"#utility.yul\":4707:4713   */\n      dup3\n        /* \"#utility.yul\":4703:4720   */\n      and\n        /* \"#utility.yul\":4693:4720   */\n      swap2\n      pop\n        /* \"#utility.yul\":4649:4730   */\n    tag_195:\n        /* \"#utility.yul\":4777:4779   */\n      0x20\n        /* \"#utility.yul\":4769:4775   */\n      dup3\n        /* \"#utility.yul\":4766:4780   */\n      lt\n        /* \"#utility.yul\":4746:4764   */\n      dup2\n        /* \"#utility.yul\":4743:4781   */\n      sub\n        /* \"#utility.yul\":4740:4824   */\n      tag_196\n      jumpi\n        /* \"#utility.yul\":4796:4814   */\n      tag_197\n      tag_141\n      jump\t// in\n    tag_197:\n        /* \"#utility.yul\":4740:4824   */\n    tag_196:\n        /* \"#utility.yul\":4561:4830   */\n      pop\n        /* \"#utility.yul\":4510:4830   */\n      swap2\n      swap1\n      pop\n      jump\t// out\n        /* \"#utility.yul\":4836:5016   */\n    tag_142:\n        /* \"#utility.yul\":4884:4961   */\n      0x4e487b7100000000000000000000000000000000000000000000000000000000\n        /* \"#utility.yul\":4881:4882   */\n      0x00\n        /* \"#utility.yul\":4874:4962   */\n      mstore\n        /* \"#utility.yul\":4981:4985   */\n      0x11\n        /* \"#utility.yul\":4978:4979   */\n      0x04\n        /* \"#utility.yul\":4971:4986   */\n      mstore\n        /* \"#utility.yul\":5005:5009   */\n      0x24\n        /* \"#utility.yul\":5002:5003   */\n      0x00\n        /* \"#utility.yul\":4995:5010   */\n      revert\n        /* \"#utility.yul\":5022:5213   */\n    tag_86:\n        /* \"#utility.yul\":5062:5065   */\n      0x00\n        /* \"#utility.yul\":5081:5101   */\n      tag_200\n        /* \"#utility.yul\":5099:5100   */\n      dup3\n        /* \"#utility.yul\":5081:5101   */\n      tag_121\n      jump\t// in\n    tag_200:\n        /* \"#utility.yul\":5076:5101   */\n      swap2\n      pop\n        /* \"#utility.yul\":5115:5135   */\n      tag_201\n        /* \"#utility.yul\":5133:5134   */\n      dup4\n        /* \"#utility.yul\":5115:5135   */\n      tag_121\n      jump\t// in\n    tag_201:\n        /* \"#utility.yul\":5110:5135   */\n      swap3\n      pop\n        /* \"#utility.yul\":5158:5159   */\n      dup3\n        /* \"#utility.yul\":5155:5156   */\n      dup3\n        /* \"#utility.yul\":5151:5160   */\n      add\n        /* \"#utility.yul\":5144:5160   */\n      swap1\n      pop\n        /* \"#utility.yul\":5179:5182   */\n      dup1\n        /* \"#utility.yul\":5176:5177   */\n      dup3\n        /* \"#utility.yul\":5173:5183   */\n      gt\n        /* \"#utility.yul\":5170:5206   */\n      iszero\n      tag_202\n      jumpi\n        /* \"#utility.yul\":5186:5204   */\n      tag_203\n      tag_142\n      jump\t// in\n    tag_203:\n        /* \"#utility.yul\":5170:5206   */\n    tag_202:\n        /* \"#utility.yul\":5022:5213   */\n      swap3\n      swap2\n      pop\n      pop\n      jump\t// out\n        /* \"#utility.yul\":5219:5413   */\n    tag_114:\n        /* \"#utility.yul\":5259:5263   */\n      0x00\n        /* \"#utility.yul\":5279:5299   */\n      tag_205\n        /* \"#utility.yul\":5297:5298   */\n      dup3\n        /* \"#utility.yul\":5279:5299   */\n      tag_121\n      jump\t// in\n    tag_205:\n        /* \"#utility.yul\":5274:5299   */\n      swap2\n      pop\n        /* \"#utility.yul\":5313:5333   */\n      tag_206\n        /* \"#utility.yul\":5331:5332   */\n      dup4\n        /* \"#utility.yul\":5313:5333   */\n      tag_121\n      jump\t// in\n    tag_206:\n        /* \"#utility.yul\":5308:5333   */\n      swap3\n      pop\n        /* \"#utility.yul\":5357:5358   */\n      dup3\n        /* \"#utility.yul\":5354:5355   */\n      dup3\n        /* \"#utility.yul\":5350:5359   */\n      sub\n        /* \"#utility.yul\":5342:5359   */\n      swap1\n      pop\n        /* \"#utility.yul\":5381:5382   */\n      dup2\n        /* \"#utility.yul\":5375:5379   */\n      dup2\n        /* \"#utility.yul\":5372:5383   */\n      gt\n        /* \"#utility.yul\":5369:5406   */\n      iszero\n      tag_207\n      jumpi\n        /* \"#utility.yul\":5386:5404   */\n      tag_208\n      tag_142\n      jump\t// in\n    tag_208:\n        /* \"#utility.yul\":5369:5406   */\n    tag_207:\n        /* \"#utility.yul\":5219:5413   */\n      swap3\n      swap2\n      pop\n      pop\n      jump\t// out\n\n    auxdata: 0xa2646970667358221220acb3280f775db98e2489125cebc2c5d968707590d476412fd44767179db9100c64736f6c634300081c0033\n}\n",
				"bytecode": {
					"linkReferences": {},
					"object": "608060405234801561000f575f5ffd5b506040516112cb3803806112cb83398181016040528101906100319190610141565b805f5f6101000a81548173ffffffffffffffffffffffffffffffffffffffff021916908373ffffffffffffffffffffffffffffffffffffffff160217905550600160045f6101000a81548160ff021916908360038111156100955761009461016c565b5b021790555043600181905550619d806001546100b191906101cf565b60028190555060405180602001604052805f815250600390816100d49190610436565b50606460088190555050610505565b5f5ffd5b5f73ffffffffffffffffffffffffffffffffffffffff82169050919050565b5f610110826100e7565b9050919050565b61012081610106565b811461012a575f5ffd5b50565b5f8151905061013b81610117565b92915050565b5f60208284031215610156576101556100e3565b5b5f6101638482850161012d565b91505092915050565b7f4e487b71000000000000000000000000000000000000000000000000000000005f52602160045260245ffd5b5f819050919050565b7f4e487b71000000000000000000000000000000000000000000000000000000005f52601160045260245ffd5b5f6101d982610199565b91506101e483610199565b92508282019050808211156101fc576101fb6101a2565b5b92915050565b5f81519050919050565b7f4e487b71000000000000000000000000000000000000000000000000000000005f52604160045260245ffd5b7f4e487b71000000000000000000000000000000000000000000000000000000005f52602260045260245ffd5b5f600282049050600182168061027d57607f821691505b6020821081036102905761028f610239565b5b50919050565b5f819050815f5260205f209050919050565b5f6020601f8301049050919050565b5f82821b905092915050565b5f600883026102f27fffffffffffffffffffffffffffffffffffffffffffffffffffffffffffffffff826102b7565b6102fc86836102b7565b95508019841693508086168417925050509392505050565b5f819050919050565b5f61033761033261032d84610199565b610314565b610199565b9050919050565b5f819050919050565b6103508361031d565b61036461035c8261033e565b8484546102c3565b825550505050565b5f5f905090565b61037b61036c565b610386818484610347565b505050565b5b818110156103a95761039e5f82610373565b60018101905061038c565b5050565b601f8211156103ee576103bf81610296565b6103c8846102a8565b810160208510156103d7578190505b6103eb6103e3856102a8565b83018261038b565b50505b505050565b5f82821c905092915050565b5f61040e5f19846008026103f3565b1980831691505092915050565b5f61042683836103ff565b9150826002028217905092915050565b61043f82610202565b67ffffffffffffffff8111156104585761045761020c565b5b6104628254610266565b61046d8282856103ad565b5f60209050601f83116001811461049e575f841561048c578287015190505b610496858261041b565b8655506104fd565b601f1984166104ac86610296565b5f5b828110156104d3578489015182556001820191506020850194506020810190506104ae565b868310156104f057848901516104ec601f8916826103ff565b8355505b6001600288020188555050505b505050505050565b610db9806105125f395ff3fe60806040526004361061009b575f3560e01c80638fa8b790116100635780638fa8b7901461018357806391f9015714610199578063c623674f146101c3578063ecfc7ecc146101ed578063f5b56c56146101f7578063f77282ab146102215761009b565b8063083c63231461009f57806348cd4cb1146100c957806362ea82db146100f35780637fb450991461012f5780638da5cb5b14610159575b5f5ffd5b3480156100aa575f5ffd5b506100b3610237565b6040516100c09190610a9c565b60405180910390f35b3480156100d4575f5ffd5b506100dd61023d565b6040516100ea9190610a9c565b60405180910390f35b3480156100fe575f5ffd5b5061011960048036038101906101149190610b13565b610243565b6040516101269190610a9c565b60405180910390f35b34801561013a575f5ffd5b50610143610258565b6040516101509190610bb1565b60405180910390f35b348015610164575f5ffd5b5061016d61026a565b60405161017a9190610bea565b60405180910390f35b34801561018e575f5ffd5b5061019761028e565b005b3480156101a4575f5ffd5b506101ad610311565b6040516101ba9190610bea565b60405180910390f35b3480156101ce575f5ffd5b506101d7610336565b6040516101e49190610c73565b60405180910390f35b6101f56103c2565b005b348015610202575f5ffd5b5061020b6106bf565b6040516102189190610a9c565b60405180910390f35b34801561022c575f5ffd5b506102356106c5565b005b60025481565b60015481565b6007602052805f5260405f205f915090505481565b60045f9054906101000a900460ff1681565b5f5f9054906101000a900473ffffffffffffffffffffffffffffffffffffffff1681565b5f5f9054906101000a900473ffffffffffffffffffffffffffffffffffffffff1673ffffffffffffffffffffffffffffffffffffffff163373ffffffffffffffffffffffffffffffffffffffff16146102e5575f5ffd5b600360045f6101000a81548160ff0219169083600381111561030a57610309610b3e565b5b0217905550565b60065f9054906101000a900473ffffffffffffffffffffffffffffffffffffffff1681565b6003805461034390610cc0565b80601f016020809104026020016040519081016040528092919081815260200182805461036f90610cc0565b80156103ba5780601f10610391576101008083540402835291602001916103ba565b820191905f5260205f20905b81548152906001019060200180831161039d57829003601f168201915b505050505081565b5f5f9054906101000a900473ffffffffffffffffffffffffffffffffffffffff1673ffffffffffffffffffffffffffffffffffffffff163373ffffffffffffffffffffffffffffffffffffffff1603610419575f5ffd5b600154431015610427575f5ffd5b600254431115610435575f5ffd5b6001600381111561044957610448610b3e565b5b60045f9054906101000a900460ff16600381111561046a57610469610b3e565b5b14610473575f5ffd5b6064341015610480575f5ffd5b5f3460075f3373ffffffffffffffffffffffffffffffffffffffff1673ffffffffffffffffffffffffffffffffffffffff1681526020019081526020015f20546104ca9190610d1d565b905060055481116104d9575f5ffd5b8060075f3373ffffffffffffffffffffffffffffffffffffffff1673ffffffffffffffffffffffffffffffffffffffff1681526020019081526020015f208190555060075f60065f9054906101000a900473ffffffffffffffffffffffffffffffffffffffff1673ffffffffffffffffffffffffffffffffffffffff1673ffffffffffffffffffffffffffffffffffffffff1681526020019081526020015f20548111610600576105f5600854826105919190610d1d565b60075f60065f9054906101000a900473ffffffffffffffffffffffffffffffffffffffff1673ffffffffffffffffffffffffffffffffffffffff1673ffffffffffffffffffffffffffffffffffffffff1681526020019081526020015f2054610a6a565b6005819055506106bc565b6106758160085460075f60065f9054906101000a900473ffffffffffffffffffffffffffffffffffffffff1673ffffffffffffffffffffffffffffffffffffffff1673ffffffffffffffffffffffffffffffffffffffff1681526020019081526020015f20546106709190610d1d565b610a6a565b6005819055503360065f6101000a81548173ffffffffffffffffffffffffffffffffffffffff021916908373ffffffffffffffffffffffffffffffffffffffff1602179055505b50565b60055481565b6003808111156106d8576106d7610b3e565b5b60045f9054906101000a900460ff1660038111156106f9576106f8610b3e565b5b1480610706575060025443115b61070e575f5ffd5b5f5f9054906101000a900473ffffffffffffffffffffffffffffffffffffffff1673ffffffffffffffffffffffffffffffffffffffff163373ffffffffffffffffffffffffffffffffffffffff1614806107a457505f60075f3373ffffffffffffffffffffffffffffffffffffffff1673ffffffffffffffffffffffffffffffffffffffff1681526020019081526020015f2054115b6107ac575f5ffd5b5f5f6003808111156107c1576107c0610b3e565b5b60045f9054906101000a900460ff1660038111156107e2576107e1610b3e565b5b0361082f5733915060075f3373ffffffffffffffffffffffffffffffffffffffff1673ffffffffffffffffffffffffffffffffffffffff1681526020019081526020015f205490506109e0565b5f5f9054906101000a900473ffffffffffffffffffffffffffffffffffffffff1673ffffffffffffffffffffffffffffffffffffffff163373ffffffffffffffffffffffffffffffffffffffff16036108af575f5f9054906101000a900473ffffffffffffffffffffffffffffffffffffffff16915060055490506109df565b60065f9054906101000a900473ffffffffffffffffffffffffffffffffffffffff1673ffffffffffffffffffffffffffffffffffffffff163373ffffffffffffffffffffffffffffffffffffffff160361099a5760065f9054906101000a900473ffffffffffffffffffffffffffffffffffffffff16915060055460075f60065f9054906101000a900473ffffffffffffffffffffffffffffffffffffffff1673ffffffffffffffffffffffffffffffffffffffff1673ffffffffffffffffffffffffffffffffffffffff1681526020019081526020015f20546109939190610d50565b90506109de565b33915060075f3373ffffffffffffffffffffffffffffffffffffffff1673ffffffffffffffffffffffffffffffffffffffff1681526020019081526020015f205490505b5b5b5f60075f8473ffffffffffffffffffffffffffffffffffffffff1673ffffffffffffffffffffffffffffffffffffffff1681526020019081526020015f20819055508173ffffffffffffffffffffffffffffffffffffffff166108fc8290811502906040515f60405180830381858888f19350505050158015610a65573d5f5f3e3d5ffd5b505050565b5f818311610a7a57819050610a7e565b8290505b92915050565b5f819050919050565b610a9681610a84565b82525050565b5f602082019050610aaf5f830184610a8d565b92915050565b5f5ffd5b5f73ffffffffffffffffffffffffffffffffffffffff82169050919050565b5f610ae282610ab9565b9050919050565b610af281610ad8565b8114610afc575f5ffd5b50565b5f81359050610b0d81610ae9565b92915050565b5f60208284031215610b2857610b27610ab5565b5b5f610b3584828501610aff565b91505092915050565b7f4e487b71000000000000000000000000000000000000000000000000000000005f52602160045260245ffd5b60048110610b7c57610b7b610b3e565b5b50565b5f819050610b8c82610b6b565b919050565b5f610b9b82610b7f565b9050919050565b610bab81610b91565b82525050565b5f602082019050610bc45f830184610ba2565b92915050565b5f610bd482610ab9565b9050919050565b610be481610bca565b82525050565b5f602082019050610bfd5f830184610bdb565b92915050565b5f81519050919050565b5f82825260208201905092915050565b8281835e5f83830152505050565b5f601f19601f8301169050919050565b5f610c4582610c03565b610c4f8185610c0d565b9350610c5f818560208601610c1d565b610c6881610c2b565b840191505092915050565b5f6020820190508181035f830152610c8b8184610c3b565b905092915050565b7f4e487b71000000000000000000000000000000000000000000000000000000005f52602260045260245ffd5b5f6002820490506001821680610cd757607f821691505b602082108103610cea57610ce9610c93565b5b50919050565b7f4e487b71000000000000000000000000000000000000000000000000000000005f52601160045260245ffd5b5f610d2782610a84565b9150610d3283610a84565b9250828201905080821115610d4a57610d49610cf0565b5b92915050565b5f610d5a82610a84565b9150610d6583610a84565b9250828203905081811115610d7d57610d7c610cf0565b5b9291505056fea2646970667358221220acb3280f775db98e2489125cebc2c5d968707590d476412fd44767179db9100c64736f6c634300081c0033",
					"opcodes": "PUSH1 0x80 PUSH1 0x40 MSTORE CALLVALUE DUP1 ISZERO PUSH2 0xF JUMPI PUSH0 PUSH0 REVERT JUMPDEST POP PUSH1 0x40 MLOAD PUSH2 0x12CB CODESIZE SUB DUP1 PUSH2 0x12CB DUP4 CODECOPY DUP2 DUP2 ADD PUSH1 0x40 MSTORE DUP2 ADD SWAP1 PUSH2 0x31 SWAP2 SWAP1 PUSH2 0x141 JUMP JUMPDEST DUP1 PUSH0 PUSH0 PUSH2 0x100 EXP DUP2 SLOAD DUP2 PUSH20 0xFFFFFFFFFFFFFFFFFFFFFFFFFFFFFFFFFFFFFFFF MUL NOT AND SWAP1 DUP4 PUSH20 0xFFFFFFFFFFFFFFFFFFFFFFFFFFFFFFFFFFFFFFFF AND MUL OR SWAP1 SSTORE POP PUSH1 0x1 PUSH1 0x4 PUSH0 PUSH2 0x100 EXP DUP2 SLOAD DUP2 PUSH1 0xFF MUL NOT AND SWAP1 DUP4 PUSH1 0x3 DUP2 GT ISZERO PUSH2 0x95 JUMPI PUSH2 0x94 PUSH2 0x16C JUMP JUMPDEST JUMPDEST MUL OR SWAP1 SSTORE POP NUMBER PUSH1 0x1 DUP2 SWAP1 SSTORE POP PUSH2 0x9D80 PUSH1 0x1 SLOAD PUSH2 0xB1 SWAP2 SWAP1 PUSH2 0x1CF JUMP JUMPDEST PUSH1 0x2 DUP2 SWAP1 SSTORE POP PUSH1 0x40 MLOAD DUP1 PUSH1 0x20 ADD PUSH1 0x40 MSTORE DUP1 PUSH0 DUP2 MSTORE POP PUSH1 0x3 SWAP1 DUP2 PUSH2 0xD4 SWAP2 SWAP1 PUSH2 0x436 JUMP JUMPDEST POP PUSH1 0x64 PUSH1 0x8 DUP2 SWAP1 SSTORE POP POP PUSH2 0x505 JUMP JUMPDEST PUSH0 PUSH0 REVERT JUMPDEST PUSH0 PUSH20 0xFFFFFFFFFFFFFFFFFFFFFFFFFFFFFFFFFFFFFFFF DUP3 AND SWAP1 POP SWAP2 SWAP1 POP JUMP JUMPDEST PUSH0 PUSH2 0x110 DUP3 PUSH2 0xE7 JUMP JUMPDEST SWAP1 POP SWAP2 SWAP1 POP JUMP JUMPDEST PUSH2 0x120 DUP2 PUSH2 0x106 JUMP JUMPDEST DUP2 EQ PUSH2 0x12A JUMPI PUSH0 PUSH0 REVERT JUMPDEST POP JUMP JUMPDEST PUSH0 DUP2 MLOAD SWAP1 POP PUSH2 0x13B DUP2 PUSH2 0x117 JUMP JUMPDEST SWAP3 SWAP2 POP POP JUMP JUMPDEST PUSH0 PUSH1 0x20 DUP3 DUP5 SUB SLT ISZERO PUSH2 0x156 JUMPI PUSH2 0x155 PUSH2 0xE3 JUMP JUMPDEST JUMPDEST PUSH0 PUSH2 0x163 DUP5 DUP3 DUP6 ADD PUSH2 0x12D JUMP JUMPDEST SWAP2 POP POP SWAP3 SWAP2 POP POP JUMP JUMPDEST PUSH32 0x4E487B7100000000000000000000000000000000000000000000000000000000 PUSH0 MSTORE PUSH1 0x21 PUSH1 0x4 MSTORE PUSH1 0x24 PUSH0 REVERT JUMPDEST PUSH0 DUP2 SWAP1 POP SWAP2 SWAP1 POP JUMP JUMPDEST PUSH32 0x4E487B7100000000000000000000000000000000000000000000000000000000 PUSH0 MSTORE PUSH1 0x11 PUSH1 0x4 MSTORE PUSH1 0x24 PUSH0 REVERT JUMPDEST PUSH0 PUSH2 0x1D9 DUP3 PUSH2 0x199 JUMP JUMPDEST SWAP2 POP PUSH2 0x1E4 DUP4 PUSH2 0x199 JUMP JUMPDEST SWAP3 POP DUP3 DUP3 ADD SWAP1 POP DUP1 DUP3 GT ISZERO PUSH2 0x1FC JUMPI PUSH2 0x1FB PUSH2 0x1A2 JUMP JUMPDEST JUMPDEST SWAP3 SWAP2 POP POP JUMP JUMPDEST PUSH0 DUP2 MLOAD SWAP1 POP SWAP2 SWAP1 POP JUMP JUMPDEST PUSH32 0x4E487B7100000000000000000000000000000000000000000000000000000000 PUSH0 MSTORE PUSH1 0x41 PUSH1 0x4 MSTORE PUSH1 0x24 PUSH0 REVERT JUMPDEST PUSH32 0x4E487B7100000000000000000000000000000000000000000000000000000000 PUSH0 MSTORE PUSH1 0x22 PUSH1 0x4 MSTORE PUSH1 0x24 PUSH0 REVERT JUMPDEST PUSH0 PUSH1 0x2 DUP3 DIV SWAP1 POP PUSH1 0x1 DUP3 AND DUP1 PUSH2 0x27D JUMPI PUSH1 0x7F DUP3 AND SWAP2 POP JUMPDEST PUSH1 0x20 DUP3 LT DUP2 SUB PUSH2 0x290 JUMPI PUSH2 0x28F PUSH2 0x239 JUMP JUMPDEST JUMPDEST POP SWAP2 SWAP1 POP JUMP JUMPDEST PUSH0 DUP2 SWAP1 POP DUP2 PUSH0 MSTORE PUSH1 0x20 PUSH0 KECCAK256 SWAP1 POP SWAP2 SWAP1 POP JUMP JUMPDEST PUSH0 PUSH1 0x20 PUSH1 0x1F DUP4 ADD DIV SWAP1 POP SWAP2 SWAP1 POP JUMP JUMPDEST PUSH0 DUP3 DUP3 SHL SWAP1 POP SWAP3 SWAP2 POP POP JUMP JUMPDEST PUSH0 PUSH1 0x8 DUP4 MUL PUSH2 0x2F2 PUSH32 0xFFFFFFFFFFFFFFFFFFFFFFFFFFFFFFFFFFFFFFFFFFFFFFFFFFFFFFFFFFFFFFFF DUP3 PUSH2 0x2B7 JUMP JUMPDEST PUSH2 0x2FC DUP7 DUP4 PUSH2 0x2B7 JUMP JUMPDEST SWAP6 POP DUP1 NOT DUP5 AND SWAP4 POP DUP1 DUP7 AND DUP5 OR SWAP3 POP POP POP SWAP4 SWAP3 POP POP POP JUMP JUMPDEST PUSH0 DUP2 SWAP1 POP SWAP2 SWAP1 POP JUMP JUMPDEST PUSH0 PUSH2 0x337 PUSH2 0x332 PUSH2 0x32D DUP5 PUSH2 0x199 JUMP JUMPDEST PUSH2 0x314 JUMP JUMPDEST PUSH2 0x199 JUMP JUMPDEST SWAP1 POP SWAP2 SWAP1 POP JUMP JUMPDEST PUSH0 DUP2 SWAP1 POP SWAP2 SWAP1 POP JUMP JUMPDEST PUSH2 0x350 DUP4 PUSH2 0x31D JUMP JUMPDEST PUSH2 0x364 PUSH2 0x35C DUP3 PUSH2 0x33E JUMP JUMPDEST DUP5 DUP5 SLOAD PUSH2 0x2C3 JUMP JUMPDEST DUP3 SSTORE POP POP POP POP JUMP JUMPDEST PUSH0 PUSH0 SWAP1 POP SWAP1 JUMP JUMPDEST PUSH2 0x37B PUSH2 0x36C JUMP JUMPDEST PUSH2 0x386 DUP2 DUP5 DUP5 PUSH2 0x347 JUMP JUMPDEST POP POP POP JUMP JUMPDEST JUMPDEST DUP2 DUP2 LT ISZERO PUSH2 0x3A9 JUMPI PUSH2 0x39E PUSH0 DUP3 PUSH2 0x373 JUMP JUMPDEST PUSH1 0x1 DUP2 ADD SWAP1 POP PUSH2 0x38C JUMP JUMPDEST POP POP JUMP JUMPDEST PUSH1 0x1F DUP3 GT ISZERO PUSH2 0x3EE JUMPI PUSH2 0x3BF DUP2 PUSH2 0x296 JUMP JUMPDEST PUSH2 0x3C8 DUP5 PUSH2 0x2A8 JUMP JUMPDEST DUP2 ADD PUSH1 0x20 DUP6 LT ISZERO PUSH2 0x3D7 JUMPI DUP2 SWAP1 POP JUMPDEST PUSH2 0x3EB PUSH2 0x3E3 DUP6 PUSH2 0x2A8 JUMP JUMPDEST DUP4 ADD DUP3 PUSH2 0x38B JUMP JUMPDEST POP POP JUMPDEST POP POP POP JUMP JUMPDEST PUSH0 DUP3 DUP3 SHR SWAP1 POP SWAP3 SWAP2 POP POP JUMP JUMPDEST PUSH0 PUSH2 0x40E PUSH0 NOT DUP5 PUSH1 0x8 MUL PUSH2 0x3F3 JUMP JUMPDEST NOT DUP1 DUP4 AND SWAP2 POP POP SWAP3 SWAP2 POP POP JUMP JUMPDEST PUSH0 PUSH2 0x426 DUP4 DUP4 PUSH2 0x3FF JUMP JUMPDEST SWAP2 POP DUP3 PUSH1 0x2 MUL DUP3 OR SWAP1 POP SWAP3 SWAP2 POP POP JUMP JUMPDEST PUSH2 0x43F DUP3 PUSH2 0x202 JUMP JUMPDEST PUSH8 0xFFFFFFFFFFFFFFFF DUP2 GT ISZERO PUSH2 0x458 JUMPI PUSH2 0x457 PUSH2 0x20C JUMP JUMPDEST JUMPDEST PUSH2 0x462 DUP3 SLOAD PUSH2 0x266 JUMP JUMPDEST PUSH2 0x46D DUP3 DUP3 DUP6 PUSH2 0x3AD JUMP JUMPDEST PUSH0 PUSH1 0x20 SWAP1 POP PUSH1 0x1F DUP4 GT PUSH1 0x1 DUP2 EQ PUSH2 0x49E JUMPI PUSH0 DUP5 ISZERO PUSH2 0x48C JUMPI DUP3 DUP8 ADD MLOAD SWAP1 POP JUMPDEST PUSH2 0x496 DUP6 DUP3 PUSH2 0x41B JUMP JUMPDEST DUP7 SSTORE POP PUSH2 0x4FD JUMP JUMPDEST PUSH1 0x1F NOT DUP5 AND PUSH2 0x4AC DUP7 PUSH2 0x296 JUMP JUMPDEST PUSH0 JUMPDEST DUP3 DUP2 LT ISZERO PUSH2 0x4D3 JUMPI DUP5 DUP10 ADD MLOAD DUP3 SSTORE PUSH1 0x1 DUP3 ADD SWAP2 POP PUSH1 0x20 DUP6 ADD SWAP5 POP PUSH1 0x20 DUP2 ADD SWAP1 POP PUSH2 0x4AE JUMP JUMPDEST DUP7 DUP4 LT ISZERO PUSH2 0x4F0 JUMPI DUP5 DUP10 ADD MLOAD PUSH2 0x4EC PUSH1 0x1F DUP10 AND DUP3 PUSH2 0x3FF JUMP JUMPDEST DUP4 SSTORE POP JUMPDEST PUSH1 0x1 PUSH1 0x2 DUP9 MUL ADD DUP9 SSTORE POP POP POP JUMPDEST POP POP POP POP POP POP JUMP JUMPDEST PUSH2 0xDB9 DUP1 PUSH2 0x512 PUSH0 CODECOPY PUSH0 RETURN INVALID PUSH1 0x80 PUSH1 0x40 MSTORE PUSH1 0x4 CALLDATASIZE LT PUSH2 0x9B JUMPI PUSH0 CALLDATALOAD PUSH1 0xE0 SHR DUP1 PUSH4 0x8FA8B790 GT PUSH2 0x63 JUMPI DUP1 PUSH4 0x8FA8B790 EQ PUSH2 0x183 JUMPI DUP1 PUSH4 0x91F90157 EQ PUSH2 0x199 JUMPI DUP1 PUSH4 0xC623674F EQ PUSH2 0x1C3 JUMPI DUP1 PUSH4 0xECFC7ECC EQ PUSH2 0x1ED JUMPI DUP1 PUSH4 0xF5B56C56 EQ PUSH2 0x1F7 JUMPI DUP1 PUSH4 0xF77282AB EQ PUSH2 0x221 JUMPI PUSH2 0x9B JUMP JUMPDEST DUP1 PUSH4 0x83C6323 EQ PUSH2 0x9F JUMPI DUP1 PUSH4 0x48CD4CB1 EQ PUSH2 0xC9 JUMPI DUP1 PUSH4 0x62EA82DB EQ PUSH2 0xF3 JUMPI DUP1 PUSH4 0x7FB45099 EQ PUSH2 0x12F JUMPI DUP1 PUSH4 0x8DA5CB5B EQ PUSH2 0x159 JUMPI JUMPDEST PUSH0 PUSH0 REVERT JUMPDEST CALLVALUE DUP1 ISZERO PUSH2 0xAA JUMPI PUSH0 PUSH0 REVERT JUMPDEST POP PUSH2 0xB3 PUSH2 0x237 JUMP JUMPDEST PUSH1 0x40 MLOAD PUSH2 0xC0 SWAP2 SWAP1 PUSH2 0xA9C JUMP JUMPDEST PUSH1 0x40 MLOAD DUP1 SWAP2 SUB SWAP1 RETURN JUMPDEST CALLVALUE DUP1 ISZERO PUSH2 0xD4 JUMPI PUSH0 PUSH0 REVERT JUMPDEST POP PUSH2 0xDD PUSH2 0x23D JUMP JUMPDEST PUSH1 0x40 MLOAD PUSH2 0xEA SWAP2 SWAP1 PUSH2 0xA9C JUMP JUMPDEST PUSH1 0x40 MLOAD DUP1 SWAP2 SUB SWAP1 RETURN JUMPDEST CALLVALUE DUP1 ISZERO PUSH2 0xFE JUMPI PUSH0 PUSH0 REVERT JUMPDEST POP PUSH2 0x119 PUSH1 0x4 DUP1 CALLDATASIZE SUB DUP2 ADD SWAP1 PUSH2 0x114 SWAP2 SWAP1 PUSH2 0xB13 JUMP JUMPDEST PUSH2 0x243 JUMP JUMPDEST PUSH1 0x40 MLOAD PUSH2 0x126 SWAP2 SWAP1 PUSH2 0xA9C JUMP JUMPDEST PUSH1 0x40 MLOAD DUP1 SWAP2 SUB SWAP1 RETURN JUMPDEST CALLVALUE DUP1 ISZERO PUSH2 0x13A JUMPI PUSH0 PUSH0 REVERT JUMPDEST POP PUSH2 0x143 PUSH2 0x258 JUMP JUMPDEST PUSH1 0x40 MLOAD PUSH2 0x150 SWAP2 SWAP1 PUSH2 0xBB1 JUMP JUMPDEST PUSH1 0x40 MLOAD DUP1 SWAP2 SUB SWAP1 RETURN JUMPDEST CALLVALUE DUP1 ISZERO PUSH2 0x164 JUMPI PUSH0 PUSH0 REVERT JUMPDEST POP PUSH2 0x16D PUSH2 0x26A JUMP JUMPDEST PUSH1 0x40 MLOAD PUSH2 0x17A SWAP2 SWAP1 PUSH2 0xBEA JUMP JUMPDEST PUSH1 0x40 MLOAD DUP1 SWAP2 SUB SWAP1 RETURN JUMPDEST CALLVALUE DUP1 ISZERO PUSH2 0x18E JUMPI PUSH0 PUSH0 REVERT JUMPDEST POP PUSH2 0x197 PUSH2 0x28E JUMP JUMPDEST STOP JUMPDEST CALLVALUE DUP1 ISZERO PUSH2 0x1A4 JUMPI PUSH0 PUSH0 REVERT JUMPDEST POP PUSH2 0x1AD PUSH2 0x311 JUMP JUMPDEST PUSH1 0x40 MLOAD PUSH2 0x1BA SWAP2 SWAP1 PUSH2 0xBEA JUMP JUMPDEST PUSH1 0x40 MLOAD DUP1 SWAP2 SUB SWAP1 RETURN JUMPDEST CALLVALUE DUP1 ISZERO PUSH2 0x1CE JUMPI PUSH0 PUSH0 REVERT JUMPDEST POP PUSH2 0x1D7 PUSH2 0x336 JUMP JUMPDEST PUSH1 0x40 MLOAD PUSH2 0x1E4 SWAP2 SWAP1 PUSH2 0xC73 JUMP JUMPDEST PUSH1 0x40 MLOAD DUP1 SWAP2 SUB SWAP1 RETURN JUMPDEST PUSH2 0x1F5 PUSH2 0x3C2 JUMP JUMPDEST STOP JUMPDEST CALLVALUE DUP1 ISZERO PUSH2 0x202 JUMPI PUSH0 PUSH0 REVERT JUMPDEST POP PUSH2 0x20B PUSH2 0x6BF JUMP JUMPDEST PUSH1 0x40 MLOAD PUSH2 0x218 SWAP2 SWAP1 PUSH2 0xA9C JUMP JUMPDEST PUSH1 0x40 MLOAD DUP1 SWAP2 SUB SWAP1 RETURN JUMPDEST CALLVALUE DUP1 ISZERO PUSH2 0x22C JUMPI PUSH0 PUSH0 REVERT JUMPDEST POP PUSH2 0x235 PUSH2 0x6C5 JUMP JUMPDEST STOP JUMPDEST PUSH1 0x2 SLOAD DUP2 JUMP JUMPDEST PUSH1 0x1 SLOAD DUP2 JUMP JUMPDEST PUSH1 0x7 PUSH1 0x20 MSTORE DUP1 PUSH0 MSTORE PUSH1 0x40 PUSH0 KECCAK256 PUSH0 SWAP2 POP SWAP1 POP SLOAD DUP2 JUMP JUMPDEST PUSH1 0x4 PUSH0 SWAP1 SLOAD SWAP1 PUSH2 0x100 EXP SWAP1 DIV PUSH1 0xFF AND DUP2 JUMP JUMPDEST PUSH0 PUSH0 SWAP1 SLOAD SWAP1 PUSH2 0x100 EXP SWAP1 DIV PUSH20 0xFFFFFFFFFFFFFFFFFFFFFFFFFFFFFFFFFFFFFFFF AND DUP2 JUMP JUMPDEST PUSH0 PUSH0 SWAP1 SLOAD SWAP1 PUSH2 0x100 EXP SWAP1 DIV PUSH20 0xFFFFFFFFFFFFFFFFFFFFFFFFFFFFFFFFFFFFFFFF AND PUSH20 0xFFFFFFFFFFFFFFFFFFFFFFFFFFFFFFFFFFFFFFFF AND CALLER PUSH20 0xFFFFFFFFFFFFFFFFFFFFFFFFFFFFFFFFFFFFFFFF AND EQ PUSH2 0x2E5 JUMPI PUSH0 PUSH0 REVERT JUMPDEST PUSH1 0x3 PUSH1 0x4 PUSH0 PUSH2 0x100 EXP DUP2 SLOAD DUP2 PUSH1 0xFF MUL NOT AND SWAP1 DUP4 PUSH1 0x3 DUP2 GT ISZERO PUSH2 0x30A JUMPI PUSH2 0x309 PUSH2 0xB3E JUMP JUMPDEST JUMPDEST MUL OR SWAP1 SSTORE POP JUMP JUMPDEST PUSH1 0x6 PUSH0 SWAP1 SLOAD SWAP1 PUSH2 0x100 EXP SWAP1 DIV PUSH20 0xFFFFFFFFFFFFFFFFFFFFFFFFFFFFFFFFFFFFFFFF AND DUP2 JUMP JUMPDEST PUSH1 0x3 DUP1 SLOAD PUSH2 0x343 SWAP1 PUSH2 0xCC0 JUMP JUMPDEST DUP1 PUSH1 0x1F ADD PUSH1 0x20 DUP1 SWAP2 DIV MUL PUSH1 0x20 ADD PUSH1 0x40 MLOAD SWAP1 DUP2 ADD PUSH1 0x40 MSTORE DUP1 SWAP3 SWAP2 SWAP1 DUP2 DUP2 MSTORE PUSH1 0x20 ADD DUP3 DUP1 SLOAD PUSH2 0x36F SWAP1 PUSH2 0xCC0 JUMP JUMPDEST DUP1 ISZERO PUSH2 0x3BA JUMPI DUP1 PUSH1 0x1F LT PUSH2 0x391 JUMPI PUSH2 0x100 DUP1 DUP4 SLOAD DIV MUL DUP4 MSTORE SWAP2 PUSH1 0x20 ADD SWAP2 PUSH2 0x3BA JUMP JUMPDEST DUP3 ADD SWAP2 SWAP1 PUSH0 MSTORE PUSH1 0x20 PUSH0 KECCAK256 SWAP1 JUMPDEST DUP2 SLOAD DUP2 MSTORE SWAP1 PUSH1 0x1 ADD SWAP1 PUSH1 0x20 ADD DUP1 DUP4 GT PUSH2 0x39D JUMPI DUP3 SWAP1 SUB PUSH1 0x1F AND DUP3 ADD SWAP2 JUMPDEST POP POP POP POP POP DUP2 JUMP JUMPDEST PUSH0 PUSH0 SWAP1 SLOAD SWAP1 PUSH2 0x100 EXP SWAP1 DIV PUSH20 0xFFFFFFFFFFFFFFFFFFFFFFFFFFFFFFFFFFFFFFFF AND PUSH20 0xFFFFFFFFFFFFFFFFFFFFFFFFFFFFFFFFFFFFFFFF AND CALLER PUSH20 0xFFFFFFFFFFFFFFFFFFFFFFFFFFFFFFFFFFFFFFFF AND SUB PUSH2 0x419 JUMPI PUSH0 PUSH0 REVERT JUMPDEST PUSH1 0x1 SLOAD NUMBER LT ISZERO PUSH2 0x427 JUMPI PUSH0 PUSH0 REVERT JUMPDEST PUSH1 0x2 SLOAD NUMBER GT ISZERO PUSH2 0x435 JUMPI PUSH0 PUSH0 REVERT JUMPDEST PUSH1 0x1 PUSH1 0x3 DUP2 GT ISZERO PUSH2 0x449 JUMPI PUSH2 0x448 PUSH2 0xB3E JUMP JUMPDEST JUMPDEST PUSH1 0x4 PUSH0 SWAP1 SLOAD SWAP1 PUSH2 0x100 EXP SWAP1 DIV PUSH1 0xFF AND PUSH1 0x3 DUP2 GT ISZERO PUSH2 0x46A JUMPI PUSH2 0x469 PUSH2 0xB3E JUMP JUMPDEST JUMPDEST EQ PUSH2 0x473 JUMPI PUSH0 PUSH0 REVERT JUMPDEST PUSH1 0x64 CALLVALUE LT ISZERO PUSH2 0x480 JUMPI PUSH0 PUSH0 REVERT JUMPDEST PUSH0 CALLVALUE PUSH1 0x7 PUSH0 CALLER PUSH20 0xFFFFFFFFFFFFFFFFFFFFFFFFFFFFFFFFFFFFFFFF AND PUSH20 0xFFFFFFFFFFFFFFFFFFFFFFFFFFFFFFFFFFFFFFFF AND DUP2 MSTORE PUSH1 0x20 ADD SWAP1 DUP2 MSTORE PUSH1 0x20 ADD PUSH0 KECCAK256 SLOAD PUSH2 0x4CA SWAP2 SWAP1 PUSH2 0xD1D JUMP JUMPDEST SWAP1 POP PUSH1 0x5 SLOAD DUP2 GT PUSH2 0x4D9 JUMPI PUSH0 PUSH0 REVERT JUMPDEST DUP1 PUSH1 0x7 PUSH0 CALLER PUSH20 0xFFFFFFFFFFFFFFFFFFFFFFFFFFFFFFFFFFFFFFFF AND PUSH20 0xFFFFFFFFFFFFFFFFFFFFFFFFFFFFFFFFFFFFFFFF AND DUP2 MSTORE PUSH1 0x20 ADD SWAP1 DUP2 MSTORE PUSH1 0x20 ADD PUSH0 KECCAK256 DUP2 SWAP1 SSTORE POP PUSH1 0x7 PUSH0 PUSH1 0x6 PUSH0 SWAP1 SLOAD SWAP1 PUSH2 0x100 EXP SWAP1 DIV PUSH20 0xFFFFFFFFFFFFFFFFFFFFFFFFFFFFFFFFFFFFFFFF AND PUSH20 0xFFFFFFFFFFFFFFFFFFFFFFFFFFFFFFFFFFFFFFFF AND PUSH20 0xFFFFFFFFFFFFFFFFFFFFFFFFFFFFFFFFFFFFFFFF AND DUP2 MSTORE PUSH1 0x20 ADD SWAP1 DUP2 MSTORE PUSH1 0x20 ADD PUSH0 KECCAK256 SLOAD DUP2 GT PUSH2 0x600 JUMPI PUSH2 0x5F5 PUSH1 0x8 SLOAD DUP3 PUSH2 0x591 SWAP2 SWAP1 PUSH2 0xD1D JUMP JUMPDEST PUSH1 0x7 PUSH0 PUSH1 0x6 PUSH0 SWAP1 SLOAD SWAP1 PUSH2 0x100 EXP SWAP1 DIV PUSH20 0xFFFFFFFFFFFFFFFFFFFFFFFFFFFFFFFFFFFFFFFF AND PUSH20 0xFFFFFFFFFFFFFFFFFFFFFFFFFFFFFFFFFFFFFFFF AND PUSH20 0xFFFFFFFFFFFFFFFFFFFFFFFFFFFFFFFFFFFFFFFF AND DUP2 MSTORE PUSH1 0x20 ADD SWAP1 DUP2 MSTORE PUSH1 0x20 ADD PUSH0 KECCAK256 SLOAD PUSH2 0xA6A JUMP JUMPDEST PUSH1 0x5 DUP2 SWAP1 SSTORE POP PUSH2 0x6BC JUMP JUMPDEST PUSH2 0x675 DUP2 PUSH1 0x8 SLOAD PUSH1 0x7 PUSH0 PUSH1 0x6 PUSH0 SWAP1 SLOAD SWAP1 PUSH2 0x100 EXP SWAP1 DIV PUSH20 0xFFFFFFFFFFFFFFFFFFFFFFFFFFFFFFFFFFFFFFFF AND PUSH20 0xFFFFFFFFFFFFFFFFFFFFFFFFFFFFFFFFFFFFFFFF AND PUSH20 0xFFFFFFFFFFFFFFFFFFFFFFFFFFFFFFFFFFFFFFFF AND DUP2 MSTORE PUSH1 0x20 ADD SWAP1 DUP2 MSTORE PUSH1 0x20 ADD PUSH0 KECCAK256 SLOAD PUSH2 0x670 SWAP2 SWAP1 PUSH2 0xD1D JUMP JUMPDEST PUSH2 0xA6A JUMP JUMPDEST PUSH1 0x5 DUP2 SWAP1 SSTORE POP CALLER PUSH1 0x6 PUSH0 PUSH2 0x100 EXP DUP2 SLOAD DUP2 PUSH20 0xFFFFFFFFFFFFFFFFFFFFFFFFFFFFFFFFFFFFFFFF MUL NOT AND SWAP1 DUP4 PUSH20 0xFFFFFFFFFFFFFFFFFFFFFFFFFFFFFFFFFFFFFFFF AND MUL OR SWAP1 SSTORE POP JUMPDEST POP JUMP JUMPDEST PUSH1 0x5 SLOAD DUP2 JUMP JUMPDEST PUSH1 0x3 DUP1 DUP2 GT ISZERO PUSH2 0x6D8 JUMPI PUSH2 0x6D7 PUSH2 0xB3E JUMP JUMPDEST JUMPDEST PUSH1 0x4 PUSH0 SWAP1 SLOAD SWAP1 PUSH2 0x100 EXP SWAP1 DIV PUSH1 0xFF AND PUSH1 0x3 DUP2 GT ISZERO PUSH2 0x6F9 JUMPI PUSH2 0x6F8 PUSH2 0xB3E JUMP JUMPDEST JUMPDEST EQ DUP1 PUSH2 0x706 JUMPI POP PUSH1 0x2 SLOAD NUMBER GT JUMPDEST PUSH2 0x70E JUMPI PUSH0 PUSH0 REVERT JUMPDEST PUSH0 PUSH0 SWAP1 SLOAD SWAP1 PUSH2 0x100 EXP SWAP1 DIV PUSH20 0xFFFFFFFFFFFFFFFFFFFFFFFFFFFFFFFFFFFFFFFF AND PUSH20 0xFFFFFFFFFFFFFFFFFFFFFFFFFFFFFFFFFFFFFFFF AND CALLER PUSH20 0xFFFFFFFFFFFFFFFFFFFFFFFFFFFFFFFFFFFFFFFF AND EQ DUP1 PUSH2 0x7A4 JUMPI POP PUSH0 PUSH1 0x7 PUSH0 CALLER PUSH20 0xFFFFFFFFFFFFFFFFFFFFFFFFFFFFFFFFFFFFFFFF AND PUSH20 0xFFFFFFFFFFFFFFFFFFFFFFFFFFFFFFFFFFFFFFFF AND DUP2 MSTORE PUSH1 0x20 ADD SWAP1 DUP2 MSTORE PUSH1 0x20 ADD PUSH0 KECCAK256 SLOAD GT JUMPDEST PUSH2 0x7AC JUMPI PUSH0 PUSH0 REVERT JUMPDEST PUSH0 PUSH0 PUSH1 0x3 DUP1 DUP2 GT ISZERO PUSH2 0x7C1 JUMPI PUSH2 0x7C0 PUSH2 0xB3E JUMP JUMPDEST JUMPDEST PUSH1 0x4 PUSH0 SWAP1 SLOAD SWAP1 PUSH2 0x100 EXP SWAP1 DIV PUSH1 0xFF AND PUSH1 0x3 DUP2 GT ISZERO PUSH2 0x7E2 JUMPI PUSH2 0x7E1 PUSH2 0xB3E JUMP JUMPDEST JUMPDEST SUB PUSH2 0x82F JUMPI CALLER SWAP2 POP PUSH1 0x7 PUSH0 CALLER PUSH20 0xFFFFFFFFFFFFFFFFFFFFFFFFFFFFFFFFFFFFFFFF AND PUSH20 0xFFFFFFFFFFFFFFFFFFFFFFFFFFFFFFFFFFFFFFFF AND DUP2 MSTORE PUSH1 0x20 ADD SWAP1 DUP2 MSTORE PUSH1 0x20 ADD PUSH0 KECCAK256 SLOAD SWAP1 POP PUSH2 0x9E0 JUMP JUMPDEST PUSH0 PUSH0 SWAP1 SLOAD SWAP1 PUSH2 0x100 EXP SWAP1 DIV PUSH20 0xFFFFFFFFFFFFFFFFFFFFFFFFFFFFFFFFFFFFFFFF AND PUSH20 0xFFFFFFFFFFFFFFFFFFFFFFFFFFFFFFFFFFFFFFFF AND CALLER PUSH20 0xFFFFFFFFFFFFFFFFFFFFFFFFFFFFFFFFFFFFFFFF AND SUB PUSH2 0x8AF JUMPI PUSH0 PUSH0 SWAP1 SLOAD SWAP1 PUSH2 0x100 EXP SWAP1 DIV PUSH20 0xFFFFFFFFFFFFFFFFFFFFFFFFFFFFFFFFFFFFFFFF AND SWAP2 POP PUSH1 0x5 SLOAD SWAP1 POP PUSH2 0x9DF JUMP JUMPDEST PUSH1 0x6 PUSH0 SWAP1 SLOAD SWAP1 PUSH2 0x100 EXP SWAP1 DIV PUSH20 0xFFFFFFFFFFFFFFFFFFFFFFFFFFFFFFFFFFFFFFFF AND PUSH20 0xFFFFFFFFFFFFFFFFFFFFFFFFFFFFFFFFFFFFFFFF AND CALLER PUSH20 0xFFFFFFFFFFFFFFFFFFFFFFFFFFFFFFFFFFFFFFFF AND SUB PUSH2 0x99A JUMPI PUSH1 0x6 PUSH0 SWAP1 SLOAD SWAP1 PUSH2 0x100 EXP SWAP1 DIV PUSH20 0xFFFFFFFFFFFFFFFFFFFFFFFFFFFFFFFFFFFFFFFF AND SWAP2 POP PUSH1 0x5 SLOAD PUSH1 0x7 PUSH0 PUSH1 0x6 PUSH0 SWAP1 SLOAD SWAP1 PUSH2 0x100 EXP SWAP1 DIV PUSH20 0xFFFFFFFFFFFFFFFFFFFFFFFFFFFFFFFFFFFFFFFF AND PUSH20 0xFFFFFFFFFFFFFFFFFFFFFFFFFFFFFFFFFFFFFFFF AND PUSH20 0xFFFFFFFFFFFFFFFFFFFFFFFFFFFFFFFFFFFFFFFF AND DUP2 MSTORE PUSH1 0x20 ADD SWAP1 DUP2 MSTORE PUSH1 0x20 ADD PUSH0 KECCAK256 SLOAD PUSH2 0x993 SWAP2 SWAP1 PUSH2 0xD50 JUMP JUMPDEST SWAP1 POP PUSH2 0x9DE JUMP JUMPDEST CALLER SWAP2 POP PUSH1 0x7 PUSH0 CALLER PUSH20 0xFFFFFFFFFFFFFFFFFFFFFFFFFFFFFFFFFFFFFFFF AND PUSH20 0xFFFFFFFFFFFFFFFFFFFFFFFFFFFFFFFFFFFFFFFF AND DUP2 MSTORE PUSH1 0x20 ADD SWAP1 DUP2 MSTORE PUSH1 0x20 ADD PUSH0 KECCAK256 SLOAD SWAP1 POP JUMPDEST JUMPDEST JUMPDEST PUSH0 PUSH1 0x7 PUSH0 DUP5 PUSH20 0xFFFFFFFFFFFFFFFFFFFFFFFFFFFFFFFFFFFFFFFF AND PUSH20 0xFFFFFFFFFFFFFFFFFFFFFFFFFFFFFFFFFFFFFFFF AND DUP2 MSTORE PUSH1 0x20 ADD SWAP1 DUP2 MSTORE PUSH1 0x20 ADD PUSH0 KECCAK256 DUP2 SWAP1 SSTORE POP DUP2 PUSH20 0xFFFFFFFFFFFFFFFFFFFFFFFFFFFFFFFFFFFFFFFF AND PUSH2 0x8FC DUP3 SWAP1 DUP2 ISZERO MUL SWAP1 PUSH1 0x40 MLOAD PUSH0 PUSH1 0x40 MLOAD DUP1 DUP4 SUB DUP2 DUP6 DUP9 DUP9 CALL SWAP4 POP POP POP POP ISZERO DUP1 ISZERO PUSH2 0xA65 JUMPI RETURNDATASIZE PUSH0 PUSH0 RETURNDATACOPY RETURNDATASIZE PUSH0 REVERT JUMPDEST POP POP POP JUMP JUMPDEST PUSH0 DUP2 DUP4 GT PUSH2 0xA7A JUMPI DUP2 SWAP1 POP PUSH2 0xA7E JUMP JUMPDEST DUP3 SWAP1 POP JUMPDEST SWAP3 SWAP2 POP POP JUMP JUMPDEST PUSH0 DUP2 SWAP1 POP SWAP2 SWAP1 POP JUMP JUMPDEST PUSH2 0xA96 DUP2 PUSH2 0xA84 JUMP JUMPDEST DUP3 MSTORE POP POP JUMP JUMPDEST PUSH0 PUSH1 0x20 DUP3 ADD SWAP1 POP PUSH2 0xAAF PUSH0 DUP4 ADD DUP5 PUSH2 0xA8D JUMP JUMPDEST SWAP3 SWAP2 POP POP JUMP JUMPDEST PUSH0 PUSH0 REVERT JUMPDEST PUSH0 PUSH20 0xFFFFFFFFFFFFFFFFFFFFFFFFFFFFFFFFFFFFFFFF DUP3 AND SWAP1 POP SWAP2 SWAP1 POP JUMP JUMPDEST PUSH0 PUSH2 0xAE2 DUP3 PUSH2 0xAB9 JUMP JUMPDEST SWAP1 POP SWAP2 SWAP1 POP JUMP JUMPDEST PUSH2 0xAF2 DUP2 PUSH2 0xAD8 JUMP JUMPDEST DUP2 EQ PUSH2 0xAFC JUMPI PUSH0 PUSH0 REVERT JUMPDEST POP JUMP JUMPDEST PUSH0 DUP2 CALLDATALOAD SWAP1 POP PUSH2 0xB0D DUP2 PUSH2 0xAE9 JUMP JUMPDEST SWAP3 SWAP2 POP POP JUMP JUMPDEST PUSH0 PUSH1 0x20 DUP3 DUP5 SUB SLT ISZERO PUSH2 0xB28 JUMPI PUSH2 0xB27 PUSH2 0xAB5 JUMP JUMPDEST JUMPDEST PUSH0 PUSH2 0xB35 DUP5 DUP3 DUP6 ADD PUSH2 0xAFF JUMP JUMPDEST SWAP2 POP POP SWAP3 SWAP2 POP POP JUMP JUMPDEST PUSH32 0x4E487B7100000000000000000000000000000000000000000000000000000000 PUSH0 MSTORE PUSH1 0x21 PUSH1 0x4 MSTORE PUSH1 0x24 PUSH0 REVERT JUMPDEST PUSH1 0x4 DUP2 LT PUSH2 0xB7C JUMPI PUSH2 0xB7B PUSH2 0xB3E JUMP JUMPDEST JUMPDEST POP JUMP JUMPDEST PUSH0 DUP2 SWAP1 POP PUSH2 0xB8C DUP3 PUSH2 0xB6B JUMP JUMPDEST SWAP2 SWAP1 POP JUMP JUMPDEST PUSH0 PUSH2 0xB9B DUP3 PUSH2 0xB7F JUMP JUMPDEST SWAP1 POP SWAP2 SWAP1 POP JUMP JUMPDEST PUSH2 0xBAB DUP2 PUSH2 0xB91 JUMP JUMPDEST DUP3 MSTORE POP POP JUMP JUMPDEST PUSH0 PUSH1 0x20 DUP3 ADD SWAP1 POP PUSH2 0xBC4 PUSH0 DUP4 ADD DUP5 PUSH2 0xBA2 JUMP JUMPDEST SWAP3 SWAP2 POP POP JUMP JUMPDEST PUSH0 PUSH2 0xBD4 DUP3 PUSH2 0xAB9 JUMP JUMPDEST SWAP1 POP SWAP2 SWAP1 POP JUMP JUMPDEST PUSH2 0xBE4 DUP2 PUSH2 0xBCA JUMP JUMPDEST DUP3 MSTORE POP POP JUMP JUMPDEST PUSH0 PUSH1 0x20 DUP3 ADD SWAP1 POP PUSH2 0xBFD PUSH0 DUP4 ADD DUP5 PUSH2 0xBDB JUMP JUMPDEST SWAP3 SWAP2 POP POP JUMP JUMPDEST PUSH0 DUP2 MLOAD SWAP1 POP SWAP2 SWAP1 POP JUMP JUMPDEST PUSH0 DUP3 DUP3 MSTORE PUSH1 0x20 DUP3 ADD SWAP1 POP SWAP3 SWAP2 POP POP JUMP JUMPDEST DUP3 DUP2 DUP4 MCOPY PUSH0 DUP4 DUP4 ADD MSTORE POP POP POP JUMP JUMPDEST PUSH0 PUSH1 0x1F NOT PUSH1 0x1F DUP4 ADD AND SWAP1 POP SWAP2 SWAP1 POP JUMP JUMPDEST PUSH0 PUSH2 0xC45 DUP3 PUSH2 0xC03 JUMP JUMPDEST PUSH2 0xC4F DUP2 DUP6 PUSH2 0xC0D JUMP JUMPDEST SWAP4 POP PUSH2 0xC5F DUP2 DUP6 PUSH1 0x20 DUP7 ADD PUSH2 0xC1D JUMP JUMPDEST PUSH2 0xC68 DUP2 PUSH2 0xC2B JUMP JUMPDEST DUP5 ADD SWAP2 POP POP SWAP3 SWAP2 POP POP JUMP JUMPDEST PUSH0 PUSH1 0x20 DUP3 ADD SWAP1 POP DUP2 DUP2 SUB PUSH0 DUP4 ADD MSTORE PUSH2 0xC8B DUP2 DUP5 PUSH2 0xC3B JUMP JUMPDEST SWAP1 POP SWAP3 SWAP2 POP POP JUMP JUMPDEST PUSH32 0x4E487B7100000000000000000000000000000000000000000000000000000000 PUSH0 MSTORE PUSH1 0x22 PUSH1 0x4 MSTORE PUSH1 0x24 PUSH0 REVERT JUMPDEST PUSH0 PUSH1 0x2 DUP3 DIV SWAP1 POP PUSH1 0x1 DUP3 AND DUP1 PUSH2 0xCD7 JUMPI PUSH1 0x7F DUP3 AND SWAP2 POP JUMPDEST PUSH1 0x20 DUP3 LT DUP2 SUB PUSH2 0xCEA JUMPI PUSH2 0xCE9 PUSH2 0xC93 JUMP JUMPDEST JUMPDEST POP SWAP2 SWAP1 POP JUMP JUMPDEST PUSH32 0x4E487B7100000000000000000000000000000000000000000000000000000000 PUSH0 MSTORE PUSH1 0x11 PUSH1 0x4 MSTORE PUSH1 0x24 PUSH0 REVERT JUMPDEST PUSH0 PUSH2 0xD27 DUP3 PUSH2 0xA84 JUMP JUMPDEST SWAP2 POP PUSH2 0xD32 DUP4 PUSH2 0xA84 JUMP JUMPDEST SWAP3 POP DUP3 DUP3 ADD SWAP1 POP DUP1 DUP3 GT ISZERO PUSH2 0xD4A JUMPI PUSH2 0xD49 PUSH2 0xCF0 JUMP JUMPDEST JUMPDEST SWAP3 SWAP2 POP POP JUMP JUMPDEST PUSH0 PUSH2 0xD5A DUP3 PUSH2 0xA84 JUMP JUMPDEST SWAP2 POP PUSH2 0xD65 DUP4 PUSH2 0xA84 JUMP JUMPDEST SWAP3 POP DUP3 DUP3 SUB SWAP1 POP DUP2 DUP2 GT ISZERO PUSH2 0xD7D JUMPI PUSH2 0xD7C PUSH2 0xCF0 JUMP JUMPDEST JUMPDEST SWAP3 SWAP2 POP POP JUMP INVALID LOG2 PUSH5 0x6970667358 0x22 SLT KECCAK256 0xAC 0xB3 0x28 0xF PUSH24 0x5DB98E2489125CEBC2C5D968707590D476412FD44767179D 0xB9 LT 0xC PUSH5 0x736F6C6343 STOP ADDMOD SHR STOP CALLER "
				},
				"gasEstimates": {
					"creation": {
						"codeDepositCost": "702600",
						"executionCost": "infinite",
						"totalCost": "infinite"
					},
					"external": {
						"auctionState()": "2621",
						"bids(address)": "2847",
						"cancelAuction()": "26597",
						"endBlock()": "2426",
						"finalizeAuction()": "infinite",
						"highestBidder()": "2530",
						"highestBindingBid()": "2513",
						"ipfsHash()": "infinite",
						"owner()": "2596",
						"placeBid()": "infinite",
						"startBlock()": "2448"
					},
					"internal": {
						"min(uint256,uint256)": "63"
					}
				},
				"methodIdentifiers": {
					"auctionState()": "7fb45099",
					"bids(address)": "62ea82db",
					"cancelAuction()": "8fa8b790",
					"endBlock()": "083c6323",
					"finalizeAuction()": "f77282ab",
					"highestBidder()": "91f90157",
					"highestBindingBid()": "f5b56c56",
					"ipfsHash()": "c623674f",
					"owner()": "8da5cb5b",
					"placeBid()": "ecfc7ecc",
					"startBlock()": "48cd4cb1"
				}
			},
			"storageLayout": {
				"storage": [
					{
						"astId": 28,
						"contract": "src/auction.sol:Auction",
						"label": "owner",
						"offset": 0,
						"slot": "0",
						"type": "t_address_payable"
					},
					{
						"astId": 30,
						"contract": "src/auction.sol:Auction",
						"label": "startBlock",
						"offset": 0,
						"slot": "1",
						"type": "t_uint256"
					},
					{
						"astId": 32,
						"contract": "src/auction.sol:Auction",
						"label": "endBlock",
						"offset": 0,
						"slot": "2",
						"type": "t_uint256"
					},
					{
						"astId": 34,
						"contract": "src/auction.sol:Auction",
						"label": "ipfsHash",
						"offset": 0,
						"slot": "3",
						"type": "t_string_storage"
					},
					{
						"astId": 42,
						"contract": "src/auction.sol:Auction",
						"label": "auctionState",
						"offset": 0,
						"slot": "4",
						"type": "t_enum(State)39"
					},
					{
						"astId": 44,
						"contract": "src/auction.sol:Auction",
						"label": "highestBindingBid",
						"offset": 0,
						"slot": "5",
						"type": "t_uint256"
					},
					{
						"astId": 46,
						"contract": "src/auction.sol:Auction",
						"label": "highestBidder",
						"offset": 0,
						"slot": "6",
						"type": "t_address_payable"
					},
					{
						"astId": 50,
						"contract": "src/auction.sol:Auction",
						"label": "bids",
						"offset": 0,
						"slot": "7",
						"type": "t_mapping(t_address,t_uint256)"
					},
					{
						"astId": 52,
						"contract": "src/auction.sol:Auction",
						"label": "bidIncrement",
						"offset": 0,
						"slot": "8",
						"type": "t_uint256"
					}
				],
				"types": {
					"t_address": {
						"encoding": "inplace",
						"label": "address",
						"numberOfBytes": "20"
					},
					"t_address_payable": {
						"encoding": "inplace",
						"label": "address payable",
						"numberOfBytes": "20"
					},
					"t_enum(State)39": {
						"encoding": "inplace",
						"label": "enum Auction.State",
						"numberOfBytes": "1"
					},
					"t_mapping(t_address,t_uint256)": {
						"encoding": "mapping",
						"key": "t_address",
						"label": "mapping(address => uint256)",
						"numberOfBytes": "32",
						"value": "t_uint256"
					},
					"t_string_storage": {
						"encoding": "bytes",
						"label": "string",
						"numberOfBytes": "32"
					},
					"t_uint256": {
						"encoding": "inplace",
						"label": "uint256",
						"numberOfBytes": "32"
					}
				}
			},
			"userdoc": {
				"kind": "user",
				"methods": {},
				"version": 1
			}
		}
	}
}