{
	"src/auction.sol": {
		"Auction": {
			"abi": [
				{
					"inputs": [],
					"stateMutability": "nonpayable",
					"type": "constructor"
				},
				{
					"inputs": [],
					"name": "auctionState",
					"outputs": [
						{
							"internalType": "enum Auction.State",
							"name": "",
							"type": "uint8"
						}
					],
					"stateMutability": "view",
					"type": "function"
				},
				{
					"inputs": [
						{
							"internalType": "address",
							"name": "",
							"type": "address"
						}
					],
					"name": "bids",
					"outputs": [
						{
							"internalType": "uint256",
							"name": "",
							"type": "uint256"
						}
					],
					"stateMutability": "view",
					"type": "function"
				},
				{
					"inputs": [],
					"name": "cancelAuction",
					"outputs": [],
					"stateMutability": "nonpayable",
					"type": "function"
				},
				{
					"inputs": [],
					"name": "endBlock",
					"outputs": [
						{
							"internalType": "uint256",
							"name": "",
							"type": "uint256"
						}
					],
					"stateMutability": "view",
					"type": "function"
				},
				{
					"inputs": [],
					"name": "highestBidder",
					"outputs": [
						{
							"internalType": "address payable",
							"name": "",
							"type": "address"
						}
					],
					"stateMutability": "view",
					"type": "function"
				},
				{
					"inputs": [],
					"name": "highestBindingBid",
					"outputs": [
						{
							"internalType": "uint256",
							"name": "",
							"type": "uint256"
						}
					],
					"stateMutability": "view",
					"type": "function"
				},
				{
					"inputs": [],
					"name": "ipfsHash",
					"outputs": [
						{
							"internalType": "string",
							"name": "",
							"type": "string"
						}
					],
					"stateMutability": "view",
					"type": "function"
				},
				{
					"inputs": [],
					"name": "owner",
					"outputs": [
						{
							"internalType": "address payable",
							"name": "",
							"type": "address"
						}
					],
					"stateMutability": "view",
					"type": "function"
				},
				{
					"inputs": [],
					"name": "placeBid",
					"outputs": [],
					"stateMutability": "payable",
					"type": "function"
				},
				{
					"inputs": [],
					"name": "startBlock",
					"outputs": [
						{
							"internalType": "uint256",
							"name": "",
							"type": "uint256"
						}
					],
					"stateMutability": "view",
					"type": "function"
				}
			],
			"devdoc": {
				"kind": "dev",
				"methods": {},
				"version": 1
			},
			"evm": {
				"assembly": "    /* \"src/auction.sol\":57:2377  contract Auction{... */\n  mstore(0x40, 0x80)\n    /* \"src/auction.sol\":563:1003  constructor(){... */\n  callvalue\n  dup1\n  iszero\n  tag_1\n  jumpi\n  revert(0x00, 0x00)\ntag_1:\n  pop\n    /* \"src/auction.sol\":602:612  msg.sender */\n  caller\n    /* \"src/auction.sol\":586:591  owner */\n  0x00\n  0x00\n    /* \"src/auction.sol\":586:613  owner = payable(msg.sender) */\n  0x0100\n  exp\n  dup2\n  sload\n  dup2\n  0xffffffffffffffffffffffffffffffffffffffff\n  mul\n  not\n  and\n  swap1\n  dup4\n  0xffffffffffffffffffffffffffffffffffffffff\n  and\n  mul\n  or\n  swap1\n  sstore\n  pop\n    /* \"src/auction.sol\":638:651  State.Running */\n  0x01\n    /* \"src/auction.sol\":623:635  auctionState */\n  0x04\n  0x00\n    /* \"src/auction.sol\":623:651  auctionState = State.Running */\n  0x0100\n  exp\n  dup2\n  sload\n  dup2\n  0xff\n  mul\n  not\n  and\n  swap1\n  dup4\n  0x03\n  dup2\n  gt\n  iszero\n  tag_4\n  jumpi\n  tag_5\n  tag_6\n  jump\t// in\ntag_5:\ntag_4:\n  mul\n  or\n  swap1\n  sstore\n  pop\n    /* \"src/auction.sol\":893:905  block.number */\n  number\n    /* \"src/auction.sol\":880:890  startBlock */\n  0x01\n    /* \"src/auction.sol\":880:905  startBlock = block.number */\n  dup2\n  swap1\n  sstore\n  pop\n    /* \"src/auction.sol\":939:944  40320 */\n  0x9d80\n    /* \"src/auction.sol\":926:936  startBlock */\n  sload(0x01)\n    /* \"src/auction.sol\":926:944  startBlock + 40320 */\n  tag_7\n  swap2\n  swap1\n  tag_8\n  jump\t// in\ntag_7:\n    /* \"src/auction.sol\":915:923  endBlock */\n  0x02\n    /* \"src/auction.sol\":915:944  endBlock = startBlock + 40320 */\n  dup2\n  swap1\n  sstore\n  pop\n    /* \"src/auction.sol\":955:968  ipfsHash = \"\" */\n  mload(0x40)\n  dup1\n  0x20\n  add\n  0x40\n  mstore\n  dup1\n  0x00\n  dup2\n  mstore\n  pop\n    /* \"src/auction.sol\":955:963  ipfsHash */\n  0x03\n    /* \"src/auction.sol\":955:968  ipfsHash = \"\" */\n  swap1\n  dup2\n  tag_9\n  swap2\n  swap1\n  tag_10\n  jump\t// in\ntag_9:\n  pop\n    /* \"src/auction.sol\":993:996  100 */\n  0x64\n    /* \"src/auction.sol\":978:990  bidIncrement */\n  0x08\n    /* \"src/auction.sol\":978:996  bidIncrement = 100 */\n  dup2\n  swap1\n  sstore\n  pop\n    /* \"src/auction.sol\":57:2377  contract Auction{... */\n  jump(tag_11)\n    /* \"#utility.yul\":7:187   */\ntag_6:\n    /* \"#utility.yul\":55:132   */\n  0x4e487b7100000000000000000000000000000000000000000000000000000000\n    /* \"#utility.yul\":52:53   */\n  0x00\n    /* \"#utility.yul\":45:133   */\n  mstore\n    /* \"#utility.yul\":152:156   */\n  0x21\n    /* \"#utility.yul\":149:150   */\n  0x04\n    /* \"#utility.yul\":142:157   */\n  mstore\n    /* \"#utility.yul\":176:180   */\n  0x24\n    /* \"#utility.yul\":173:174   */\n  0x00\n    /* \"#utility.yul\":166:181   */\n  revert\n    /* \"#utility.yul\":193:270   */\ntag_12:\n    /* \"#utility.yul\":230:237   */\n  0x00\n    /* \"#utility.yul\":259:264   */\n  dup2\n    /* \"#utility.yul\":248:264   */\n  swap1\n  pop\n    /* \"#utility.yul\":193:270   */\n  swap2\n  swap1\n  pop\n  jump\t// out\n    /* \"#utility.yul\":276:456   */\ntag_13:\n    /* \"#utility.yul\":324:401   */\n  0x4e487b7100000000000000000000000000000000000000000000000000000000\n    /* \"#utility.yul\":321:322   */\n  0x00\n    /* \"#utility.yul\":314:402   */\n  mstore\n    /* \"#utility.yul\":421:425   */\n  0x11\n    /* \"#utility.yul\":418:419   */\n  0x04\n    /* \"#utility.yul\":411:426   */\n  mstore\n    /* \"#utility.yul\":445:449   */\n  0x24\n    /* \"#utility.yul\":442:443   */\n  0x00\n    /* \"#utility.yul\":435:450   */\n  revert\n    /* \"#utility.yul\":462:653   */\ntag_8:\n    /* \"#utility.yul\":502:505   */\n  0x00\n    /* \"#utility.yul\":521:541   */\n  tag_38\n    /* \"#utility.yul\":539:540   */\n  dup3\n    /* \"#utility.yul\":521:541   */\n  tag_12\n  jump\t// in\ntag_38:\n    /* \"#utility.yul\":516:541   */\n  swap2\n  pop\n    /* \"#utility.yul\":555:575   */\n  tag_39\n    /* \"#utility.yul\":573:574   */\n  dup4\n    /* \"#utility.yul\":555:575   */\n  tag_12\n  jump\t// in\ntag_39:\n    /* \"#utility.yul\":550:575   */\n  swap3\n  pop\n    /* \"#utility.yul\":598:599   */\n  dup3\n    /* \"#utility.yul\":595:596   */\n  dup3\n    /* \"#utility.yul\":591:600   */\n  add\n    /* \"#utility.yul\":584:600   */\n  swap1\n  pop\n    /* \"#utility.yul\":619:622   */\n  dup1\n    /* \"#utility.yul\":616:617   */\n  dup3\n    /* \"#utility.yul\":613:623   */\n  gt\n    /* \"#utility.yul\":610:646   */\n  iszero\n  tag_40\n  jumpi\n    /* \"#utility.yul\":626:644   */\n  tag_41\n  tag_13\n  jump\t// in\ntag_41:\n    /* \"#utility.yul\":610:646   */\ntag_40:\n    /* \"#utility.yul\":462:653   */\n  swap3\n  swap2\n  pop\n  pop\n  jump\t// out\n    /* \"#utility.yul\":659:758   */\ntag_14:\n    /* \"#utility.yul\":711:717   */\n  0x00\n    /* \"#utility.yul\":745:750   */\n  dup2\n    /* \"#utility.yul\":739:751   */\n  mload\n    /* \"#utility.yul\":729:751   */\n  swap1\n  pop\n    /* \"#utility.yul\":659:758   */\n  swap2\n  swap1\n  pop\n  jump\t// out\n    /* \"#utility.yul\":764:944   */\ntag_15:\n    /* \"#utility.yul\":812:889   */\n  0x4e487b7100000000000000000000000000000000000000000000000000000000\n    /* \"#utility.yul\":809:810   */\n  0x00\n    /* \"#utility.yul\":802:890   */\n  mstore\n    /* \"#utility.yul\":909:913   */\n  0x41\n    /* \"#utility.yul\":906:907   */\n  0x04\n    /* \"#utility.yul\":899:914   */\n  mstore\n    /* \"#utility.yul\":933:937   */\n  0x24\n    /* \"#utility.yul\":930:931   */\n  0x00\n    /* \"#utility.yul\":923:938   */\n  revert\n    /* \"#utility.yul\":950:1130   */\ntag_16:\n    /* \"#utility.yul\":998:1075   */\n  0x4e487b7100000000000000000000000000000000000000000000000000000000\n    /* \"#utility.yul\":995:996   */\n  0x00\n    /* \"#utility.yul\":988:1076   */\n  mstore\n    /* \"#utility.yul\":1095:1099   */\n  0x22\n    /* \"#utility.yul\":1092:1093   */\n  0x04\n    /* \"#utility.yul\":1085:1100   */\n  mstore\n    /* \"#utility.yul\":1119:1123   */\n  0x24\n    /* \"#utility.yul\":1116:1117   */\n  0x00\n    /* \"#utility.yul\":1109:1124   */\n  revert\n    /* \"#utility.yul\":1136:1456   */\ntag_17:\n    /* \"#utility.yul\":1180:1186   */\n  0x00\n    /* \"#utility.yul\":1217:1218   */\n  0x02\n    /* \"#utility.yul\":1211:1215   */\n  dup3\n    /* \"#utility.yul\":1207:1219   */\n  div\n    /* \"#utility.yul\":1197:1219   */\n  swap1\n  pop\n    /* \"#utility.yul\":1264:1265   */\n  0x01\n    /* \"#utility.yul\":1258:1262   */\n  dup3\n    /* \"#utility.yul\":1254:1266   */\n  and\n    /* \"#utility.yul\":1285:1303   */\n  dup1\n    /* \"#utility.yul\":1275:1356   */\n  tag_46\n  jumpi\n    /* \"#utility.yul\":1341:1345   */\n  0x7f\n    /* \"#utility.yul\":1333:1339   */\n  dup3\n    /* \"#utility.yul\":1329:1346   */\n  and\n    /* \"#utility.yul\":1319:1346   */\n  swap2\n  pop\n    /* \"#utility.yul\":1275:1356   */\ntag_46:\n    /* \"#utility.yul\":1403:1405   */\n  0x20\n    /* \"#utility.yul\":1395:1401   */\n  dup3\n    /* \"#utility.yul\":1392:1406   */\n  lt\n    /* \"#utility.yul\":1372:1390   */\n  dup2\n    /* \"#utility.yul\":1369:1407   */\n  sub\n    /* \"#utility.yul\":1366:1450   */\n  tag_47\n  jumpi\n    /* \"#utility.yul\":1422:1440   */\n  tag_48\n  tag_16\n  jump\t// in\ntag_48:\n    /* \"#utility.yul\":1366:1450   */\ntag_47:\n    /* \"#utility.yul\":1187:1456   */\n  pop\n    /* \"#utility.yul\":1136:1456   */\n  swap2\n  swap1\n  pop\n  jump\t// out\n    /* \"#utility.yul\":1462:1603   */\ntag_18:\n    /* \"#utility.yul\":1511:1515   */\n  0x00\n    /* \"#utility.yul\":1534:1537   */\n  dup2\n    /* \"#utility.yul\":1526:1537   */\n  swap1\n  pop\n    /* \"#utility.yul\":1557:1560   */\n  dup2\n    /* \"#utility.yul\":1554:1555   */\n  0x00\n    /* \"#utility.yul\":1547:1561   */\n  mstore\n    /* \"#utility.yul\":1591:1595   */\n  0x20\n    /* \"#utility.yul\":1588:1589   */\n  0x00\n    /* \"#utility.yul\":1578:1596   */\n  keccak256\n    /* \"#utility.yul\":1570:1596   */\n  swap1\n  pop\n    /* \"#utility.yul\":1462:1603   */\n  swap2\n  swap1\n  pop\n  jump\t// out\n    /* \"#utility.yul\":1609:1702   */\ntag_19:\n    /* \"#utility.yul\":1646:1652   */\n  0x00\n    /* \"#utility.yul\":1693:1695   */\n  0x20\n    /* \"#utility.yul\":1688:1690   */\n  0x1f\n    /* \"#utility.yul\":1681:1686   */\n  dup4\n    /* \"#utility.yul\":1677:1691   */\n  add\n    /* \"#utility.yul\":1673:1696   */\n  div\n    /* \"#utility.yul\":1663:1696   */\n  swap1\n  pop\n    /* \"#utility.yul\":1609:1702   */\n  swap2\n  swap1\n  pop\n  jump\t// out\n    /* \"#utility.yul\":1708:1815   */\ntag_20:\n    /* \"#utility.yul\":1752:1760   */\n  0x00\n    /* \"#utility.yul\":1802:1807   */\n  dup3\n    /* \"#utility.yul\":1796:1800   */\n  dup3\n    /* \"#utility.yul\":1792:1808   */\n  shl\n    /* \"#utility.yul\":1771:1808   */\n  swap1\n  pop\n    /* \"#utility.yul\":1708:1815   */\n  swap3\n  swap2\n  pop\n  pop\n  jump\t// out\n    /* \"#utility.yul\":1821:2214   */\ntag_21:\n    /* \"#utility.yul\":1890:1896   */\n  0x00\n    /* \"#utility.yul\":1940:1941   */\n  0x08\n    /* \"#utility.yul\":1928:1938   */\n  dup4\n    /* \"#utility.yul\":1924:1942   */\n  mul\n    /* \"#utility.yul\":1963:2060   */\n  tag_53\n    /* \"#utility.yul\":1993:2059   */\n  0xffffffffffffffffffffffffffffffffffffffffffffffffffffffffffffffff\n    /* \"#utility.yul\":1982:1991   */\n  dup3\n    /* \"#utility.yul\":1963:2060   */\n  tag_20\n  jump\t// in\ntag_53:\n    /* \"#utility.yul\":2081:2120   */\n  tag_54\n    /* \"#utility.yul\":2111:2119   */\n  dup7\n    /* \"#utility.yul\":2100:2109   */\n  dup4\n    /* \"#utility.yul\":2081:2120   */\n  tag_20\n  jump\t// in\ntag_54:\n    /* \"#utility.yul\":2069:2120   */\n  swap6\n  pop\n    /* \"#utility.yul\":2153:2157   */\n  dup1\n    /* \"#utility.yul\":2149:2158   */\n  not\n    /* \"#utility.yul\":2142:2147   */\n  dup5\n    /* \"#utility.yul\":2138:2159   */\n  and\n    /* \"#utility.yul\":2129:2159   */\n  swap4\n  pop\n    /* \"#utility.yul\":2202:2206   */\n  dup1\n    /* \"#utility.yul\":2192:2200   */\n  dup7\n    /* \"#utility.yul\":2188:2207   */\n  and\n    /* \"#utility.yul\":2181:2186   */\n  dup5\n    /* \"#utility.yul\":2178:2208   */\n  or\n    /* \"#utility.yul\":2168:2208   */\n  swap3\n  pop\n    /* \"#utility.yul\":1897:2214   */\n  pop\n  pop\n    /* \"#utility.yul\":1821:2214   */\n  swap4\n  swap3\n  pop\n  pop\n  pop\n  jump\t// out\n    /* \"#utility.yul\":2220:2280   */\ntag_22:\n    /* \"#utility.yul\":2248:2251   */\n  0x00\n    /* \"#utility.yul\":2269:2274   */\n  dup2\n    /* \"#utility.yul\":2262:2274   */\n  swap1\n  pop\n    /* \"#utility.yul\":2220:2280   */\n  swap2\n  swap1\n  pop\n  jump\t// out\n    /* \"#utility.yul\":2286:2428   */\ntag_23:\n    /* \"#utility.yul\":2336:2345   */\n  0x00\n    /* \"#utility.yul\":2369:2422   */\n  tag_57\n    /* \"#utility.yul\":2387:2421   */\n  tag_58\n    /* \"#utility.yul\":2396:2420   */\n  tag_59\n    /* \"#utility.yul\":2414:2419   */\n  dup5\n    /* \"#utility.yul\":2396:2420   */\n  tag_12\n  jump\t// in\ntag_59:\n    /* \"#utility.yul\":2387:2421   */\n  tag_22\n  jump\t// in\ntag_58:\n    /* \"#utility.yul\":2369:2422   */\n  tag_12\n  jump\t// in\ntag_57:\n    /* \"#utility.yul\":2356:2422   */\n  swap1\n  pop\n    /* \"#utility.yul\":2286:2428   */\n  swap2\n  swap1\n  pop\n  jump\t// out\n    /* \"#utility.yul\":2434:2509   */\ntag_24:\n    /* \"#utility.yul\":2477:2480   */\n  0x00\n    /* \"#utility.yul\":2498:2503   */\n  dup2\n    /* \"#utility.yul\":2491:2503   */\n  swap1\n  pop\n    /* \"#utility.yul\":2434:2509   */\n  swap2\n  swap1\n  pop\n  jump\t// out\n    /* \"#utility.yul\":2515:2784   */\ntag_25:\n    /* \"#utility.yul\":2625:2664   */\n  tag_62\n    /* \"#utility.yul\":2656:2663   */\n  dup4\n    /* \"#utility.yul\":2625:2664   */\n  tag_23\n  jump\t// in\ntag_62:\n    /* \"#utility.yul\":2686:2777   */\n  tag_63\n    /* \"#utility.yul\":2735:2776   */\n  tag_64\n    /* \"#utility.yul\":2759:2775   */\n  dup3\n    /* \"#utility.yul\":2735:2776   */\n  tag_24\n  jump\t// in\ntag_64:\n    /* \"#utility.yul\":2727:2733   */\n  dup5\n    /* \"#utility.yul\":2720:2724   */\n  dup5\n    /* \"#utility.yul\":2714:2725   */\n  sload\n    /* \"#utility.yul\":2686:2777   */\n  tag_21\n  jump\t// in\ntag_63:\n    /* \"#utility.yul\":2680:2684   */\n  dup3\n    /* \"#utility.yul\":2673:2778   */\n  sstore\n    /* \"#utility.yul\":2591:2784   */\n  pop\n    /* \"#utility.yul\":2515:2784   */\n  pop\n  pop\n  pop\n  jump\t// out\n    /* \"#utility.yul\":2790:2863   */\ntag_26:\n    /* \"#utility.yul\":2835:2838   */\n  0x00\n    /* \"#utility.yul\":2856:2857   */\n  0x00\n    /* \"#utility.yul\":2849:2857   */\n  swap1\n  pop\n    /* \"#utility.yul\":2790:2863   */\n  swap1\n  jump\t// out\n    /* \"#utility.yul\":2869:3058   */\ntag_27:\n    /* \"#utility.yul\":2946:2978   */\n  tag_67\n  tag_26\n  jump\t// in\ntag_67:\n    /* \"#utility.yul\":2987:3052   */\n  tag_68\n    /* \"#utility.yul\":3045:3051   */\n  dup2\n    /* \"#utility.yul\":3037:3043   */\n  dup5\n    /* \"#utility.yul\":3031:3035   */\n  dup5\n    /* \"#utility.yul\":2987:3052   */\n  tag_25\n  jump\t// in\ntag_68:\n    /* \"#utility.yul\":2922:3058   */\n  pop\n    /* \"#utility.yul\":2869:3058   */\n  pop\n  pop\n  jump\t// out\n    /* \"#utility.yul\":3064:3250   */\ntag_28:\n    /* \"#utility.yul\":3124:3244   */\ntag_70:\n    /* \"#utility.yul\":3141:3144   */\n  dup2\n    /* \"#utility.yul\":3134:3139   */\n  dup2\n    /* \"#utility.yul\":3131:3145   */\n  lt\n    /* \"#utility.yul\":3124:3244   */\n  iszero\n  tag_72\n  jumpi\n    /* \"#utility.yul\":3195:3234   */\n  tag_73\n    /* \"#utility.yul\":3232:3233   */\n  0x00\n    /* \"#utility.yul\":3225:3230   */\n  dup3\n    /* \"#utility.yul\":3195:3234   */\n  tag_27\n  jump\t// in\ntag_73:\n    /* \"#utility.yul\":3168:3169   */\n  0x01\n    /* \"#utility.yul\":3161:3166   */\n  dup2\n    /* \"#utility.yul\":3157:3170   */\n  add\n    /* \"#utility.yul\":3148:3170   */\n  swap1\n  pop\n    /* \"#utility.yul\":3124:3244   */\n  jump(tag_70)\ntag_72:\n    /* \"#utility.yul\":3064:3250   */\n  pop\n  pop\n  jump\t// out\n    /* \"#utility.yul\":3256:3799   */\ntag_29:\n    /* \"#utility.yul\":3357:3359   */\n  0x1f\n    /* \"#utility.yul\":3352:3355   */\n  dup3\n    /* \"#utility.yul\":3349:3360   */\n  gt\n    /* \"#utility.yul\":3346:3792   */\n  iszero\n  tag_75\n  jumpi\n    /* \"#utility.yul\":3391:3429   */\n  tag_76\n    /* \"#utility.yul\":3423:3428   */\n  dup2\n    /* \"#utility.yul\":3391:3429   */\n  tag_18\n  jump\t// in\ntag_76:\n    /* \"#utility.yul\":3475:3504   */\n  tag_77\n    /* \"#utility.yul\":3493:3503   */\n  dup5\n    /* \"#utility.yul\":3475:3504   */\n  tag_19\n  jump\t// in\ntag_77:\n    /* \"#utility.yul\":3465:3473   */\n  dup2\n    /* \"#utility.yul\":3461:3505   */\n  add\n    /* \"#utility.yul\":3658:3660   */\n  0x20\n    /* \"#utility.yul\":3646:3656   */\n  dup6\n    /* \"#utility.yul\":3643:3661   */\n  lt\n    /* \"#utility.yul\":3640:3689   */\n  iszero\n  tag_78\n  jumpi\n    /* \"#utility.yul\":3679:3687   */\n  dup2\n    /* \"#utility.yul\":3664:3687   */\n  swap1\n  pop\n    /* \"#utility.yul\":3640:3689   */\ntag_78:\n    /* \"#utility.yul\":3702:3782   */\n  tag_79\n    /* \"#utility.yul\":3758:3780   */\n  tag_80\n    /* \"#utility.yul\":3776:3779   */\n  dup6\n    /* \"#utility.yul\":3758:3780   */\n  tag_19\n  jump\t// in\ntag_80:\n    /* \"#utility.yul\":3748:3756   */\n  dup4\n    /* \"#utility.yul\":3744:3781   */\n  add\n    /* \"#utility.yul\":3731:3742   */\n  dup3\n    /* \"#utility.yul\":3702:3782   */\n  tag_28\n  jump\t// in\ntag_79:\n    /* \"#utility.yul\":3361:3792   */\n  pop\n  pop\n    /* \"#utility.yul\":3346:3792   */\ntag_75:\n    /* \"#utility.yul\":3256:3799   */\n  pop\n  pop\n  pop\n  jump\t// out\n    /* \"#utility.yul\":3805:3922   */\ntag_30:\n    /* \"#utility.yul\":3859:3867   */\n  0x00\n    /* \"#utility.yul\":3909:3914   */\n  dup3\n    /* \"#utility.yul\":3903:3907   */\n  dup3\n    /* \"#utility.yul\":3899:3915   */\n  shr\n    /* \"#utility.yul\":3878:3915   */\n  swap1\n  pop\n    /* \"#utility.yul\":3805:3922   */\n  swap3\n  swap2\n  pop\n  pop\n  jump\t// out\n    /* \"#utility.yul\":3928:4097   */\ntag_31:\n    /* \"#utility.yul\":3972:3978   */\n  0x00\n    /* \"#utility.yul\":4005:4056   */\n  tag_83\n    /* \"#utility.yul\":4053:4054   */\n  0x00\n    /* \"#utility.yul\":4049:4055   */\n  not\n    /* \"#utility.yul\":4041:4046   */\n  dup5\n    /* \"#utility.yul\":4038:4039   */\n  0x08\n    /* \"#utility.yul\":4034:4047   */\n  mul\n    /* \"#utility.yul\":4005:4056   */\n  tag_30\n  jump\t// in\ntag_83:\n    /* \"#utility.yul\":4001:4057   */\n  not\n    /* \"#utility.yul\":4086:4090   */\n  dup1\n    /* \"#utility.yul\":4080:4084   */\n  dup4\n    /* \"#utility.yul\":4076:4091   */\n  and\n    /* \"#utility.yul\":4066:4091   */\n  swap2\n  pop\n    /* \"#utility.yul\":3979:4097   */\n  pop\n    /* \"#utility.yul\":3928:4097   */\n  swap3\n  swap2\n  pop\n  pop\n  jump\t// out\n    /* \"#utility.yul\":4102:4397   */\ntag_32:\n    /* \"#utility.yul\":4178:4182   */\n  0x00\n    /* \"#utility.yul\":4324:4353   */\n  tag_85\n    /* \"#utility.yul\":4349:4352   */\n  dup4\n    /* \"#utility.yul\":4343:4347   */\n  dup4\n    /* \"#utility.yul\":4324:4353   */\n  tag_31\n  jump\t// in\ntag_85:\n    /* \"#utility.yul\":4316:4353   */\n  swap2\n  pop\n    /* \"#utility.yul\":4386:4389   */\n  dup3\n    /* \"#utility.yul\":4383:4384   */\n  0x02\n    /* \"#utility.yul\":4379:4390   */\n  mul\n    /* \"#utility.yul\":4373:4377   */\n  dup3\n    /* \"#utility.yul\":4370:4391   */\n  or\n    /* \"#utility.yul\":4362:4391   */\n  swap1\n  pop\n    /* \"#utility.yul\":4102:4397   */\n  swap3\n  swap2\n  pop\n  pop\n  jump\t// out\n    /* \"#utility.yul\":4402:5797   */\ntag_10:\n    /* \"#utility.yul\":4519:4556   */\n  tag_87\n    /* \"#utility.yul\":4552:4555   */\n  dup3\n    /* \"#utility.yul\":4519:4556   */\n  tag_14\n  jump\t// in\ntag_87:\n    /* \"#utility.yul\":4621:4639   */\n  0xffffffffffffffff\n    /* \"#utility.yul\":4613:4619   */\n  dup2\n    /* \"#utility.yul\":4610:4640   */\n  gt\n    /* \"#utility.yul\":4607:4663   */\n  iszero\n  tag_88\n  jumpi\n    /* \"#utility.yul\":4643:4661   */\n  tag_89\n  tag_15\n  jump\t// in\ntag_89:\n    /* \"#utility.yul\":4607:4663   */\ntag_88:\n    /* \"#utility.yul\":4687:4725   */\n  tag_90\n    /* \"#utility.yul\":4719:4723   */\n  dup3\n    /* \"#utility.yul\":4713:4724   */\n  sload\n    /* \"#utility.yul\":4687:4725   */\n  tag_17\n  jump\t// in\ntag_90:\n    /* \"#utility.yul\":4772:4839   */\n  tag_91\n    /* \"#utility.yul\":4832:4838   */\n  dup3\n    /* \"#utility.yul\":4824:4830   */\n  dup3\n    /* \"#utility.yul\":4818:4822   */\n  dup6\n    /* \"#utility.yul\":4772:4839   */\n  tag_29\n  jump\t// in\ntag_91:\n    /* \"#utility.yul\":4866:4867   */\n  0x00\n    /* \"#utility.yul\":4890:4894   */\n  0x20\n    /* \"#utility.yul\":4877:4894   */\n  swap1\n  pop\n    /* \"#utility.yul\":4922:4924   */\n  0x1f\n    /* \"#utility.yul\":4914:4920   */\n  dup4\n    /* \"#utility.yul\":4911:4925   */\n  gt\n    /* \"#utility.yul\":4939:4940   */\n  0x01\n    /* \"#utility.yul\":4934:5552   */\n  dup2\n  eq\n  tag_93\n  jumpi\n    /* \"#utility.yul\":5596:5597   */\n  0x00\n    /* \"#utility.yul\":5613:5619   */\n  dup5\n    /* \"#utility.yul\":5610:5687   */\n  iszero\n  tag_94\n  jumpi\n    /* \"#utility.yul\":5662:5671   */\n  dup3\n    /* \"#utility.yul\":5657:5660   */\n  dup8\n    /* \"#utility.yul\":5653:5672   */\n  add\n    /* \"#utility.yul\":5647:5673   */\n  mload\n    /* \"#utility.yul\":5638:5673   */\n  swap1\n  pop\n    /* \"#utility.yul\":5610:5687   */\ntag_94:\n    /* \"#utility.yul\":5713:5780   */\n  tag_95\n    /* \"#utility.yul\":5773:5779   */\n  dup6\n    /* \"#utility.yul\":5766:5771   */\n  dup3\n    /* \"#utility.yul\":5713:5780   */\n  tag_32\n  jump\t// in\ntag_95:\n    /* \"#utility.yul\":5707:5711   */\n  dup7\n    /* \"#utility.yul\":5700:5781   */\n  sstore\n    /* \"#utility.yul\":5569:5791   */\n  pop\n    /* \"#utility.yul\":4904:5791   */\n  jump(tag_92)\n    /* \"#utility.yul\":4934:5552   */\ntag_93:\n    /* \"#utility.yul\":4986:4990   */\n  0x1f\n    /* \"#utility.yul\":4982:4991   */\n  not\n    /* \"#utility.yul\":4974:4980   */\n  dup5\n    /* \"#utility.yul\":4970:4992   */\n  and\n    /* \"#utility.yul\":5020:5057   */\n  tag_96\n    /* \"#utility.yul\":5052:5056   */\n  dup7\n    /* \"#utility.yul\":5020:5057   */\n  tag_18\n  jump\t// in\ntag_96:\n    /* \"#utility.yul\":5079:5080   */\n  0x00\n    /* \"#utility.yul\":5093:5301   */\ntag_97:\n    /* \"#utility.yul\":5107:5114   */\n  dup3\n    /* \"#utility.yul\":5104:5105   */\n  dup2\n    /* \"#utility.yul\":5101:5115   */\n  lt\n    /* \"#utility.yul\":5093:5301   */\n  iszero\n  tag_99\n  jumpi\n    /* \"#utility.yul\":5186:5195   */\n  dup5\n    /* \"#utility.yul\":5181:5184   */\n  dup10\n    /* \"#utility.yul\":5177:5196   */\n  add\n    /* \"#utility.yul\":5171:5197   */\n  mload\n    /* \"#utility.yul\":5163:5169   */\n  dup3\n    /* \"#utility.yul\":5156:5198   */\n  sstore\n    /* \"#utility.yul\":5237:5238   */\n  0x01\n    /* \"#utility.yul\":5229:5235   */\n  dup3\n    /* \"#utility.yul\":5225:5239   */\n  add\n    /* \"#utility.yul\":5215:5239   */\n  swap2\n  pop\n    /* \"#utility.yul\":5284:5286   */\n  0x20\n    /* \"#utility.yul\":5273:5282   */\n  dup6\n    /* \"#utility.yul\":5269:5287   */\n  add\n    /* \"#utility.yul\":5256:5287   */\n  swap5\n  pop\n    /* \"#utility.yul\":5130:5134   */\n  0x20\n    /* \"#utility.yul\":5127:5128   */\n  dup2\n    /* \"#utility.yul\":5123:5135   */\n  add\n    /* \"#utility.yul\":5118:5135   */\n  swap1\n  pop\n    /* \"#utility.yul\":5093:5301   */\n  jump(tag_97)\ntag_99:\n    /* \"#utility.yul\":5329:5335   */\n  dup7\n    /* \"#utility.yul\":5320:5327   */\n  dup4\n    /* \"#utility.yul\":5317:5336   */\n  lt\n    /* \"#utility.yul\":5314:5493   */\n  iszero\n  tag_100\n  jumpi\n    /* \"#utility.yul\":5387:5396   */\n  dup5\n    /* \"#utility.yul\":5382:5385   */\n  dup10\n    /* \"#utility.yul\":5378:5397   */\n  add\n    /* \"#utility.yul\":5372:5398   */\n  mload\n    /* \"#utility.yul\":5430:5478   */\n  tag_101\n    /* \"#utility.yul\":5472:5476   */\n  0x1f\n    /* \"#utility.yul\":5464:5470   */\n  dup10\n    /* \"#utility.yul\":5460:5477   */\n  and\n    /* \"#utility.yul\":5449:5458   */\n  dup3\n    /* \"#utility.yul\":5430:5478   */\n  tag_31\n  jump\t// in\ntag_101:\n    /* \"#utility.yul\":5422:5428   */\n  dup4\n    /* \"#utility.yul\":5415:5479   */\n  sstore\n    /* \"#utility.yul\":5337:5493   */\n  pop\n    /* \"#utility.yul\":5314:5493   */\ntag_100:\n    /* \"#utility.yul\":5539:5540   */\n  0x01\n    /* \"#utility.yul\":5535:5536   */\n  0x02\n    /* \"#utility.yul\":5527:5533   */\n  dup9\n    /* \"#utility.yul\":5523:5537   */\n  mul\n    /* \"#utility.yul\":5519:5541   */\n  add\n    /* \"#utility.yul\":5513:5517   */\n  dup9\n    /* \"#utility.yul\":5506:5542   */\n  sstore\n    /* \"#utility.yul\":4941:5552   */\n  pop\n  pop\n  pop\n    /* \"#utility.yul\":4904:5791   */\ntag_92:\n  pop\n    /* \"#utility.yul\":4494:5797   */\n  pop\n  pop\n  pop\n    /* \"#utility.yul\":4402:5797   */\n  pop\n  pop\n  jump\t// out\n    /* \"src/auction.sol\":57:2377  contract Auction{... */\ntag_11:\n  dataSize(sub_0)\n  dup1\n  dataOffset(sub_0)\n  0x00\n  codecopy\n  0x00\n  return\nstop\n\nsub_0: assembly {\n        /* \"src/auction.sol\":57:2377  contract Auction{... */\n      mstore(0x40, 0x80)\n      jumpi(tag_1, lt(calldatasize, 0x04))\n      shr(0xe0, calldataload(0x00))\n      dup1\n      0x8fa8b790\n      gt\n      tag_12\n      jumpi\n      dup1\n      0x8fa8b790\n      eq\n      tag_7\n      jumpi\n      dup1\n      0x91f90157\n      eq\n      tag_8\n      jumpi\n      dup1\n      0xc623674f\n      eq\n      tag_9\n      jumpi\n      dup1\n      0xecfc7ecc\n      eq\n      tag_10\n      jumpi\n      dup1\n      0xf5b56c56\n      eq\n      tag_11\n      jumpi\n      jump(tag_1)\n    tag_12:\n      dup1\n      0x083c6323\n      eq\n      tag_2\n      jumpi\n      dup1\n      0x48cd4cb1\n      eq\n      tag_3\n      jumpi\n      dup1\n      0x62ea82db\n      eq\n      tag_4\n      jumpi\n      dup1\n      0x7fb45099\n      eq\n      tag_5\n      jumpi\n      dup1\n      0x8da5cb5b\n      eq\n      tag_6\n      jumpi\n    tag_1:\n      revert(0x00, 0x00)\n        /* \"src/auction.sol\":215:235  uint public endBlock */\n    tag_2:\n      callvalue\n      dup1\n      iszero\n      tag_13\n      jumpi\n      revert(0x00, 0x00)\n    tag_13:\n      pop\n      tag_14\n      tag_15\n      jump\t// in\n    tag_14:\n      mload(0x40)\n      tag_16\n      swap2\n      swap1\n      tag_17\n      jump\t// in\n    tag_16:\n      mload(0x40)\n      dup1\n      swap2\n      sub\n      swap1\n      return\n        /* \"src/auction.sol\":187:209  uint public startBlock */\n    tag_3:\n      callvalue\n      dup1\n      iszero\n      tag_18\n      jumpi\n      revert(0x00, 0x00)\n    tag_18:\n      pop\n      tag_19\n      tag_20\n      jump\t// in\n    tag_19:\n      mload(0x40)\n      tag_21\n      swap2\n      swap1\n      tag_17\n      jump\t// in\n    tag_21:\n      mload(0x40)\n      dup1\n      swap2\n      sub\n      swap1\n      return\n        /* \"src/auction.sol\":497:533  mapping(address => uint) public bids */\n    tag_4:\n      callvalue\n      dup1\n      iszero\n      tag_22\n      jumpi\n      revert(0x00, 0x00)\n    tag_22:\n      pop\n      tag_23\n      0x04\n      dup1\n      calldatasize\n      sub\n      dup2\n      add\n      swap1\n      tag_24\n      swap2\n      swap1\n      tag_25\n      jump\t// in\n    tag_24:\n      tag_26\n      jump\t// in\n    tag_23:\n      mload(0x40)\n      tag_27\n      swap2\n      swap1\n      tag_17\n      jump\t// in\n    tag_27:\n      mload(0x40)\n      dup1\n      swap2\n      sub\n      swap1\n      return\n        /* \"src/auction.sol\":387:412  State public auctionState */\n    tag_5:\n      callvalue\n      dup1\n      iszero\n      tag_28\n      jumpi\n      revert(0x00, 0x00)\n    tag_28:\n      pop\n      tag_29\n      tag_30\n      jump\t// in\n    tag_29:\n      mload(0x40)\n      tag_31\n      swap2\n      swap1\n      tag_32\n      jump\t// in\n    tag_31:\n      mload(0x40)\n      dup1\n      swap2\n      sub\n      swap1\n      return\n        /* \"src/auction.sol\":80:108  address payable public owner */\n    tag_6:\n      callvalue\n      dup1\n      iszero\n      tag_33\n      jumpi\n      revert(0x00, 0x00)\n    tag_33:\n      pop\n      tag_34\n      tag_35\n      jump\t// in\n    tag_34:\n      mload(0x40)\n      tag_36\n      swap2\n      swap1\n      tag_37\n      jump\t// in\n    tag_36:\n      mload(0x40)\n      dup1\n      swap2\n      sub\n      swap1\n      return\n        /* \"src/auction.sol\":1503:1590  function cancelAuction() public onlyOwner{... */\n    tag_7:\n      callvalue\n      dup1\n      iszero\n      tag_38\n      jumpi\n      revert(0x00, 0x00)\n    tag_38:\n      pop\n      tag_39\n      tag_40\n      jump\t// in\n    tag_39:\n      stop\n        /* \"src/auction.sol\":454:490  address payable public highestBidder */\n    tag_8:\n      callvalue\n      dup1\n      iszero\n      tag_41\n      jumpi\n      revert(0x00, 0x00)\n    tag_41:\n      pop\n      tag_42\n      tag_43\n      jump\t// in\n    tag_42:\n      mload(0x40)\n      tag_44\n      swap2\n      swap1\n      tag_37\n      jump\t// in\n    tag_44:\n      mload(0x40)\n      dup1\n      swap2\n      sub\n      swap1\n      return\n        /* \"src/auction.sol\":241:263  string public ipfsHash */\n    tag_9:\n      callvalue\n      dup1\n      iszero\n      tag_45\n      jumpi\n      revert(0x00, 0x00)\n    tag_45:\n      pop\n      tag_46\n      tag_47\n      jump\t// in\n    tag_46:\n      mload(0x40)\n      tag_48\n      swap2\n      swap1\n      tag_49\n      jump\t// in\n    tag_48:\n      mload(0x40)\n      dup1\n      swap2\n      sub\n      swap1\n      return\n        /* \"src/auction.sol\":1596:2374  function placeBid() public payable notOwner afterStart beforeEnd{... */\n    tag_10:\n      tag_50\n      tag_51\n      jump\t// in\n    tag_50:\n      stop\n        /* \"src/auction.sol\":419:448  uint public highestBindingBid */\n    tag_11:\n      callvalue\n      dup1\n      iszero\n      tag_52\n      jumpi\n      revert(0x00, 0x00)\n    tag_52:\n      pop\n      tag_53\n      tag_54\n      jump\t// in\n    tag_53:\n      mload(0x40)\n      tag_55\n      swap2\n      swap1\n      tag_17\n      jump\t// in\n    tag_55:\n      mload(0x40)\n      dup1\n      swap2\n      sub\n      swap1\n      return\n        /* \"src/auction.sol\":215:235  uint public endBlock */\n    tag_15:\n      sload(0x02)\n      dup2\n      jump\t// out\n        /* \"src/auction.sol\":187:209  uint public startBlock */\n    tag_20:\n      sload(0x01)\n      dup2\n      jump\t// out\n        /* \"src/auction.sol\":497:533  mapping(address => uint) public bids */\n    tag_26:\n      mstore(0x20, 0x07)\n      dup1\n      0x00\n      mstore\n      keccak256(0x00, 0x40)\n      0x00\n      swap2\n      pop\n      swap1\n      pop\n      sload\n      dup2\n      jump\t// out\n        /* \"src/auction.sol\":387:412  State public auctionState */\n    tag_30:\n      0x04\n      0x00\n      swap1\n      sload\n      swap1\n      0x0100\n      exp\n      swap1\n      div\n      0xff\n      and\n      dup2\n      jump\t// out\n        /* \"src/auction.sol\":80:108  address payable public owner */\n    tag_35:\n      0x00\n      0x00\n      swap1\n      sload\n      swap1\n      0x0100\n      exp\n      swap1\n      div\n      0xffffffffffffffffffffffffffffffffffffffff\n      and\n      dup2\n      jump\t// out\n        /* \"src/auction.sol\":1503:1590  function cancelAuction() public onlyOwner{... */\n    tag_40:\n        /* \"src/auction.sol\":1314:1319  owner */\n      0x00\n      0x00\n      swap1\n      sload\n      swap1\n      0x0100\n      exp\n      swap1\n      div\n      0xffffffffffffffffffffffffffffffffffffffff\n      and\n        /* \"src/auction.sol\":1300:1319  msg.sender == owner */\n      0xffffffffffffffffffffffffffffffffffffffff\n      and\n        /* \"src/auction.sol\":1300:1310  msg.sender */\n      caller\n        /* \"src/auction.sol\":1300:1319  msg.sender == owner */\n      0xffffffffffffffffffffffffffffffffffffffff\n      and\n      eq\n        /* \"src/auction.sol\":1292:1320  require(msg.sender == owner) */\n      tag_57\n      jumpi\n      revert(0x00, 0x00)\n    tag_57:\n        /* \"src/auction.sol\":1569:1583  State.Canceled */\n      0x03\n        /* \"src/auction.sol\":1554:1566  auctionState */\n      0x04\n      0x00\n        /* \"src/auction.sol\":1554:1583  auctionState = State.Canceled */\n      0x0100\n      exp\n      dup2\n      sload\n      dup2\n      0xff\n      mul\n      not\n      and\n      swap1\n      dup4\n      0x03\n      dup2\n      gt\n      iszero\n      tag_59\n      jumpi\n      tag_60\n      tag_61\n      jump\t// in\n    tag_60:\n    tag_59:\n      mul\n      or\n      swap1\n      sstore\n      pop\n        /* \"src/auction.sol\":1503:1590  function cancelAuction() public onlyOwner{... */\n      jump\t// out\n        /* \"src/auction.sol\":454:490  address payable public highestBidder */\n    tag_43:\n      0x06\n      0x00\n      swap1\n      sload\n      swap1\n      0x0100\n      exp\n      swap1\n      div\n      0xffffffffffffffffffffffffffffffffffffffff\n      and\n      dup2\n      jump\t// out\n        /* \"src/auction.sol\":241:263  string public ipfsHash */\n    tag_47:\n      0x03\n      dup1\n      sload\n      tag_62\n      swap1\n      tag_63\n      jump\t// in\n    tag_62:\n      dup1\n      0x1f\n      add\n      0x20\n      dup1\n      swap2\n      div\n      mul\n      0x20\n      add\n      mload(0x40)\n      swap1\n      dup2\n      add\n      0x40\n      mstore\n      dup1\n      swap3\n      swap2\n      swap1\n      dup2\n      dup2\n      mstore\n      0x20\n      add\n      dup3\n      dup1\n      sload\n      tag_64\n      swap1\n      tag_63\n      jump\t// in\n    tag_64:\n      dup1\n      iszero\n      tag_65\n      jumpi\n      dup1\n      0x1f\n      lt\n      tag_66\n      jumpi\n      0x0100\n      dup1\n      dup4\n      sload\n      div\n      mul\n      dup4\n      mstore\n      swap2\n      0x20\n      add\n      swap2\n      jump(tag_65)\n    tag_66:\n      dup3\n      add\n      swap2\n      swap1\n      0x00\n      mstore\n      keccak256(0x00, 0x20)\n      swap1\n    tag_67:\n      dup2\n      sload\n      dup2\n      mstore\n      swap1\n      0x01\n      add\n      swap1\n      0x20\n      add\n      dup1\n      dup4\n      gt\n      tag_67\n      jumpi\n      dup3\n      swap1\n      sub\n      0x1f\n      and\n      dup3\n      add\n      swap2\n    tag_65:\n      pop\n      pop\n      pop\n      pop\n      pop\n      dup2\n      jump\t// out\n        /* \"src/auction.sol\":1596:2374  function placeBid() public payable notOwner afterStart beforeEnd{... */\n    tag_51:\n        /* \"src/auction.sol\":1058:1063  owner */\n      0x00\n      0x00\n      swap1\n      sload\n      swap1\n      0x0100\n      exp\n      swap1\n      div\n      0xffffffffffffffffffffffffffffffffffffffff\n      and\n        /* \"src/auction.sol\":1044:1063  msg.sender != owner */\n      0xffffffffffffffffffffffffffffffffffffffff\n      and\n        /* \"src/auction.sol\":1044:1054  msg.sender */\n      caller\n        /* \"src/auction.sol\":1044:1063  msg.sender != owner */\n      0xffffffffffffffffffffffffffffffffffffffff\n      and\n      sub\n        /* \"src/auction.sol\":1036:1064  require(msg.sender != owner) */\n      tag_69\n      jumpi\n      revert(0x00, 0x00)\n    tag_69:\n        /* \"src/auction.sol\":1144:1154  startBlock */\n      sload(0x01)\n        /* \"src/auction.sol\":1128:1140  block.number */\n      number\n        /* \"src/auction.sol\":1128:1154  block.number >= startBlock */\n      lt\n      iszero\n        /* \"src/auction.sol\":1120:1155  require(block.number >= startBlock) */\n      tag_71\n      jumpi\n      revert(0x00, 0x00)\n    tag_71:\n        /* \"src/auction.sol\":1231:1239  endBlock */\n      sload(0x02)\n        /* \"src/auction.sol\":1215:1227  block.number */\n      number\n        /* \"src/auction.sol\":1215:1239  block.number <= endBlock */\n      gt\n      iszero\n        /* \"src/auction.sol\":1207:1240  require(block.number <= endBlock) */\n      tag_73\n      jumpi\n      revert(0x00, 0x00)\n    tag_73:\n        /* \"src/auction.sol\":1748:1761  State.Running */\n      0x01\n        /* \"src/auction.sol\":1732:1761  auctionState == State.Running */\n      0x03\n      dup2\n      gt\n      iszero\n      tag_75\n      jumpi\n      tag_76\n      tag_61\n      jump\t// in\n    tag_76:\n    tag_75:\n        /* \"src/auction.sol\":1732:1744  auctionState */\n      0x04\n      0x00\n      swap1\n      sload\n      swap1\n      0x0100\n      exp\n      swap1\n      div\n      0xff\n      and\n        /* \"src/auction.sol\":1732:1761  auctionState == State.Running */\n      0x03\n      dup2\n      gt\n      iszero\n      tag_77\n      jumpi\n      tag_78\n      tag_61\n      jump\t// in\n    tag_78:\n    tag_77:\n      eq\n        /* \"src/auction.sol\":1724:1762  require(auctionState == State.Running) */\n      tag_79\n      jumpi\n      revert(0x00, 0x00)\n    tag_79:\n        /* \"src/auction.sol\":1837:1840  100 */\n      0x64\n        /* \"src/auction.sol\":1824:1833  msg.value */\n      callvalue\n        /* \"src/auction.sol\":1824:1840  msg.value >= 100 */\n      lt\n      iszero\n        /* \"src/auction.sol\":1816:1841  require(msg.value >= 100) */\n      tag_80\n      jumpi\n      revert(0x00, 0x00)\n    tag_80:\n        /* \"src/auction.sol\":1940:1955  uint currentBid */\n      0x00\n        /* \"src/auction.sol\":1977:1986  msg.value */\n      callvalue\n        /* \"src/auction.sol\":1958:1962  bids */\n      0x07\n        /* \"src/auction.sol\":1958:1974  bids[msg.sender] */\n      0x00\n        /* \"src/auction.sol\":1963:1973  msg.sender */\n      caller\n        /* \"src/auction.sol\":1958:1974  bids[msg.sender] */\n      0xffffffffffffffffffffffffffffffffffffffff\n      and\n      0xffffffffffffffffffffffffffffffffffffffff\n      and\n      dup2\n      mstore\n      0x20\n      add\n      swap1\n      dup2\n      mstore\n      0x20\n      add\n      0x00\n      keccak256\n      sload\n        /* \"src/auction.sol\":1958:1986  bids[msg.sender] + msg.value */\n      tag_81\n      swap2\n      swap1\n      tag_82\n      jump\t// in\n    tag_81:\n        /* \"src/auction.sol\":1940:1986  uint currentBid = bids[msg.sender] + msg.value */\n      swap1\n      pop\n        /* \"src/auction.sol\":2017:2034  highestBindingBid */\n      sload(0x05)\n        /* \"src/auction.sol\":2004:2014  currentBid */\n      dup2\n        /* \"src/auction.sol\":2004:2034  currentBid > highestBindingBid */\n      gt\n        /* \"src/auction.sol\":1996:2035  require(currentBid > highestBindingBid) */\n      tag_83\n      jumpi\n      revert(0x00, 0x00)\n    tag_83:\n        /* \"src/auction.sol\":2065:2075  currentBid */\n      dup1\n        /* \"src/auction.sol\":2046:2050  bids */\n      0x07\n        /* \"src/auction.sol\":2046:2062  bids[msg.sender] */\n      0x00\n        /* \"src/auction.sol\":2051:2061  msg.sender */\n      caller\n        /* \"src/auction.sol\":2046:2062  bids[msg.sender] */\n      0xffffffffffffffffffffffffffffffffffffffff\n      and\n      0xffffffffffffffffffffffffffffffffffffffff\n      and\n      dup2\n      mstore\n      0x20\n      add\n      swap1\n      dup2\n      mstore\n      0x20\n      add\n      0x00\n      keccak256\n        /* \"src/auction.sol\":2046:2075  bids[msg.sender] = currentBid */\n      dup2\n      swap1\n      sstore\n      pop\n        /* \"src/auction.sol\":2103:2107  bids */\n      0x07\n        /* \"src/auction.sol\":2103:2122  bids[highestBidder] */\n      0x00\n        /* \"src/auction.sol\":2108:2121  highestBidder */\n      0x06\n      0x00\n      swap1\n      sload\n      swap1\n      0x0100\n      exp\n      swap1\n      div\n      0xffffffffffffffffffffffffffffffffffffffff\n      and\n        /* \"src/auction.sol\":2103:2122  bids[highestBidder] */\n      0xffffffffffffffffffffffffffffffffffffffff\n      and\n      0xffffffffffffffffffffffffffffffffffffffff\n      and\n      dup2\n      mstore\n      0x20\n      add\n      swap1\n      dup2\n      mstore\n      0x20\n      add\n      0x00\n      keccak256\n      sload\n        /* \"src/auction.sol\":2089:2099  currentBid */\n      dup2\n        /* \"src/auction.sol\":2089:2122  currentBid <= bids[highestBidder] */\n      gt\n        /* \"src/auction.sol\":2086:2368  if(currentBid <= bids[highestBidder]){... */\n      tag_84\n      jumpi\n        /* \"src/auction.sol\":2157:2208  min(currentBid + bidIncrement, bids[highestBidder]) */\n      tag_85\n        /* \"src/auction.sol\":2174:2186  bidIncrement */\n      sload(0x08)\n        /* \"src/auction.sol\":2161:2171  currentBid */\n      dup3\n        /* \"src/auction.sol\":2161:2186  currentBid + bidIncrement */\n      tag_86\n      swap2\n      swap1\n      tag_82\n      jump\t// in\n    tag_86:\n        /* \"src/auction.sol\":2188:2192  bids */\n      0x07\n        /* \"src/auction.sol\":2188:2207  bids[highestBidder] */\n      0x00\n        /* \"src/auction.sol\":2193:2206  highestBidder */\n      0x06\n      0x00\n      swap1\n      sload\n      swap1\n      0x0100\n      exp\n      swap1\n      div\n      0xffffffffffffffffffffffffffffffffffffffff\n      and\n        /* \"src/auction.sol\":2188:2207  bids[highestBidder] */\n      0xffffffffffffffffffffffffffffffffffffffff\n      and\n      0xffffffffffffffffffffffffffffffffffffffff\n      and\n      dup2\n      mstore\n      0x20\n      add\n      swap1\n      dup2\n      mstore\n      0x20\n      add\n      0x00\n      keccak256\n      sload\n        /* \"src/auction.sol\":2157:2160  min */\n      tag_87\n        /* \"src/auction.sol\":2157:2208  min(currentBid + bidIncrement, bids[highestBidder]) */\n      jump\t// in\n    tag_85:\n        /* \"src/auction.sol\":2137:2154  highestBindingBid */\n      0x05\n        /* \"src/auction.sol\":2137:2208  highestBindingBid = min(currentBid + bidIncrement, bids[highestBidder]) */\n      dup2\n      swap1\n      sstore\n      pop\n        /* \"src/auction.sol\":2086:2368  if(currentBid <= bids[highestBidder]){... */\n      jump(tag_88)\n    tag_84:\n        /* \"src/auction.sol\":2257:2308  min(currentBid, bids[highestBidder] + bidIncrement) */\n      tag_89\n        /* \"src/auction.sol\":2261:2271  currentBid */\n      dup2\n        /* \"src/auction.sol\":2295:2307  bidIncrement */\n      sload(0x08)\n        /* \"src/auction.sol\":2273:2277  bids */\n      0x07\n        /* \"src/auction.sol\":2273:2292  bids[highestBidder] */\n      0x00\n        /* \"src/auction.sol\":2278:2291  highestBidder */\n      0x06\n      0x00\n      swap1\n      sload\n      swap1\n      0x0100\n      exp\n      swap1\n      div\n      0xffffffffffffffffffffffffffffffffffffffff\n      and\n        /* \"src/auction.sol\":2273:2292  bids[highestBidder] */\n      0xffffffffffffffffffffffffffffffffffffffff\n      and\n      0xffffffffffffffffffffffffffffffffffffffff\n      and\n      dup2\n      mstore\n      0x20\n      add\n      swap1\n      dup2\n      mstore\n      0x20\n      add\n      0x00\n      keccak256\n      sload\n        /* \"src/auction.sol\":2273:2307  bids[highestBidder] + bidIncrement */\n      tag_90\n      swap2\n      swap1\n      tag_82\n      jump\t// in\n    tag_90:\n        /* \"src/auction.sol\":2257:2260  min */\n      tag_87\n        /* \"src/auction.sol\":2257:2308  min(currentBid, bids[highestBidder] + bidIncrement) */\n      jump\t// in\n    tag_89:\n        /* \"src/auction.sol\":2237:2254  highestBindingBid */\n      0x05\n        /* \"src/auction.sol\":2237:2308  highestBindingBid = min(currentBid, bids[highestBidder] + bidIncrement) */\n      dup2\n      swap1\n      sstore\n      pop\n        /* \"src/auction.sol\":2346:2356  msg.sender */\n      caller\n        /* \"src/auction.sol\":2322:2335  highestBidder */\n      0x06\n      0x00\n        /* \"src/auction.sol\":2322:2357  highestBidder = payable(msg.sender) */\n      0x0100\n      exp\n      dup2\n      sload\n      dup2\n      0xffffffffffffffffffffffffffffffffffffffff\n      mul\n      not\n      and\n      swap1\n      dup4\n      0xffffffffffffffffffffffffffffffffffffffff\n      and\n      mul\n      or\n      swap1\n      sstore\n      pop\n        /* \"src/auction.sol\":2086:2368  if(currentBid <= bids[highestBidder]){... */\n    tag_88:\n        /* \"src/auction.sol\":1660:2374  {... */\n      pop\n        /* \"src/auction.sol\":1596:2374  function placeBid() public payable notOwner afterStart beforeEnd{... */\n      jump\t// out\n        /* \"src/auction.sol\":419:448  uint public highestBindingBid */\n    tag_54:\n      sload(0x05)\n      dup2\n      jump\t// out\n        /* \"src/auction.sol\":1344:1497  function min(uint a, uint b) pure internal returns(uint){... */\n    tag_87:\n        /* \"src/auction.sol\":1395:1399  uint */\n      0x00\n        /* \"src/auction.sol\":1418:1419  b */\n      dup2\n        /* \"src/auction.sol\":1413:1414  a */\n      dup4\n        /* \"src/auction.sol\":1413:1419  a <= b */\n      gt\n        /* \"src/auction.sol\":1410:1491  if(a <= b) {... */\n      tag_92\n      jumpi\n        /* \"src/auction.sol\":1442:1443  b */\n      dup2\n        /* \"src/auction.sol\":1435:1443  return b */\n      swap1\n      pop\n      jump(tag_91)\n        /* \"src/auction.sol\":1410:1491  if(a <= b) {... */\n    tag_92:\n        /* \"src/auction.sol\":1479:1480  a */\n      dup3\n        /* \"src/auction.sol\":1472:1480  return a */\n      swap1\n      pop\n        /* \"src/auction.sol\":1344:1497  function min(uint a, uint b) pure internal returns(uint){... */\n    tag_91:\n      swap3\n      swap2\n      pop\n      pop\n      jump\t// out\n        /* \"#utility.yul\":7:84   */\n    tag_94:\n        /* \"#utility.yul\":44:51   */\n      0x00\n        /* \"#utility.yul\":73:78   */\n      dup2\n        /* \"#utility.yul\":62:78   */\n      swap1\n      pop\n        /* \"#utility.yul\":7:84   */\n      swap2\n      swap1\n      pop\n      jump\t// out\n        /* \"#utility.yul\":90:208   */\n    tag_95:\n        /* \"#utility.yul\":177:201   */\n      tag_119\n        /* \"#utility.yul\":195:200   */\n      dup2\n        /* \"#utility.yul\":177:201   */\n      tag_94\n      jump\t// in\n    tag_119:\n        /* \"#utility.yul\":172:175   */\n      dup3\n        /* \"#utility.yul\":165:202   */\n      mstore\n        /* \"#utility.yul\":90:208   */\n      pop\n      pop\n      jump\t// out\n        /* \"#utility.yul\":214:436   */\n    tag_17:\n        /* \"#utility.yul\":307:311   */\n      0x00\n        /* \"#utility.yul\":345:347   */\n      0x20\n        /* \"#utility.yul\":334:343   */\n      dup3\n        /* \"#utility.yul\":330:348   */\n      add\n        /* \"#utility.yul\":322:348   */\n      swap1\n      pop\n        /* \"#utility.yul\":358:429   */\n      tag_121\n        /* \"#utility.yul\":426:427   */\n      0x00\n        /* \"#utility.yul\":415:424   */\n      dup4\n        /* \"#utility.yul\":411:428   */\n      add\n        /* \"#utility.yul\":402:408   */\n      dup5\n        /* \"#utility.yul\":358:429   */\n      tag_95\n      jump\t// in\n    tag_121:\n        /* \"#utility.yul\":214:436   */\n      swap3\n      swap2\n      pop\n      pop\n      jump\t// out\n        /* \"#utility.yul\":523:640   */\n    tag_97:\n        /* \"#utility.yul\":632:633   */\n      0x00\n        /* \"#utility.yul\":629:630   */\n      0x00\n        /* \"#utility.yul\":622:634   */\n      revert\n        /* \"#utility.yul\":769:895   */\n    tag_99:\n        /* \"#utility.yul\":806:813   */\n      0x00\n        /* \"#utility.yul\":846:888   */\n      0xffffffffffffffffffffffffffffffffffffffff\n        /* \"#utility.yul\":839:844   */\n      dup3\n        /* \"#utility.yul\":835:889   */\n      and\n        /* \"#utility.yul\":824:889   */\n      swap1\n      pop\n        /* \"#utility.yul\":769:895   */\n      swap2\n      swap1\n      pop\n      jump\t// out\n        /* \"#utility.yul\":901:997   */\n    tag_100:\n        /* \"#utility.yul\":938:945   */\n      0x00\n        /* \"#utility.yul\":967:991   */\n      tag_127\n        /* \"#utility.yul\":985:990   */\n      dup3\n        /* \"#utility.yul\":967:991   */\n      tag_99\n      jump\t// in\n    tag_127:\n        /* \"#utility.yul\":956:991   */\n      swap1\n      pop\n        /* \"#utility.yul\":901:997   */\n      swap2\n      swap1\n      pop\n      jump\t// out\n        /* \"#utility.yul\":1003:1125   */\n    tag_101:\n        /* \"#utility.yul\":1076:1100   */\n      tag_129\n        /* \"#utility.yul\":1094:1099   */\n      dup2\n        /* \"#utility.yul\":1076:1100   */\n      tag_100\n      jump\t// in\n    tag_129:\n        /* \"#utility.yul\":1069:1074   */\n      dup2\n        /* \"#utility.yul\":1066:1101   */\n      eq\n        /* \"#utility.yul\":1056:1119   */\n      tag_130\n      jumpi\n        /* \"#utility.yul\":1115:1116   */\n      0x00\n        /* \"#utility.yul\":1112:1113   */\n      0x00\n        /* \"#utility.yul\":1105:1117   */\n      revert\n        /* \"#utility.yul\":1056:1119   */\n    tag_130:\n        /* \"#utility.yul\":1003:1125   */\n      pop\n      jump\t// out\n        /* \"#utility.yul\":1131:1270   */\n    tag_102:\n        /* \"#utility.yul\":1177:1182   */\n      0x00\n        /* \"#utility.yul\":1215:1221   */\n      dup2\n        /* \"#utility.yul\":1202:1222   */\n      calldataload\n        /* \"#utility.yul\":1193:1222   */\n      swap1\n      pop\n        /* \"#utility.yul\":1231:1264   */\n      tag_132\n        /* \"#utility.yul\":1258:1263   */\n      dup2\n        /* \"#utility.yul\":1231:1264   */\n      tag_101\n      jump\t// in\n    tag_132:\n        /* \"#utility.yul\":1131:1270   */\n      swap3\n      swap2\n      pop\n      pop\n      jump\t// out\n        /* \"#utility.yul\":1276:1605   */\n    tag_25:\n        /* \"#utility.yul\":1335:1341   */\n      0x00\n        /* \"#utility.yul\":1384:1386   */\n      0x20\n        /* \"#utility.yul\":1372:1381   */\n      dup3\n        /* \"#utility.yul\":1363:1370   */\n      dup5\n        /* \"#utility.yul\":1359:1382   */\n      sub\n        /* \"#utility.yul\":1355:1387   */\n      slt\n        /* \"#utility.yul\":1352:1471   */\n      iszero\n      tag_134\n      jumpi\n        /* \"#utility.yul\":1390:1469   */\n      tag_135\n      tag_97\n      jump\t// in\n    tag_135:\n        /* \"#utility.yul\":1352:1471   */\n    tag_134:\n        /* \"#utility.yul\":1510:1511   */\n      0x00\n        /* \"#utility.yul\":1535:1588   */\n      tag_136\n        /* \"#utility.yul\":1580:1587   */\n      dup5\n        /* \"#utility.yul\":1571:1577   */\n      dup3\n        /* \"#utility.yul\":1560:1569   */\n      dup6\n        /* \"#utility.yul\":1556:1578   */\n      add\n        /* \"#utility.yul\":1535:1588   */\n      tag_102\n      jump\t// in\n    tag_136:\n        /* \"#utility.yul\":1525:1588   */\n      swap2\n      pop\n        /* \"#utility.yul\":1481:1598   */\n      pop\n        /* \"#utility.yul\":1276:1605   */\n      swap3\n      swap2\n      pop\n      pop\n      jump\t// out\n        /* \"#utility.yul\":1611:1791   */\n    tag_61:\n        /* \"#utility.yul\":1659:1736   */\n      0x4e487b7100000000000000000000000000000000000000000000000000000000\n        /* \"#utility.yul\":1656:1657   */\n      0x00\n        /* \"#utility.yul\":1649:1737   */\n      mstore\n        /* \"#utility.yul\":1756:1760   */\n      0x21\n        /* \"#utility.yul\":1753:1754   */\n      0x04\n        /* \"#utility.yul\":1746:1761   */\n      mstore\n        /* \"#utility.yul\":1780:1784   */\n      0x24\n        /* \"#utility.yul\":1777:1778   */\n      0x00\n        /* \"#utility.yul\":1770:1785   */\n      revert\n        /* \"#utility.yul\":1797:1910   */\n    tag_103:\n        /* \"#utility.yul\":1878:1879   */\n      0x04\n        /* \"#utility.yul\":1871:1876   */\n      dup2\n        /* \"#utility.yul\":1868:1880   */\n      lt\n        /* \"#utility.yul\":1858:1904   */\n      tag_139\n      jumpi\n        /* \"#utility.yul\":1884:1902   */\n      tag_140\n      tag_61\n      jump\t// in\n    tag_140:\n        /* \"#utility.yul\":1858:1904   */\n    tag_139:\n        /* \"#utility.yul\":1797:1910   */\n      pop\n      jump\t// out\n        /* \"#utility.yul\":1916:2043   */\n    tag_104:\n        /* \"#utility.yul\":1961:1968   */\n      0x00\n        /* \"#utility.yul\":1990:1995   */\n      dup2\n        /* \"#utility.yul\":1979:1995   */\n      swap1\n      pop\n        /* \"#utility.yul\":1996:2037   */\n      tag_142\n        /* \"#utility.yul\":2031:2036   */\n      dup3\n        /* \"#utility.yul\":1996:2037   */\n      tag_103\n      jump\t// in\n    tag_142:\n        /* \"#utility.yul\":1916:2043   */\n      swap2\n      swap1\n      pop\n      jump\t// out\n        /* \"#utility.yul\":2049:2176   */\n    tag_105:\n        /* \"#utility.yul\":2105:2114   */\n      0x00\n        /* \"#utility.yul\":2138:2170   */\n      tag_144\n        /* \"#utility.yul\":2164:2169   */\n      dup3\n        /* \"#utility.yul\":2138:2170   */\n      tag_104\n      jump\t// in\n    tag_144:\n        /* \"#utility.yul\":2125:2170   */\n      swap1\n      pop\n        /* \"#utility.yul\":2049:2176   */\n      swap2\n      swap1\n      pop\n      jump\t// out\n        /* \"#utility.yul\":2182:2325   */\n    tag_106:\n        /* \"#utility.yul\":2275:2318   */\n      tag_146\n        /* \"#utility.yul\":2312:2317   */\n      dup2\n        /* \"#utility.yul\":2275:2318   */\n      tag_105\n      jump\t// in\n    tag_146:\n        /* \"#utility.yul\":2270:2273   */\n      dup3\n        /* \"#utility.yul\":2263:2319   */\n      mstore\n        /* \"#utility.yul\":2182:2325   */\n      pop\n      pop\n      jump\t// out\n        /* \"#utility.yul\":2331:2565   */\n    tag_32:\n        /* \"#utility.yul\":2430:2434   */\n      0x00\n        /* \"#utility.yul\":2468:2470   */\n      0x20\n        /* \"#utility.yul\":2457:2466   */\n      dup3\n        /* \"#utility.yul\":2453:2471   */\n      add\n        /* \"#utility.yul\":2445:2471   */\n      swap1\n      pop\n        /* \"#utility.yul\":2481:2558   */\n      tag_148\n        /* \"#utility.yul\":2555:2556   */\n      0x00\n        /* \"#utility.yul\":2544:2553   */\n      dup4\n        /* \"#utility.yul\":2540:2557   */\n      add\n        /* \"#utility.yul\":2531:2537   */\n      dup5\n        /* \"#utility.yul\":2481:2558   */\n      tag_106\n      jump\t// in\n    tag_148:\n        /* \"#utility.yul\":2331:2565   */\n      swap3\n      swap2\n      pop\n      pop\n      jump\t// out\n        /* \"#utility.yul\":2571:2675   */\n    tag_107:\n        /* \"#utility.yul\":2616:2623   */\n      0x00\n        /* \"#utility.yul\":2645:2669   */\n      tag_150\n        /* \"#utility.yul\":2663:2668   */\n      dup3\n        /* \"#utility.yul\":2645:2669   */\n      tag_99\n      jump\t// in\n    tag_150:\n        /* \"#utility.yul\":2634:2669   */\n      swap1\n      pop\n        /* \"#utility.yul\":2571:2675   */\n      swap2\n      swap1\n      pop\n      jump\t// out\n        /* \"#utility.yul\":2681:2823   */\n    tag_108:\n        /* \"#utility.yul\":2784:2816   */\n      tag_152\n        /* \"#utility.yul\":2810:2815   */\n      dup2\n        /* \"#utility.yul\":2784:2816   */\n      tag_107\n      jump\t// in\n    tag_152:\n        /* \"#utility.yul\":2779:2782   */\n      dup3\n        /* \"#utility.yul\":2772:2817   */\n      mstore\n        /* \"#utility.yul\":2681:2823   */\n      pop\n      pop\n      jump\t// out\n        /* \"#utility.yul\":2829:3083   */\n    tag_37:\n        /* \"#utility.yul\":2938:2942   */\n      0x00\n        /* \"#utility.yul\":2976:2978   */\n      0x20\n        /* \"#utility.yul\":2965:2974   */\n      dup3\n        /* \"#utility.yul\":2961:2979   */\n      add\n        /* \"#utility.yul\":2953:2979   */\n      swap1\n      pop\n        /* \"#utility.yul\":2989:3076   */\n      tag_154\n        /* \"#utility.yul\":3073:3074   */\n      0x00\n        /* \"#utility.yul\":3062:3071   */\n      dup4\n        /* \"#utility.yul\":3058:3075   */\n      add\n        /* \"#utility.yul\":3049:3055   */\n      dup5\n        /* \"#utility.yul\":2989:3076   */\n      tag_108\n      jump\t// in\n    tag_154:\n        /* \"#utility.yul\":2829:3083   */\n      swap3\n      swap2\n      pop\n      pop\n      jump\t// out\n        /* \"#utility.yul\":3089:3188   */\n    tag_109:\n        /* \"#utility.yul\":3141:3147   */\n      0x00\n        /* \"#utility.yul\":3175:3180   */\n      dup2\n        /* \"#utility.yul\":3169:3181   */\n      mload\n        /* \"#utility.yul\":3159:3181   */\n      swap1\n      pop\n        /* \"#utility.yul\":3089:3188   */\n      swap2\n      swap1\n      pop\n      jump\t// out\n        /* \"#utility.yul\":3194:3363   */\n    tag_110:\n        /* \"#utility.yul\":3278:3289   */\n      0x00\n        /* \"#utility.yul\":3312:3318   */\n      dup3\n        /* \"#utility.yul\":3307:3310   */\n      dup3\n        /* \"#utility.yul\":3300:3319   */\n      mstore\n        /* \"#utility.yul\":3352:3356   */\n      0x20\n        /* \"#utility.yul\":3347:3350   */\n      dup3\n        /* \"#utility.yul\":3343:3357   */\n      add\n        /* \"#utility.yul\":3328:3357   */\n      swap1\n      pop\n        /* \"#utility.yul\":3194:3363   */\n      swap3\n      swap2\n      pop\n      pop\n      jump\t// out\n        /* \"#utility.yul\":3369:3508   */\n    tag_111:\n        /* \"#utility.yul\":3458:3464   */\n      dup3\n        /* \"#utility.yul\":3453:3456   */\n      dup2\n        /* \"#utility.yul\":3448:3451   */\n      dup4\n        /* \"#utility.yul\":3442:3465   */\n      mcopy\n        /* \"#utility.yul\":3499:3500   */\n      0x00\n        /* \"#utility.yul\":3490:3496   */\n      dup4\n        /* \"#utility.yul\":3485:3488   */\n      dup4\n        /* \"#utility.yul\":3481:3497   */\n      add\n        /* \"#utility.yul\":3474:3501   */\n      mstore\n        /* \"#utility.yul\":3369:3508   */\n      pop\n      pop\n      pop\n      jump\t// out\n        /* \"#utility.yul\":3514:3616   */\n    tag_112:\n        /* \"#utility.yul\":3555:3561   */\n      0x00\n        /* \"#utility.yul\":3606:3608   */\n      0x1f\n        /* \"#utility.yul\":3602:3609   */\n      not\n        /* \"#utility.yul\":3597:3599   */\n      0x1f\n        /* \"#utility.yul\":3590:3595   */\n      dup4\n        /* \"#utility.yul\":3586:3600   */\n      add\n        /* \"#utility.yul\":3582:3610   */\n      and\n        /* \"#utility.yul\":3572:3610   */\n      swap1\n      pop\n        /* \"#utility.yul\":3514:3616   */\n      swap2\n      swap1\n      pop\n      jump\t// out\n        /* \"#utility.yul\":3622:3999   */\n    tag_113:\n        /* \"#utility.yul\":3710:3713   */\n      0x00\n        /* \"#utility.yul\":3738:3777   */\n      tag_160\n        /* \"#utility.yul\":3771:3776   */\n      dup3\n        /* \"#utility.yul\":3738:3777   */\n      tag_109\n      jump\t// in\n    tag_160:\n        /* \"#utility.yul\":3793:3864   */\n      tag_161\n        /* \"#utility.yul\":3857:3863   */\n      dup2\n        /* \"#utility.yul\":3852:3855   */\n      dup6\n        /* \"#utility.yul\":3793:3864   */\n      tag_110\n      jump\t// in\n    tag_161:\n        /* \"#utility.yul\":3786:3864   */\n      swap4\n      pop\n        /* \"#utility.yul\":3873:3938   */\n      tag_162\n        /* \"#utility.yul\":3931:3937   */\n      dup2\n        /* \"#utility.yul\":3926:3929   */\n      dup6\n        /* \"#utility.yul\":3919:3923   */\n      0x20\n        /* \"#utility.yul\":3912:3917   */\n      dup7\n        /* \"#utility.yul\":3908:3924   */\n      add\n        /* \"#utility.yul\":3873:3938   */\n      tag_111\n      jump\t// in\n    tag_162:\n        /* \"#utility.yul\":3963:3992   */\n      tag_163\n        /* \"#utility.yul\":3985:3991   */\n      dup2\n        /* \"#utility.yul\":3963:3992   */\n      tag_112\n      jump\t// in\n    tag_163:\n        /* \"#utility.yul\":3958:3961   */\n      dup5\n        /* \"#utility.yul\":3954:3993   */\n      add\n        /* \"#utility.yul\":3947:3993   */\n      swap2\n      pop\n        /* \"#utility.yul\":3714:3999   */\n      pop\n        /* \"#utility.yul\":3622:3999   */\n      swap3\n      swap2\n      pop\n      pop\n      jump\t// out\n        /* \"#utility.yul\":4005:4318   */\n    tag_49:\n        /* \"#utility.yul\":4118:4122   */\n      0x00\n        /* \"#utility.yul\":4156:4158   */\n      0x20\n        /* \"#utility.yul\":4145:4154   */\n      dup3\n        /* \"#utility.yul\":4141:4159   */\n      add\n        /* \"#utility.yul\":4133:4159   */\n      swap1\n      pop\n        /* \"#utility.yul\":4205:4214   */\n      dup2\n        /* \"#utility.yul\":4199:4203   */\n      dup2\n        /* \"#utility.yul\":4195:4215   */\n      sub\n        /* \"#utility.yul\":4191:4192   */\n      0x00\n        /* \"#utility.yul\":4180:4189   */\n      dup4\n        /* \"#utility.yul\":4176:4193   */\n      add\n        /* \"#utility.yul\":4169:4216   */\n      mstore\n        /* \"#utility.yul\":4233:4311   */\n      tag_165\n        /* \"#utility.yul\":4306:4310   */\n      dup2\n        /* \"#utility.yul\":4297:4303   */\n      dup5\n        /* \"#utility.yul\":4233:4311   */\n      tag_113\n      jump\t// in\n    tag_165:\n        /* \"#utility.yul\":4225:4311   */\n      swap1\n      pop\n        /* \"#utility.yul\":4005:4318   */\n      swap3\n      swap2\n      pop\n      pop\n      jump\t// out\n        /* \"#utility.yul\":4324:4504   */\n    tag_114:\n        /* \"#utility.yul\":4372:4449   */\n      0x4e487b7100000000000000000000000000000000000000000000000000000000\n        /* \"#utility.yul\":4369:4370   */\n      0x00\n        /* \"#utility.yul\":4362:4450   */\n      mstore\n        /* \"#utility.yul\":4469:4473   */\n      0x22\n        /* \"#utility.yul\":4466:4467   */\n      0x04\n        /* \"#utility.yul\":4459:4474   */\n      mstore\n        /* \"#utility.yul\":4493:4497   */\n      0x24\n        /* \"#utility.yul\":4490:4491   */\n      0x00\n        /* \"#utility.yul\":4483:4498   */\n      revert\n        /* \"#utility.yul\":4510:4830   */\n    tag_63:\n        /* \"#utility.yul\":4554:4560   */\n      0x00\n        /* \"#utility.yul\":4591:4592   */\n      0x02\n        /* \"#utility.yul\":4585:4589   */\n      dup3\n        /* \"#utility.yul\":4581:4593   */\n      div\n        /* \"#utility.yul\":4571:4593   */\n      swap1\n      pop\n        /* \"#utility.yul\":4638:4639   */\n      0x01\n        /* \"#utility.yul\":4632:4636   */\n      dup3\n        /* \"#utility.yul\":4628:4640   */\n      and\n        /* \"#utility.yul\":4659:4677   */\n      dup1\n        /* \"#utility.yul\":4649:4730   */\n      tag_168\n      jumpi\n        /* \"#utility.yul\":4715:4719   */\n      0x7f\n        /* \"#utility.yul\":4707:4713   */\n      dup3\n        /* \"#utility.yul\":4703:4720   */\n      and\n        /* \"#utility.yul\":4693:4720   */\n      swap2\n      pop\n        /* \"#utility.yul\":4649:4730   */\n    tag_168:\n        /* \"#utility.yul\":4777:4779   */\n      0x20\n        /* \"#utility.yul\":4769:4775   */\n      dup3\n        /* \"#utility.yul\":4766:4780   */\n      lt\n        /* \"#utility.yul\":4746:4764   */\n      dup2\n        /* \"#utility.yul\":4743:4781   */\n      sub\n        /* \"#utility.yul\":4740:4824   */\n      tag_169\n      jumpi\n        /* \"#utility.yul\":4796:4814   */\n      tag_170\n      tag_114\n      jump\t// in\n    tag_170:\n        /* \"#utility.yul\":4740:4824   */\n    tag_169:\n        /* \"#utility.yul\":4561:4830   */\n      pop\n        /* \"#utility.yul\":4510:4830   */\n      swap2\n      swap1\n      pop\n      jump\t// out\n        /* \"#utility.yul\":4836:5016   */\n    tag_115:\n        /* \"#utility.yul\":4884:4961   */\n      0x4e487b7100000000000000000000000000000000000000000000000000000000\n        /* \"#utility.yul\":4881:4882   */\n      0x00\n        /* \"#utility.yul\":4874:4962   */\n      mstore\n        /* \"#utility.yul\":4981:4985   */\n      0x11\n        /* \"#utility.yul\":4978:4979   */\n      0x04\n        /* \"#utility.yul\":4971:4986   */\n      mstore\n        /* \"#utility.yul\":5005:5009   */\n      0x24\n        /* \"#utility.yul\":5002:5003   */\n      0x00\n        /* \"#utility.yul\":4995:5010   */\n      revert\n        /* \"#utility.yul\":5022:5213   */\n    tag_82:\n        /* \"#utility.yul\":5062:5065   */\n      0x00\n        /* \"#utility.yul\":5081:5101   */\n      tag_173\n        /* \"#utility.yul\":5099:5100   */\n      dup3\n        /* \"#utility.yul\":5081:5101   */\n      tag_94\n      jump\t// in\n    tag_173:\n        /* \"#utility.yul\":5076:5101   */\n      swap2\n      pop\n        /* \"#utility.yul\":5115:5135   */\n      tag_174\n        /* \"#utility.yul\":5133:5134   */\n      dup4\n        /* \"#utility.yul\":5115:5135   */\n      tag_94\n      jump\t// in\n    tag_174:\n        /* \"#utility.yul\":5110:5135   */\n      swap3\n      pop\n        /* \"#utility.yul\":5158:5159   */\n      dup3\n        /* \"#utility.yul\":5155:5156   */\n      dup3\n        /* \"#utility.yul\":5151:5160   */\n      add\n        /* \"#utility.yul\":5144:5160   */\n      swap1\n      pop\n        /* \"#utility.yul\":5179:5182   */\n      dup1\n        /* \"#utility.yul\":5176:5177   */\n      dup3\n        /* \"#utility.yul\":5173:5183   */\n      gt\n        /* \"#utility.yul\":5170:5206   */\n      iszero\n      tag_175\n      jumpi\n        /* \"#utility.yul\":5186:5204   */\n      tag_176\n      tag_115\n      jump\t// in\n    tag_176:\n        /* \"#utility.yul\":5170:5206   */\n    tag_175:\n        /* \"#utility.yul\":5022:5213   */\n      swap3\n      swap2\n      pop\n      pop\n      jump\t// out\n\n    auxdata: 0xa264697066735822122028ad8d5ecf6b32fd319ffc9d9282295a88b9ead56f0bd6884c608b29fe85e5a664736f6c634300081c0033\n}\n",
				"bytecode": {
					"linkReferences": {},
					"object": "608060405234801561000f575f5ffd5b50335f5f6101000a81548173ffffffffffffffffffffffffffffffffffffffff021916908373ffffffffffffffffffffffffffffffffffffffff160217905550600160045f6101000a81548160ff02191690836003811115610074576100736100c1565b5b021790555043600181905550619d806001546100909190610124565b60028190555060405180602001604052805f815250600390816100b3919061038b565b50606460088190555061045a565b7f4e487b71000000000000000000000000000000000000000000000000000000005f52602160045260245ffd5b5f819050919050565b7f4e487b71000000000000000000000000000000000000000000000000000000005f52601160045260245ffd5b5f61012e826100ee565b9150610139836100ee565b9250828201905080821115610151576101506100f7565b5b92915050565b5f81519050919050565b7f4e487b71000000000000000000000000000000000000000000000000000000005f52604160045260245ffd5b7f4e487b71000000000000000000000000000000000000000000000000000000005f52602260045260245ffd5b5f60028204905060018216806101d257607f821691505b6020821081036101e5576101e461018e565b5b50919050565b5f819050815f5260205f209050919050565b5f6020601f8301049050919050565b5f82821b905092915050565b5f600883026102477fffffffffffffffffffffffffffffffffffffffffffffffffffffffffffffffff8261020c565b610251868361020c565b95508019841693508086168417925050509392505050565b5f819050919050565b5f61028c610287610282846100ee565b610269565b6100ee565b9050919050565b5f819050919050565b6102a583610272565b6102b96102b182610293565b848454610218565b825550505050565b5f5f905090565b6102d06102c1565b6102db81848461029c565b505050565b5b818110156102fe576102f35f826102c8565b6001810190506102e1565b5050565b601f82111561034357610314816101eb565b61031d846101fd565b8101602085101561032c578190505b610340610338856101fd565b8301826102e0565b50505b505050565b5f82821c905092915050565b5f6103635f1984600802610348565b1980831691505092915050565b5f61037b8383610354565b9150826002028217905092915050565b61039482610157565b67ffffffffffffffff8111156103ad576103ac610161565b5b6103b782546101bb565b6103c2828285610302565b5f60209050601f8311600181146103f3575f84156103e1578287015190505b6103eb8582610370565b865550610452565b601f198416610401866101eb565b5f5b8281101561042857848901518255600182019150602085019450602081019050610403565b868310156104455784890151610441601f891682610354565b8355505b6001600288020188555050505b505050505050565b6109c0806104675f395ff3fe608060405260043610610090575f3560e01c80638fa8b790116100585780638fa8b7901461017857806391f901571461018e578063c623674f146101b8578063ecfc7ecc146101e2578063f5b56c56146101ec57610090565b8063083c63231461009457806348cd4cb1146100be57806362ea82db146100e85780637fb45099146101245780638da5cb5b1461014e575b5f5ffd5b34801561009f575f5ffd5b506100a8610216565b6040516100b591906106d6565b60405180910390f35b3480156100c9575f5ffd5b506100d261021c565b6040516100df91906106d6565b60405180910390f35b3480156100f3575f5ffd5b5061010e6004803603810190610109919061074d565b610222565b60405161011b91906106d6565b60405180910390f35b34801561012f575f5ffd5b50610138610237565b60405161014591906107eb565b60405180910390f35b348015610159575f5ffd5b50610162610249565b60405161016f9190610824565b60405180910390f35b348015610183575f5ffd5b5061018c61026d565b005b348015610199575f5ffd5b506101a26102f0565b6040516101af9190610824565b60405180910390f35b3480156101c3575f5ffd5b506101cc610315565b6040516101d991906108ad565b60405180910390f35b6101ea6103a1565b005b3480156101f7575f5ffd5b5061020061069e565b60405161020d91906106d6565b60405180910390f35b60025481565b60015481565b6007602052805f5260405f205f915090505481565b60045f9054906101000a900460ff1681565b5f5f9054906101000a900473ffffffffffffffffffffffffffffffffffffffff1681565b5f5f9054906101000a900473ffffffffffffffffffffffffffffffffffffffff1673ffffffffffffffffffffffffffffffffffffffff163373ffffffffffffffffffffffffffffffffffffffff16146102c4575f5ffd5b600360045f6101000a81548160ff021916908360038111156102e9576102e8610778565b5b0217905550565b60065f9054906101000a900473ffffffffffffffffffffffffffffffffffffffff1681565b60038054610322906108fa565b80601f016020809104026020016040519081016040528092919081815260200182805461034e906108fa565b80156103995780601f1061037057610100808354040283529160200191610399565b820191905f5260205f20905b81548152906001019060200180831161037c57829003601f168201915b505050505081565b5f5f9054906101000a900473ffffffffffffffffffffffffffffffffffffffff1673ffffffffffffffffffffffffffffffffffffffff163373ffffffffffffffffffffffffffffffffffffffff16036103f8575f5ffd5b600154431015610406575f5ffd5b600254431115610414575f5ffd5b6001600381111561042857610427610778565b5b60045f9054906101000a900460ff16600381111561044957610448610778565b5b14610452575f5ffd5b606434101561045f575f5ffd5b5f3460075f3373ffffffffffffffffffffffffffffffffffffffff1673ffffffffffffffffffffffffffffffffffffffff1681526020019081526020015f20546104a99190610957565b905060055481116104b8575f5ffd5b8060075f3373ffffffffffffffffffffffffffffffffffffffff1673ffffffffffffffffffffffffffffffffffffffff1681526020019081526020015f208190555060075f60065f9054906101000a900473ffffffffffffffffffffffffffffffffffffffff1673ffffffffffffffffffffffffffffffffffffffff1673ffffffffffffffffffffffffffffffffffffffff1681526020019081526020015f205481116105df576105d4600854826105709190610957565b60075f60065f9054906101000a900473ffffffffffffffffffffffffffffffffffffffff1673ffffffffffffffffffffffffffffffffffffffff1673ffffffffffffffffffffffffffffffffffffffff1681526020019081526020015f20546106a4565b60058190555061069b565b6106548160085460075f60065f9054906101000a900473ffffffffffffffffffffffffffffffffffffffff1673ffffffffffffffffffffffffffffffffffffffff1673ffffffffffffffffffffffffffffffffffffffff1681526020019081526020015f205461064f9190610957565b6106a4565b6005819055503360065f6101000a81548173ffffffffffffffffffffffffffffffffffffffff021916908373ffffffffffffffffffffffffffffffffffffffff1602179055505b50565b60055481565b5f8183116106b4578190506106b8565b8290505b92915050565b5f819050919050565b6106d0816106be565b82525050565b5f6020820190506106e95f8301846106c7565b92915050565b5f5ffd5b5f73ffffffffffffffffffffffffffffffffffffffff82169050919050565b5f61071c826106f3565b9050919050565b61072c81610712565b8114610736575f5ffd5b50565b5f8135905061074781610723565b92915050565b5f60208284031215610762576107616106ef565b5b5f61076f84828501610739565b91505092915050565b7f4e487b71000000000000000000000000000000000000000000000000000000005f52602160045260245ffd5b600481106107b6576107b5610778565b5b50565b5f8190506107c6826107a5565b919050565b5f6107d5826107b9565b9050919050565b6107e5816107cb565b82525050565b5f6020820190506107fe5f8301846107dc565b92915050565b5f61080e826106f3565b9050919050565b61081e81610804565b82525050565b5f6020820190506108375f830184610815565b92915050565b5f81519050919050565b5f82825260208201905092915050565b8281835e5f83830152505050565b5f601f19601f8301169050919050565b5f61087f8261083d565b6108898185610847565b9350610899818560208601610857565b6108a281610865565b840191505092915050565b5f6020820190508181035f8301526108c58184610875565b905092915050565b7f4e487b71000000000000000000000000000000000000000000000000000000005f52602260045260245ffd5b5f600282049050600182168061091157607f821691505b602082108103610924576109236108cd565b5b50919050565b7f4e487b71000000000000000000000000000000000000000000000000000000005f52601160045260245ffd5b5f610961826106be565b915061096c836106be565b92508282019050808211156109845761098361092a565b5b9291505056fea264697066735822122028ad8d5ecf6b32fd319ffc9d9282295a88b9ead56f0bd6884c608b29fe85e5a664736f6c634300081c0033",
					"opcodes": "PUSH1 0x80 PUSH1 0x40 MSTORE CALLVALUE DUP1 ISZERO PUSH2 0xF JUMPI PUSH0 PUSH0 REVERT JUMPDEST POP CALLER PUSH0 PUSH0 PUSH2 0x100 EXP DUP2 SLOAD DUP2 PUSH20 0xFFFFFFFFFFFFFFFFFFFFFFFFFFFFFFFFFFFFFFFF MUL NOT AND SWAP1 DUP4 PUSH20 0xFFFFFFFFFFFFFFFFFFFFFFFFFFFFFFFFFFFFFFFF AND MUL OR SWAP1 SSTORE POP PUSH1 0x1 PUSH1 0x4 PUSH0 PUSH2 0x100 EXP DUP2 SLOAD DUP2 PUSH1 0xFF MUL NOT AND SWAP1 DUP4 PUSH1 0x3 DUP2 GT ISZERO PUSH2 0x74 JUMPI PUSH2 0x73 PUSH2 0xC1 JUMP JUMPDEST JUMPDEST MUL OR SWAP1 SSTORE POP NUMBER PUSH1 0x1 DUP2 SWAP1 SSTORE POP PUSH2 0x9D80 PUSH1 0x1 SLOAD PUSH2 0x90 SWAP2 SWAP1 PUSH2 0x124 JUMP JUMPDEST PUSH1 0x2 DUP2 SWAP1 SSTORE POP PUSH1 0x40 MLOAD DUP1 PUSH1 0x20 ADD PUSH1 0x40 MSTORE DUP1 PUSH0 DUP2 MSTORE POP PUSH1 0x3 SWAP1 DUP2 PUSH2 0xB3 SWAP2 SWAP1 PUSH2 0x38B JUMP JUMPDEST POP PUSH1 0x64 PUSH1 0x8 DUP2 SWAP1 SSTORE POP PUSH2 0x45A JUMP JUMPDEST PUSH32 0x4E487B7100000000000000000000000000000000000000000000000000000000 PUSH0 MSTORE PUSH1 0x21 PUSH1 0x4 MSTORE PUSH1 0x24 PUSH0 REVERT JUMPDEST PUSH0 DUP2 SWAP1 POP SWAP2 SWAP1 POP JUMP JUMPDEST PUSH32 0x4E487B7100000000000000000000000000000000000000000000000000000000 PUSH0 MSTORE PUSH1 0x11 PUSH1 0x4 MSTORE PUSH1 0x24 PUSH0 REVERT JUMPDEST PUSH0 PUSH2 0x12E DUP3 PUSH2 0xEE JUMP JUMPDEST SWAP2 POP PUSH2 0x139 DUP4 PUSH2 0xEE JUMP JUMPDEST SWAP3 POP DUP3 DUP3 ADD SWAP1 POP DUP1 DUP3 GT ISZERO PUSH2 0x151 JUMPI PUSH2 0x150 PUSH2 0xF7 JUMP JUMPDEST JUMPDEST SWAP3 SWAP2 POP POP JUMP JUMPDEST PUSH0 DUP2 MLOAD SWAP1 POP SWAP2 SWAP1 POP JUMP JUMPDEST PUSH32 0x4E487B7100000000000000000000000000000000000000000000000000000000 PUSH0 MSTORE PUSH1 0x41 PUSH1 0x4 MSTORE PUSH1 0x24 PUSH0 REVERT JUMPDEST PUSH32 0x4E487B7100000000000000000000000000000000000000000000000000000000 PUSH0 MSTORE PUSH1 0x22 PUSH1 0x4 MSTORE PUSH1 0x24 PUSH0 REVERT JUMPDEST PUSH0 PUSH1 0x2 DUP3 DIV SWAP1 POP PUSH1 0x1 DUP3 AND DUP1 PUSH2 0x1D2 JUMPI PUSH1 0x7F DUP3 AND SWAP2 POP JUMPDEST PUSH1 0x20 DUP3 LT DUP2 SUB PUSH2 0x1E5 JUMPI PUSH2 0x1E4 PUSH2 0x18E JUMP JUMPDEST JUMPDEST POP SWAP2 SWAP1 POP JUMP JUMPDEST PUSH0 DUP2 SWAP1 POP DUP2 PUSH0 MSTORE PUSH1 0x20 PUSH0 KECCAK256 SWAP1 POP SWAP2 SWAP1 POP JUMP JUMPDEST PUSH0 PUSH1 0x20 PUSH1 0x1F DUP4 ADD DIV SWAP1 POP SWAP2 SWAP1 POP JUMP JUMPDEST PUSH0 DUP3 DUP3 SHL SWAP1 POP SWAP3 SWAP2 POP POP JUMP JUMPDEST PUSH0 PUSH1 0x8 DUP4 MUL PUSH2 0x247 PUSH32 0xFFFFFFFFFFFFFFFFFFFFFFFFFFFFFFFFFFFFFFFFFFFFFFFFFFFFFFFFFFFFFFFF DUP3 PUSH2 0x20C JUMP JUMPDEST PUSH2 0x251 DUP7 DUP4 PUSH2 0x20C JUMP JUMPDEST SWAP6 POP DUP1 NOT DUP5 AND SWAP4 POP DUP1 DUP7 AND DUP5 OR SWAP3 POP POP POP SWAP4 SWAP3 POP POP POP JUMP JUMPDEST PUSH0 DUP2 SWAP1 POP SWAP2 SWAP1 POP JUMP JUMPDEST PUSH0 PUSH2 0x28C PUSH2 0x287 PUSH2 0x282 DUP5 PUSH2 0xEE JUMP JUMPDEST PUSH2 0x269 JUMP JUMPDEST PUSH2 0xEE JUMP JUMPDEST SWAP1 POP SWAP2 SWAP1 POP JUMP JUMPDEST PUSH0 DUP2 SWAP1 POP SWAP2 SWAP1 POP JUMP JUMPDEST PUSH2 0x2A5 DUP4 PUSH2 0x272 JUMP JUMPDEST PUSH2 0x2B9 PUSH2 0x2B1 DUP3 PUSH2 0x293 JUMP JUMPDEST DUP5 DUP5 SLOAD PUSH2 0x218 JUMP JUMPDEST DUP3 SSTORE POP POP POP POP JUMP JUMPDEST PUSH0 PUSH0 SWAP1 POP SWAP1 JUMP JUMPDEST PUSH2 0x2D0 PUSH2 0x2C1 JUMP JUMPDEST PUSH2 0x2DB DUP2 DUP5 DUP5 PUSH2 0x29C JUMP JUMPDEST POP POP POP JUMP JUMPDEST JUMPDEST DUP2 DUP2 LT ISZERO PUSH2 0x2FE JUMPI PUSH2 0x2F3 PUSH0 DUP3 PUSH2 0x2C8 JUMP JUMPDEST PUSH1 0x1 DUP2 ADD SWAP1 POP PUSH2 0x2E1 JUMP JUMPDEST POP POP JUMP JUMPDEST PUSH1 0x1F DUP3 GT ISZERO PUSH2 0x343 JUMPI PUSH2 0x314 DUP2 PUSH2 0x1EB JUMP JUMPDEST PUSH2 0x31D DUP5 PUSH2 0x1FD JUMP JUMPDEST DUP2 ADD PUSH1 0x20 DUP6 LT ISZERO PUSH2 0x32C JUMPI DUP2 SWAP1 POP JUMPDEST PUSH2 0x340 PUSH2 0x338 DUP6 PUSH2 0x1FD JUMP JUMPDEST DUP4 ADD DUP3 PUSH2 0x2E0 JUMP JUMPDEST POP POP JUMPDEST POP POP POP JUMP JUMPDEST PUSH0 DUP3 DUP3 SHR SWAP1 POP SWAP3 SWAP2 POP POP JUMP JUMPDEST PUSH0 PUSH2 0x363 PUSH0 NOT DUP5 PUSH1 0x8 MUL PUSH2 0x348 JUMP JUMPDEST NOT DUP1 DUP4 AND SWAP2 POP POP SWAP3 SWAP2 POP POP JUMP JUMPDEST PUSH0 PUSH2 0x37B DUP4 DUP4 PUSH2 0x354 JUMP JUMPDEST SWAP2 POP DUP3 PUSH1 0x2 MUL DUP3 OR SWAP1 POP SWAP3 SWAP2 POP POP JUMP JUMPDEST PUSH2 0x394 DUP3 PUSH2 0x157 JUMP JUMPDEST PUSH8 0xFFFFFFFFFFFFFFFF DUP2 GT ISZERO PUSH2 0x3AD JUMPI PUSH2 0x3AC PUSH2 0x161 JUMP JUMPDEST JUMPDEST PUSH2 0x3B7 DUP3 SLOAD PUSH2 0x1BB JUMP JUMPDEST PUSH2 0x3C2 DUP3 DUP3 DUP6 PUSH2 0x302 JUMP JUMPDEST PUSH0 PUSH1 0x20 SWAP1 POP PUSH1 0x1F DUP4 GT PUSH1 0x1 DUP2 EQ PUSH2 0x3F3 JUMPI PUSH0 DUP5 ISZERO PUSH2 0x3E1 JUMPI DUP3 DUP8 ADD MLOAD SWAP1 POP JUMPDEST PUSH2 0x3EB DUP6 DUP3 PUSH2 0x370 JUMP JUMPDEST DUP7 SSTORE POP PUSH2 0x452 JUMP JUMPDEST PUSH1 0x1F NOT DUP5 AND PUSH2 0x401 DUP7 PUSH2 0x1EB JUMP JUMPDEST PUSH0 JUMPDEST DUP3 DUP2 LT ISZERO PUSH2 0x428 JUMPI DUP5 DUP10 ADD MLOAD DUP3 SSTORE PUSH1 0x1 DUP3 ADD SWAP2 POP PUSH1 0x20 DUP6 ADD SWAP5 POP PUSH1 0x20 DUP2 ADD SWAP1 POP PUSH2 0x403 JUMP JUMPDEST DUP7 DUP4 LT ISZERO PUSH2 0x445 JUMPI DUP5 DUP10 ADD MLOAD PUSH2 0x441 PUSH1 0x1F DUP10 AND DUP3 PUSH2 0x354 JUMP JUMPDEST DUP4 SSTORE POP JUMPDEST PUSH1 0x1 PUSH1 0x2 DUP9 MUL ADD DUP9 SSTORE POP POP POP JUMPDEST POP POP POP POP POP POP JUMP JUMPDEST PUSH2 0x9C0 DUP1 PUSH2 0x467 PUSH0 CODECOPY PUSH0 RETURN INVALID PUSH1 0x80 PUSH1 0x40 MSTORE PUSH1 0x4 CALLDATASIZE LT PUSH2 0x90 JUMPI PUSH0 CALLDATALOAD PUSH1 0xE0 SHR DUP1 PUSH4 0x8FA8B790 GT PUSH2 0x58 JUMPI DUP1 PUSH4 0x8FA8B790 EQ PUSH2 0x178 JUMPI DUP1 PUSH4 0x91F90157 EQ PUSH2 0x18E JUMPI DUP1 PUSH4 0xC623674F EQ PUSH2 0x1B8 JUMPI DUP1 PUSH4 0xECFC7ECC EQ PUSH2 0x1E2 JUMPI DUP1 PUSH4 0xF5B56C56 EQ PUSH2 0x1EC JUMPI PUSH2 0x90 JUMP JUMPDEST DUP1 PUSH4 0x83C6323 EQ PUSH2 0x94 JUMPI DUP1 PUSH4 0x48CD4CB1 EQ PUSH2 0xBE JUMPI DUP1 PUSH4 0x62EA82DB EQ PUSH2 0xE8 JUMPI DUP1 PUSH4 0x7FB45099 EQ PUSH2 0x124 JUMPI DUP1 PUSH4 0x8DA5CB5B EQ PUSH2 0x14E JUMPI JUMPDEST PUSH0 PUSH0 REVERT JUMPDEST CALLVALUE DUP1 ISZERO PUSH2 0x9F JUMPI PUSH0 PUSH0 REVERT JUMPDEST POP PUSH2 0xA8 PUSH2 0x216 JUMP JUMPDEST PUSH1 0x40 MLOAD PUSH2 0xB5 SWAP2 SWAP1 PUSH2 0x6D6 JUMP JUMPDEST PUSH1 0x40 MLOAD DUP1 SWAP2 SUB SWAP1 RETURN JUMPDEST CALLVALUE DUP1 ISZERO PUSH2 0xC9 JUMPI PUSH0 PUSH0 REVERT JUMPDEST POP PUSH2 0xD2 PUSH2 0x21C JUMP JUMPDEST PUSH1 0x40 MLOAD PUSH2 0xDF SWAP2 SWAP1 PUSH2 0x6D6 JUMP JUMPDEST PUSH1 0x40 MLOAD DUP1 SWAP2 SUB SWAP1 RETURN JUMPDEST CALLVALUE DUP1 ISZERO PUSH2 0xF3 JUMPI PUSH0 PUSH0 REVERT JUMPDEST POP PUSH2 0x10E PUSH1 0x4 DUP1 CALLDATASIZE SUB DUP2 ADD SWAP1 PUSH2 0x109 SWAP2 SWAP1 PUSH2 0x74D JUMP JUMPDEST PUSH2 0x222 JUMP JUMPDEST PUSH1 0x40 MLOAD PUSH2 0x11B SWAP2 SWAP1 PUSH2 0x6D6 JUMP JUMPDEST PUSH1 0x40 MLOAD DUP1 SWAP2 SUB SWAP1 RETURN JUMPDEST CALLVALUE DUP1 ISZERO PUSH2 0x12F JUMPI PUSH0 PUSH0 REVERT JUMPDEST POP PUSH2 0x138 PUSH2 0x237 JUMP JUMPDEST PUSH1 0x40 MLOAD PUSH2 0x145 SWAP2 SWAP1 PUSH2 0x7EB JUMP JUMPDEST PUSH1 0x40 MLOAD DUP1 SWAP2 SUB SWAP1 RETURN JUMPDEST CALLVALUE DUP1 ISZERO PUSH2 0x159 JUMPI PUSH0 PUSH0 REVERT JUMPDEST POP PUSH2 0x162 PUSH2 0x249 JUMP JUMPDEST PUSH1 0x40 MLOAD PUSH2 0x16F SWAP2 SWAP1 PUSH2 0x824 JUMP JUMPDEST PUSH1 0x40 MLOAD DUP1 SWAP2 SUB SWAP1 RETURN JUMPDEST CALLVALUE DUP1 ISZERO PUSH2 0x183 JUMPI PUSH0 PUSH0 REVERT JUMPDEST POP PUSH2 0x18C PUSH2 0x26D JUMP JUMPDEST STOP JUMPDEST CALLVALUE DUP1 ISZERO PUSH2 0x199 JUMPI PUSH0 PUSH0 REVERT JUMPDEST POP PUSH2 0x1A2 PUSH2 0x2F0 JUMP JUMPDEST PUSH1 0x40 MLOAD PUSH2 0x1AF SWAP2 SWAP1 PUSH2 0x824 JUMP JUMPDEST PUSH1 0x40 MLOAD DUP1 SWAP2 SUB SWAP1 RETURN JUMPDEST CALLVALUE DUP1 ISZERO PUSH2 0x1C3 JUMPI PUSH0 PUSH0 REVERT JUMPDEST POP PUSH2 0x1CC PUSH2 0x315 JUMP JUMPDEST PUSH1 0x40 MLOAD PUSH2 0x1D9 SWAP2 SWAP1 PUSH2 0x8AD JUMP JUMPDEST PUSH1 0x40 MLOAD DUP1 SWAP2 SUB SWAP1 RETURN JUMPDEST PUSH2 0x1EA PUSH2 0x3A1 JUMP JUMPDEST STOP JUMPDEST CALLVALUE DUP1 ISZERO PUSH2 0x1F7 JUMPI PUSH0 PUSH0 REVERT JUMPDEST POP PUSH2 0x200 PUSH2 0x69E JUMP JUMPDEST PUSH1 0x40 MLOAD PUSH2 0x20D SWAP2 SWAP1 PUSH2 0x6D6 JUMP JUMPDEST PUSH1 0x40 MLOAD DUP1 SWAP2 SUB SWAP1 RETURN JUMPDEST PUSH1 0x2 SLOAD DUP2 JUMP JUMPDEST PUSH1 0x1 SLOAD DUP2 JUMP JUMPDEST PUSH1 0x7 PUSH1 0x20 MSTORE DUP1 PUSH0 MSTORE PUSH1 0x40 PUSH0 KECCAK256 PUSH0 SWAP2 POP SWAP1 POP SLOAD DUP2 JUMP JUMPDEST PUSH1 0x4 PUSH0 SWAP1 SLOAD SWAP1 PUSH2 0x100 EXP SWAP1 DIV PUSH1 0xFF AND DUP2 JUMP JUMPDEST PUSH0 PUSH0 SWAP1 SLOAD SWAP1 PUSH2 0x100 EXP SWAP1 DIV PUSH20 0xFFFFFFFFFFFFFFFFFFFFFFFFFFFFFFFFFFFFFFFF AND DUP2 JUMP JUMPDEST PUSH0 PUSH0 SWAP1 SLOAD SWAP1 PUSH2 0x100 EXP SWAP1 DIV PUSH20 0xFFFFFFFFFFFFFFFFFFFFFFFFFFFFFFFFFFFFFFFF AND PUSH20 0xFFFFFFFFFFFFFFFFFFFFFFFFFFFFFFFFFFFFFFFF AND CALLER PUSH20 0xFFFFFFFFFFFFFFFFFFFFFFFFFFFFFFFFFFFFFFFF AND EQ PUSH2 0x2C4 JUMPI PUSH0 PUSH0 REVERT JUMPDEST PUSH1 0x3 PUSH1 0x4 PUSH0 PUSH2 0x100 EXP DUP2 SLOAD DUP2 PUSH1 0xFF MUL NOT AND SWAP1 DUP4 PUSH1 0x3 DUP2 GT ISZERO PUSH2 0x2E9 JUMPI PUSH2 0x2E8 PUSH2 0x778 JUMP JUMPDEST JUMPDEST MUL OR SWAP1 SSTORE POP JUMP JUMPDEST PUSH1 0x6 PUSH0 SWAP1 SLOAD SWAP1 PUSH2 0x100 EXP SWAP1 DIV PUSH20 0xFFFFFFFFFFFFFFFFFFFFFFFFFFFFFFFFFFFFFFFF AND DUP2 JUMP JUMPDEST PUSH1 0x3 DUP1 SLOAD PUSH2 0x322 SWAP1 PUSH2 0x8FA JUMP JUMPDEST DUP1 PUSH1 0x1F ADD PUSH1 0x20 DUP1 SWAP2 DIV MUL PUSH1 0x20 ADD PUSH1 0x40 MLOAD SWAP1 DUP2 ADD PUSH1 0x40 MSTORE DUP1 SWAP3 SWAP2 SWAP1 DUP2 DUP2 MSTORE PUSH1 0x20 ADD DUP3 DUP1 SLOAD PUSH2 0x34E SWAP1 PUSH2 0x8FA JUMP JUMPDEST DUP1 ISZERO PUSH2 0x399 JUMPI DUP1 PUSH1 0x1F LT PUSH2 0x370 JUMPI PUSH2 0x100 DUP1 DUP4 SLOAD DIV MUL DUP4 MSTORE SWAP2 PUSH1 0x20 ADD SWAP2 PUSH2 0x399 JUMP JUMPDEST DUP3 ADD SWAP2 SWAP1 PUSH0 MSTORE PUSH1 0x20 PUSH0 KECCAK256 SWAP1 JUMPDEST DUP2 SLOAD DUP2 MSTORE SWAP1 PUSH1 0x1 ADD SWAP1 PUSH1 0x20 ADD DUP1 DUP4 GT PUSH2 0x37C JUMPI DUP3 SWAP1 SUB PUSH1 0x1F AND DUP3 ADD SWAP2 JUMPDEST POP POP POP POP POP DUP2 JUMP JUMPDEST PUSH0 PUSH0 SWAP1 SLOAD SWAP1 PUSH2 0x100 EXP SWAP1 DIV PUSH20 0xFFFFFFFFFFFFFFFFFFFFFFFFFFFFFFFFFFFFFFFF AND PUSH20 0xFFFFFFFFFFFFFFFFFFFFFFFFFFFFFFFFFFFFFFFF AND CALLER PUSH20 0xFFFFFFFFFFFFFFFFFFFFFFFFFFFFFFFFFFFFFFFF AND SUB PUSH2 0x3F8 JUMPI PUSH0 PUSH0 REVERT JUMPDEST PUSH1 0x1 SLOAD NUMBER LT ISZERO PUSH2 0x406 JUMPI PUSH0 PUSH0 REVERT JUMPDEST PUSH1 0x2 SLOAD NUMBER GT ISZERO PUSH2 0x414 JUMPI PUSH0 PUSH0 REVERT JUMPDEST PUSH1 0x1 PUSH1 0x3 DUP2 GT ISZERO PUSH2 0x428 JUMPI PUSH2 0x427 PUSH2 0x778 JUMP JUMPDEST JUMPDEST PUSH1 0x4 PUSH0 SWAP1 SLOAD SWAP1 PUSH2 0x100 EXP SWAP1 DIV PUSH1 0xFF AND PUSH1 0x3 DUP2 GT ISZERO PUSH2 0x449 JUMPI PUSH2 0x448 PUSH2 0x778 JUMP JUMPDEST JUMPDEST EQ PUSH2 0x452 JUMPI PUSH0 PUSH0 REVERT JUMPDEST PUSH1 0x64 CALLVALUE LT ISZERO PUSH2 0x45F JUMPI PUSH0 PUSH0 REVERT JUMPDEST PUSH0 CALLVALUE PUSH1 0x7 PUSH0 CALLER PUSH20 0xFFFFFFFFFFFFFFFFFFFFFFFFFFFFFFFFFFFFFFFF AND PUSH20 0xFFFFFFFFFFFFFFFFFFFFFFFFFFFFFFFFFFFFFFFF AND DUP2 MSTORE PUSH1 0x20 ADD SWAP1 DUP2 MSTORE PUSH1 0x20 ADD PUSH0 KECCAK256 SLOAD PUSH2 0x4A9 SWAP2 SWAP1 PUSH2 0x957 JUMP JUMPDEST SWAP1 POP PUSH1 0x5 SLOAD DUP2 GT PUSH2 0x4B8 JUMPI PUSH0 PUSH0 REVERT JUMPDEST DUP1 PUSH1 0x7 PUSH0 CALLER PUSH20 0xFFFFFFFFFFFFFFFFFFFFFFFFFFFFFFFFFFFFFFFF AND PUSH20 0xFFFFFFFFFFFFFFFFFFFFFFFFFFFFFFFFFFFFFFFF AND DUP2 MSTORE PUSH1 0x20 ADD SWAP1 DUP2 MSTORE PUSH1 0x20 ADD PUSH0 KECCAK256 DUP2 SWAP1 SSTORE POP PUSH1 0x7 PUSH0 PUSH1 0x6 PUSH0 SWAP1 SLOAD SWAP1 PUSH2 0x100 EXP SWAP1 DIV PUSH20 0xFFFFFFFFFFFFFFFFFFFFFFFFFFFFFFFFFFFFFFFF AND PUSH20 0xFFFFFFFFFFFFFFFFFFFFFFFFFFFFFFFFFFFFFFFF AND PUSH20 0xFFFFFFFFFFFFFFFFFFFFFFFFFFFFFFFFFFFFFFFF AND DUP2 MSTORE PUSH1 0x20 ADD SWAP1 DUP2 MSTORE PUSH1 0x20 ADD PUSH0 KECCAK256 SLOAD DUP2 GT PUSH2 0x5DF JUMPI PUSH2 0x5D4 PUSH1 0x8 SLOAD DUP3 PUSH2 0x570 SWAP2 SWAP1 PUSH2 0x957 JUMP JUMPDEST PUSH1 0x7 PUSH0 PUSH1 0x6 PUSH0 SWAP1 SLOAD SWAP1 PUSH2 0x100 EXP SWAP1 DIV PUSH20 0xFFFFFFFFFFFFFFFFFFFFFFFFFFFFFFFFFFFFFFFF AND PUSH20 0xFFFFFFFFFFFFFFFFFFFFFFFFFFFFFFFFFFFFFFFF AND PUSH20 0xFFFFFFFFFFFFFFFFFFFFFFFFFFFFFFFFFFFFFFFF AND DUP2 MSTORE PUSH1 0x20 ADD SWAP1 DUP2 MSTORE PUSH1 0x20 ADD PUSH0 KECCAK256 SLOAD PUSH2 0x6A4 JUMP JUMPDEST PUSH1 0x5 DUP2 SWAP1 SSTORE POP PUSH2 0x69B JUMP JUMPDEST PUSH2 0x654 DUP2 PUSH1 0x8 SLOAD PUSH1 0x7 PUSH0 PUSH1 0x6 PUSH0 SWAP1 SLOAD SWAP1 PUSH2 0x100 EXP SWAP1 DIV PUSH20 0xFFFFFFFFFFFFFFFFFFFFFFFFFFFFFFFFFFFFFFFF AND PUSH20 0xFFFFFFFFFFFFFFFFFFFFFFFFFFFFFFFFFFFFFFFF AND PUSH20 0xFFFFFFFFFFFFFFFFFFFFFFFFFFFFFFFFFFFFFFFF AND DUP2 MSTORE PUSH1 0x20 ADD SWAP1 DUP2 MSTORE PUSH1 0x20 ADD PUSH0 KECCAK256 SLOAD PUSH2 0x64F SWAP2 SWAP1 PUSH2 0x957 JUMP JUMPDEST PUSH2 0x6A4 JUMP JUMPDEST PUSH1 0x5 DUP2 SWAP1 SSTORE POP CALLER PUSH1 0x6 PUSH0 PUSH2 0x100 EXP DUP2 SLOAD DUP2 PUSH20 0xFFFFFFFFFFFFFFFFFFFFFFFFFFFFFFFFFFFFFFFF MUL NOT AND SWAP1 DUP4 PUSH20 0xFFFFFFFFFFFFFFFFFFFFFFFFFFFFFFFFFFFFFFFF AND MUL OR SWAP1 SSTORE POP JUMPDEST POP JUMP JUMPDEST PUSH1 0x5 SLOAD DUP2 JUMP JUMPDEST PUSH0 DUP2 DUP4 GT PUSH2 0x6B4 JUMPI DUP2 SWAP1 POP PUSH2 0x6B8 JUMP JUMPDEST DUP3 SWAP1 POP JUMPDEST SWAP3 SWAP2 POP POP JUMP JUMPDEST PUSH0 DUP2 SWAP1 POP SWAP2 SWAP1 POP JUMP JUMPDEST PUSH2 0x6D0 DUP2 PUSH2 0x6BE JUMP JUMPDEST DUP3 MSTORE POP POP JUMP JUMPDEST PUSH0 PUSH1 0x20 DUP3 ADD SWAP1 POP PUSH2 0x6E9 PUSH0 DUP4 ADD DUP5 PUSH2 0x6C7 JUMP JUMPDEST SWAP3 SWAP2 POP POP JUMP JUMPDEST PUSH0 PUSH0 REVERT JUMPDEST PUSH0 PUSH20 0xFFFFFFFFFFFFFFFFFFFFFFFFFFFFFFFFFFFFFFFF DUP3 AND SWAP1 POP SWAP2 SWAP1 POP JUMP JUMPDEST PUSH0 PUSH2 0x71C DUP3 PUSH2 0x6F3 JUMP JUMPDEST SWAP1 POP SWAP2 SWAP1 POP JUMP JUMPDEST PUSH2 0x72C DUP2 PUSH2 0x712 JUMP JUMPDEST DUP2 EQ PUSH2 0x736 JUMPI PUSH0 PUSH0 REVERT JUMPDEST POP JUMP JUMPDEST PUSH0 DUP2 CALLDATALOAD SWAP1 POP PUSH2 0x747 DUP2 PUSH2 0x723 JUMP JUMPDEST SWAP3 SWAP2 POP POP JUMP JUMPDEST PUSH0 PUSH1 0x20 DUP3 DUP5 SUB SLT ISZERO PUSH2 0x762 JUMPI PUSH2 0x761 PUSH2 0x6EF JUMP JUMPDEST JUMPDEST PUSH0 PUSH2 0x76F DUP5 DUP3 DUP6 ADD PUSH2 0x739 JUMP JUMPDEST SWAP2 POP POP SWAP3 SWAP2 POP POP JUMP JUMPDEST PUSH32 0x4E487B7100000000000000000000000000000000000000000000000000000000 PUSH0 MSTORE PUSH1 0x21 PUSH1 0x4 MSTORE PUSH1 0x24 PUSH0 REVERT JUMPDEST PUSH1 0x4 DUP2 LT PUSH2 0x7B6 JUMPI PUSH2 0x7B5 PUSH2 0x778 JUMP JUMPDEST JUMPDEST POP JUMP JUMPDEST PUSH0 DUP2 SWAP1 POP PUSH2 0x7C6 DUP3 PUSH2 0x7A5 JUMP JUMPDEST SWAP2 SWAP1 POP JUMP JUMPDEST PUSH0 PUSH2 0x7D5 DUP3 PUSH2 0x7B9 JUMP JUMPDEST SWAP1 POP SWAP2 SWAP1 POP JUMP JUMPDEST PUSH2 0x7E5 DUP2 PUSH2 0x7CB JUMP JUMPDEST DUP3 MSTORE POP POP JUMP JUMPDEST PUSH0 PUSH1 0x20 DUP3 ADD SWAP1 POP PUSH2 0x7FE PUSH0 DUP4 ADD DUP5 PUSH2 0x7DC JUMP JUMPDEST SWAP3 SWAP2 POP POP JUMP JUMPDEST PUSH0 PUSH2 0x80E DUP3 PUSH2 0x6F3 JUMP JUMPDEST SWAP1 POP SWAP2 SWAP1 POP JUMP JUMPDEST PUSH2 0x81E DUP2 PUSH2 0x804 JUMP JUMPDEST DUP3 MSTORE POP POP JUMP JUMPDEST PUSH0 PUSH1 0x20 DUP3 ADD SWAP1 POP PUSH2 0x837 PUSH0 DUP4 ADD DUP5 PUSH2 0x815 JUMP JUMPDEST SWAP3 SWAP2 POP POP JUMP JUMPDEST PUSH0 DUP2 MLOAD SWAP1 POP SWAP2 SWAP1 POP JUMP JUMPDEST PUSH0 DUP3 DUP3 MSTORE PUSH1 0x20 DUP3 ADD SWAP1 POP SWAP3 SWAP2 POP POP JUMP JUMPDEST DUP3 DUP2 DUP4 MCOPY PUSH0 DUP4 DUP4 ADD MSTORE POP POP POP JUMP JUMPDEST PUSH0 PUSH1 0x1F NOT PUSH1 0x1F DUP4 ADD AND SWAP1 POP SWAP2 SWAP1 POP JUMP JUMPDEST PUSH0 PUSH2 0x87F DUP3 PUSH2 0x83D JUMP JUMPDEST PUSH2 0x889 DUP2 DUP6 PUSH2 0x847 JUMP JUMPDEST SWAP4 POP PUSH2 0x899 DUP2 DUP6 PUSH1 0x20 DUP7 ADD PUSH2 0x857 JUMP JUMPDEST PUSH2 0x8A2 DUP2 PUSH2 0x865 JUMP JUMPDEST DUP5 ADD SWAP2 POP POP SWAP3 SWAP2 POP POP JUMP JUMPDEST PUSH0 PUSH1 0x20 DUP3 ADD SWAP1 POP DUP2 DUP2 SUB PUSH0 DUP4 ADD MSTORE PUSH2 0x8C5 DUP2 DUP5 PUSH2 0x875 JUMP JUMPDEST SWAP1 POP SWAP3 SWAP2 POP POP JUMP JUMPDEST PUSH32 0x4E487B7100000000000000000000000000000000000000000000000000000000 PUSH0 MSTORE PUSH1 0x22 PUSH1 0x4 MSTORE PUSH1 0x24 PUSH0 REVERT JUMPDEST PUSH0 PUSH1 0x2 DUP3 DIV SWAP1 POP PUSH1 0x1 DUP3 AND DUP1 PUSH2 0x911 JUMPI PUSH1 0x7F DUP3 AND SWAP2 POP JUMPDEST PUSH1 0x20 DUP3 LT DUP2 SUB PUSH2 0x924 JUMPI PUSH2 0x923 PUSH2 0x8CD JUMP JUMPDEST JUMPDEST POP SWAP2 SWAP1 POP JUMP JUMPDEST PUSH32 0x4E487B7100000000000000000000000000000000000000000000000000000000 PUSH0 MSTORE PUSH1 0x11 PUSH1 0x4 MSTORE PUSH1 0x24 PUSH0 REVERT JUMPDEST PUSH0 PUSH2 0x961 DUP3 PUSH2 0x6BE JUMP JUMPDEST SWAP2 POP PUSH2 0x96C DUP4 PUSH2 0x6BE JUMP JUMPDEST SWAP3 POP DUP3 DUP3 ADD SWAP1 POP DUP1 DUP3 GT ISZERO PUSH2 0x984 JUMPI PUSH2 0x983 PUSH2 0x92A JUMP JUMPDEST JUMPDEST SWAP3 SWAP2 POP POP JUMP INVALID LOG2 PUSH5 0x6970667358 0x22 SLT KECCAK256 0x28 0xAD DUP14 MCOPY 0xCF PUSH12 0x32FD319FFC9D9282295A88B9 0xEA 0xD5 PUSH16 0xBD6884C608B29FE85E5A664736F6C63 NUMBER STOP ADDMOD SHR STOP CALLER "
				},
				"gasEstimates": {
					"creation": {
						"codeDepositCost": "499200",
						"executionCost": "infinite",
						"totalCost": "infinite"
					},
					"external": {
						"auctionState()": "2621",
						"bids(address)": "2847",
						"cancelAuction()": "26597",
						"endBlock()": "2426",
						"highestBidder()": "2530",
						"highestBindingBid()": "2513",
						"ipfsHash()": "infinite",
						"owner()": "2596",
						"placeBid()": "infinite",
						"startBlock()": "2448"
					},
					"internal": {
						"min(uint256,uint256)": "63"
					}
				},
				"methodIdentifiers": {
					"auctionState()": "7fb45099",
					"bids(address)": "62ea82db",
					"cancelAuction()": "8fa8b790",
					"endBlock()": "083c6323",
					"highestBidder()": "91f90157",
					"highestBindingBid()": "f5b56c56",
					"ipfsHash()": "c623674f",
					"owner()": "8da5cb5b",
					"placeBid()": "ecfc7ecc",
					"startBlock()": "48cd4cb1"
				}
			},
			"storageLayout": {
				"storage": [
					{
						"astId": 3,
						"contract": "src/auction.sol:Auction",
						"label": "owner",
						"offset": 0,
						"slot": "0",
						"type": "t_address_payable"
					},
					{
						"astId": 5,
						"contract": "src/auction.sol:Auction",
						"label": "startBlock",
						"offset": 0,
						"slot": "1",
						"type": "t_uint256"
					},
					{
						"astId": 7,
						"contract": "src/auction.sol:Auction",
						"label": "endBlock",
						"offset": 0,
						"slot": "2",
						"type": "t_uint256"
					},
					{
						"astId": 9,
						"contract": "src/auction.sol:Auction",
						"label": "ipfsHash",
						"offset": 0,
						"slot": "3",
						"type": "t_string_storage"
					},
					{
						"astId": 17,
						"contract": "src/auction.sol:Auction",
						"label": "auctionState",
						"offset": 0,
						"slot": "4",
						"type": "t_enum(State)14"
					},
					{
						"astId": 19,
						"contract": "src/auction.sol:Auction",
						"label": "highestBindingBid",
						"offset": 0,
						"slot": "5",
						"type": "t_uint256"
					},
					{
						"astId": 21,
						"contract": "src/auction.sol:Auction",
						"label": "highestBidder",
						"offset": 0,
						"slot": "6",
						"type": "t_address_payable"
					},
					{
						"astId": 25,
						"contract": "src/auction.sol:Auction",
						"label": "bids",
						"offset": 0,
						"slot": "7",
						"type": "t_mapping(t_address,t_uint256)"
					},
					{
						"astId": 27,
						"contract": "src/auction.sol:Auction",
						"label": "bidIncrement",
						"offset": 0,
						"slot": "8",
						"type": "t_uint256"
					}
				],
				"types": {
					"t_address": {
						"encoding": "inplace",
						"label": "address",
						"numberOfBytes": "20"
					},
					"t_address_payable": {
						"encoding": "inplace",
						"label": "address payable",
						"numberOfBytes": "20"
					},
					"t_enum(State)14": {
						"encoding": "inplace",
						"label": "enum Auction.State",
						"numberOfBytes": "1"
					},
					"t_mapping(t_address,t_uint256)": {
						"encoding": "mapping",
						"key": "t_address",
						"label": "mapping(address => uint256)",
						"numberOfBytes": "32",
						"value": "t_uint256"
					},
					"t_string_storage": {
						"encoding": "bytes",
						"label": "string",
						"numberOfBytes": "32"
					},
					"t_uint256": {
						"encoding": "inplace",
						"label": "uint256",
						"numberOfBytes": "32"
					}
				}
			},
			"userdoc": {
				"kind": "user",
				"methods": {},
				"version": 1
			}
		}
	}
}